:020000000C945E
:100002003C010C9400000C9400000C9400000C9431
:1000120000000C9400000C9400000C9400000C945E
:1000220000000C9400000C9400000C9400000C944E
:1000320000000C9400000C9400000C9400000C943E
:1000420000000C9400000C9400000C9400000C942E
:1000520000000C9400000C9400000C9400000C941E
:1000620000000C9400000C9400000C9400000C940E
:1000720000000C9400000C9400000C9400000C94FE
:100082006C070C9400000C9400000C9400000C947B
:1000920000000C9400000C9400000C9400000C94DE
:1000A20000000C9400000C946D070C9400000C945A
:1000B20000000C9400000C9400000C9400000C94BE
:1000C20000000C9400000C9400000C9400000C94AE
:1000D20000000C9400000C9400000C9400000C949E
:1000E2000000F07E0E0010CD0E0010CD0E00284054
:1000F20010002840100050DA110050DA110020D60A
:10010200130020D61300880C1600880C16005885A0
:1001120018005885180050211B0050211B00F0A127
:100122001D00F0A11D00388420003884200070CE0C
:1001320020001027E80364000A00010000100001FB
:10014200100001006A696E676C652062656C6C73F1
:10015200000000006D6F746F7220746573742077F5
:100162006974682025780A00456E7465722072658C
:1001720067697374657220616464723A0074756EA3
:10018200657220746573742E2E2E002E2E2E646FCF
:100192006E650A00737472696E67206D65616E73B5
:1001A2002025730A00686578203078257820307819
:1001B20025780A0068657820307825780A00756EFF
:1001C2007369676E65642026207369676E656420B3
:1001D200696E74206E756D6265723A2575202564AC
:1001E2000A00000000000000000000004147432018
:1001F20025642030782578257800307825782C30D1
:100202007825780A00726561642074756E65723AA9
:1002120025780A0001002D4E414E00494E4600004D
:100222001400000A56011500140A6A010E00290A78
:100232007F010900370A8D011100400A96010F0063
:10024200510AA7010A00600AB60124006A0AC00125
:1002520024008E0AC0012400B20AC0010E00D60A90
:10026200EE010B00E40AFC010F00EF0A0702010095
:10027200000B16020000F894EE27EFBBF1E0F5BF89
:10028200E5BFE0937400E0937500F8E1A895A4B788
:10029200A77FA4BFF0936000E09360008DE0A2E02E
:1002A200BB27ED938A95E9F780E090E2A0E0B2E007
:1002B200ED930197E9F7E2E2F2E0859195910097DB
:1002C20061F0A591B59105901590BF01F0010590DF
:1002D2000D920197E1F7FB01F0CF8BBF8CBFE0E0FD
:1002E200EEBBEFEFEDBFE1E2EEBFC0E0DAE00C946F
:1002F2003E02E0E8E0936100E0E0E0936100E2B9F1
:10030200E1B9E5B9E0E6E4B9E0E0E8B9E7B9EBB9AB
:10031200E0E8EAB9E0E0EEB9ECEBEDB9E0E0E1BB30
:10032200E0BBE4BBE8E0E3BBE0E0E0930201ECEA1F
:10033200E0930101E0E0E0930501E0930401E09322
:100342000801E0930701E0930B01E0930A01E4BD89
:10035200E5BDE6BDE7BDE8BDE0938000E093810026
:10036200E0938500E0938400E0938700E0938600A9
:10037200E0938900E0938800E0938B00E0938A0089
:10038200E0938D00E0938C00E093B600E093B00020
:10039200E093B100E093B200E093B300E093B400C5
:1003A2000E94D907E0E0E09395000E94DF07E0E0B9
:1003B2000E94E9070E94F507E0E0E093A500E093C0
:1003C200A400E093A700E093A600E093A9000E9496
:1003D200FB07E0E0E0932001E0932101E093250197
:1003E200E0932401E0932701E0932601E0932901A1
:1003F200E0932801E0932B01E0932A01E0932D0181
:10040200E0932C01E0936900E0936A00EDBBE09376
:100412006B00E0936C00E0936D00E0936800E09362
:100422006E00E0936F00E0937000E0937100E09340
:100432007200E0937300E093C100E093C800E8E12A
:10044200E093C900E6E0E093CA00E0E0E093CD006B
:10045200E7E6E093CC00E0E0E093D100E0933101E5
:10046200E0E8E0BFE0E0E0937B00E0937F00E09310
:100472007A00ECBDE093BC000895A09780E1A0E073
:10048200B0E0E6E4F1E00E94DA0AEEEFF9E260E0C1
:1004920070E0EC8FFD8F6E8F7F8FE8E6FEE260E00A
:1004A20070E0E88FF98F6A8F7B8FE0E0F0E061EE19
:1004B20076E4E88BF98B6A8B7B8BA88DB98D8A8D5C
:1004C2009B8DEC8DFD8D6E8D7F8D0E94FA090E94B1
:1004D200C20A0E94C807A8EEB3E080E090E00E9442
:1004E2003A0AEC8BFD8B6E8B7F8B03DF0E94070831
:1004F2000E9407085F98E8ECF0E00E9415085F9AF6
:10050200E4EFF1E00E941508E1E4EA930E94640737
:10051200E2E4EA930E946407E3E4EA930E94640738
:100522005F9A0E945207E83439F4739AE09102010B
:10053200E160E093020198C0E13499F4E4E4EA93C3
:100542000E9464075F98E8EEF3E00E9415085F9A44
:10055200E8EEF3E00E941508E1E4EA930E946407E2
:1005620083C0ED3469F40E9452075E2FE0E0FAE0A6
:100572000E9419080E9422085A930E94A40774C07C
:10058200EC3451F4EDB1E063EDB97598749AECE492
:10059200EA930E94640768C0E23561F45F98E4E17F
:1005A200FAE00E9427080E9452075E2F5A930E9487
:1005B20056065AC0E33569F4E9E2FAE00E942708D8
:1005C200E0E0EA930E94A406E7E3FAE00E9427082B
:1005D2004BC0E43559F45F98E4E7EA930E9464075C
:1005E2000E942E080E942E08DCD23EC0E535E1F5BD
:1005F200E0E4FAE0FA93EA93FE0132960E943508AB
:100602000E94220853E3E1E5FAE00E9419080E94E1
:100612003A0870960E943D085CEEE0E6FAE00E941D
:1006220019080E9422080FE610E820E634EAEAE6FA
:10063200FAE00E944608F9010E943D080FEF15EF0B
:1006420020E934E3EEE8FAE00E944608F9010E944C
:100652003D0809E610E025E83FEFE2EBFAE00E94F0
:100662004608F9010E943D085BCFFFCF7298E2E392
:10067200F0E00E941508729A0895EDB1E063EDB9B9
:10068200749A759A8BE28A95F1F774988BE08A9541
:10069200F1F70895EDB1E063EDB9749A8BE08A95B4
:1006A200F1F70E944A0874988BE08A95F1F7749AE0
:1006B20085E18A95F1F7759A08956C98749A85E1A7
:1006C2008A95F1F70E944A08649907C08BE08A95DF
:1006D200F1F775986C9AE1E008956C9AE8E5EA936F
:1006E2000E946407E0E0089508951A9310E018301C
:1006F200B0F475988BE08A95F1F7E981E07811F012
:10070200749A01C07498E981EE0FE9838BE08A95AF
:10071200F1F7759A85E18A95F1F71F5FE8CF759831
:10072200CCDFE13029F485E18A95F1F7E1E00FC3EE
:100732008BE08A95F1F7E0E00AC30E94CC0A1E81A1
:100742002F8138859ADFE985E160EA93CEDFE130D7
:1007520091F56C98E12F1150E03051F150E08BE2AD
:100762008A95F1F7749A00E0083070F485E18A9571
:10077200F1F70E944A08550F64995F5F8BE08A95F2
:10078200F1F775980F5FF0CFE52FD901EC932F5F4A
:100792003F4F85E18A95F1F774986C9A759A85E1D5
:1007A2008A95F1F775986C9885E38A95F1F7D2CF1F
:1007B20071DFE1E001C0E0E00E94D30A2A960895C9
:1007C2001A935BDF10E0E9811E1790F4AA81BB81C6
:1007D200EC91EA938ADFE03031F0EA81FB813196D5
:1007E200EA83FB8303C0E0E018815DC21F5FEBCFA9
:1007F20051DFE1E0188157C22397E0EDE883E1E0A1
:10080200E983E8ED0E944F080C949C072397E0EDE2
:10081200E883E1E0E983E8E50E944F080C949C0735
:1008220068978AE0A6E0B0E0E4EEF1E00E94DA0A1E
:100832000E94CC0AE0ECE98B0E945708A03AEBEB4D
:10084200BE07EDE08E07E0E09E0750F00E945708D9
:10085200A035EAEDBE07E1E18E07E0E09E0708F071
:1008620016C0EEE0ED8B00E010E00330E0E01E0782
:1008720058F4F8010E942E0AEC51FF4F0E945C08C6
:1008820018F00F5F1F4FF1CF0B5F1F4F15C0ECE049
:10089200ED8B00E010E00730E0E01E0758F4F801AD
:1008A2000E942E0AE450FF4F0E945C0818F00F5F6E
:1008B2001F4FF1CF0F5F1F4FD801E5E00E940B0AD7
:1008C2008F01E02FAD89EA0FED8B0E945708E4EF0C
:1008D200F1E060E070E00E94720AEE8BFF8B688F9D
:1008E200798FAE89BF89888D998DE0E2F0E060E072
:1008F20070E00E94720AEA8FFB8F6C8F7D8FEE8907
:10090200FF89688D798DEF71F070607070708F0162
:10091200AA8DBB8D8C8D9D8DE3E00E94200AEA8B0F
:10092200EA8DE295E07FEE0FEB8BE02FAB89EA0FC9
:10093200EB8B00E010E0E989EC87EA89ED87EB892F
:10094200EE87ED89E88BE1EEEF87ED89E37FE88BB7
:1009520053DF0E9463080E946808EF85E460ED8718
:100962000E9463080E946C08EAE0F0E00E94150809
:10097200EDEFEC8B2DE030E0F901F695E795E470B0
:10098200F070AF01F901EE0FFF1FE870F070EA8717
:10099200FB87F9010E94300AE870F070E887F98756
:1009A200F9010E942C0AE071F070EE83FF83DE01F0
:1009B2005496EC91E77EEC93DE015596EC91E37F41
:1009C200EC93FE017496BF010080E885AE81EA2BAC
:1009D200E029DB01EC93FE017596BF010080E42F54
:1009E200AA85EA2BE029DB01EC93EC89E460ED8730
:1009F200ED89EE870E9463080E94700807DFE1E03C
:100A0200F0E00E9415080F5F1F4F79D1E03011F01E
:100A1200E1E006C00430E0E01E0708F48CCFE0E01D
:100A22000E94D30AA29608952A971A930A93E0ED98
:100A3200EA83FE0132968F01E0E4EB83E4E6EC8385
:100A4200E4E00E9474080E947B08EFE0EB83E4E597
:100A52000E948208E1E1EB83EAE70E948208E2E277
:100A6200EB83E0E0EC830E947408EBE1EB83EFE8B8
:100A7200EC83E0EF0E947408E5E1EB83E7EFEC839F
:100A8200E8E8ED83E8E50E948608E9E1EB83E6EA1F
:100A9200EC83E8E80E947408EBE2EB83EFEFEC836F
:100AA200E7EF0E947408E7E3EB83EFE2EC83E6E111
:100AB200ED83EDEB0E948608ECE3EB83E2E10E941A
:100AC20082080E947B08E0E4EB83E3E6EC83E4E047
:100AD200ED83E0E20E948608E2EBEB83E0E1EC8347
:100AE200E2E8ED83E0E8EE83E2E8EF83E887E98776
:100AF2001A930A93E8E0EA9363DE198108812C963F
:100B020008952C971A930A93FE0136968F01E0ED11
:100B1200EE83E0E4EF83E4E6E887E4E0E9871A9312
:100B22000A93EA934DDEE2E0EF83E0E2E8871A936C
:100B32000A930E947008AE85BF8588899989E0E092
:100B4200F0E060E879E40E946309DF01CB01E0E0B4
:100B5200F0E563EC77E40E94B109DE0112960E948F
:100B62001C090E94B70AE8E2EF83AA81BB818C814B
:100B72009D81ECE00E94140AE887E4E00E94140AD6
:100B8200E987EA81E295E07FEA87E0E0EB87EC879C
:100B92001A930A93E7E0EA9313DE198108816296B9
:100BA20008951A9363DDE2E3F0E00E941508ED81F7
:100BB200FE816F8178850E94C20A32DE35DFE981CB
:100BC200FA816B817C810E94C20A9BDF10E01430A3
:100BD20058F41F5F80E19EE00197F1F709D0EF3FE3
:100BE20011F4E1E002C0F3CFE0E018812996089504
:100BF2002497E0EDE883EEE10E948A08E03011F4E8
:100C0200E0E051C00E948F0811F4E0E04CC0EA819C
:100C1200EB83E4E20E948A08E03011F4E0E043C092
:100C22000E948F0811F4E0E03EC0EA81E078E038EB
:100C320021F4EB81E078E03809F002C0EFEF33C035
:100C4200E1E031C02497E0EDE883E0E20E948A0807
:100C5200E03019F4E0E0F0E026C0E881EA93FE011A
:100C62003396FA93EA93E2E0EA9367DDE03019F40F
:100C7200E0E0F0E018C0EA81E883EB81EA83E881F2
:100C8200EB83E6EDFAE0FA93EA93EC81FD810E94B0
:100C920035080E949B08EC850E94A2088CE05AD07D
:100CA2002E96EA81FB812496089523971A930A933C
:100CB200FE0132968F01E0EDEA83ED81EB831A9318
:100CC2000A930E946C08E030B1F0EA81EA931A9329
:100CD2000A93E2E0EA9331DDE03069F0E4EEFAE013
:100CE200FA93EA93EC810E94A2080E949B0888E092
:100CF20031D02A96EA811981088126960895219792
:100D0200E0ECE8831A9310E077DDE981EA93FE01D3
:100D12003296FA93EA93E1E0EA930FDDEFEEFAE01E
:100D2200FA93EA93EB810E94A2080E9422081F5FB5
:100D3200E981E07419F06ADDE1E009C0133028F3BB
:100D420065DDE0E004C01A9319817CDFE12F188190
:100D520022960895FF92F82E62970E94CC0ADE0135
:100D620054960E94F609AE83BF830E94A808E081D0
:100D7200E03011F40C944C070E94A808A081A5321F
:100D820039F00E94AF083197E081EA939CD0EDCF11
:100D92000E94AF08E081F0E0E337A0E0FA0771F4C7
:100DA2000E94B9080D911C91D801EC91E03029F014
:100DB2000E94C2080F5F1F4FF7CF6AC0E537A0E05D
:100DC200FA07B1F40E94B9082D913C9150E00E94BB
:100DD2003A080E94C60811F05F5FF9CF503031F037
:100DE2000E943A080E94DC085150F8CFE8854EC0B4
:100DF200E436A0E0FA0701F50E94B9082D913C9172
:100E020033231AF4EDE2EA935ED03A932A930E94D6
:100E1200C0079F0150E00E943A080E94C60811F0E4
:100E22005F5FF9CF503031F00E943A080E94DC082F
:100E32005150F8CFE8852AC0E837A0E0FA0719F543
:100E42000E94B9082C913327D901E0E1F0E00E9419
:100E5200970AE05DE987D901E0E1F0E00E946D0ABE
:100E6200E05DE887A985AA3318F0E985E95FE9879B
:100E7200A885AA3318F0E885E95FE887E885EA9350
:100E820022D0E98503C00E94A808E081EA931BD022
:100E92000E94AF086ACFE1E00E94D30A6896FF90F1
:100EA20008951A930A93E091C8001E2FE078D9F3AF
:100EB2000091CE00E12FEC7111F4E02F01C0F3CFCD
:100EC200099119910895E091C800E072E1F3E88177
:100ED200E093CE0052C018951895E1ECE093900093
:100EE200EBE0E0939100E0E0E0939500E8810E945E
:100EF200DF07E6EF0E94E90740C0E981FA81E0934B
:100F0200FE0AF093FF0AE0ECE093A000EBE0E0932E
:100F1200A100E0E0E093A500E8E0E093A400E0E0B7
:100F2200E093A700E881E093A600E0E0E093A90047
:100F3200E6E20E94FB07239608950E94F5070895B2
:100F42000E94D9070895E881E07821F0E881EF70E6
:100F5200EA93C3DFE881E07441F0E0E1F7E2FA935B
:100F6200EA93EA81EF70EA93C8DFE881E072E881F0
:100F7200E07111F0E5DFE1DFE1E021960895E9910A
:100F8200F99130971AF4E095F09531960895E99128
:100F9200F9916991799130976040704042F4E095FF
:100FA200F0956095709500243196601D701D08952E
:100FB200E0E0E0939000E09391000895E0939400C4
:100FC200E0E0E0939700E0939600E09399000895A3
:100FD200E0939800E0E0E0939B00E0939A00E093B6
:100FE2009D00E0939C000895E0E0E093A000E09370
:100FF200A1000895E093A800E0E0E093AB00E09345
:10100200AA00E093AD00E093AC0008955F98E8EC8D
:10101200F0E0FA93EA930E94E1085F9AE8ECF0E0CC
:10102200FA93EA930C94E108FA93EA930C94E10898
:10103200FA93EA93E52FFF27662777270E94C20AD1
:10104200089584E00E94AB0626960895FA93EA93E7
:1010520080E00E94AB0622960895EC89FD896E8994
:101062007F890E94C20A0895662777270E94C20AD2
:101072000895E52FF0E008950E94350A0E94C20A01
:1010820088E00E94AB062A960895FA93EA93F80143
:10109200EBCF759A8BE08A95F1F70895EA83FE010A
:1010A200FA93EA93E3E0EA930C94E103AE8DBF8DE9
:1010B20088A199A1089534960E94BC0AF7DF0E9484
:1010C200C70A0895FE013C96FA93EA930895E5E073
:1010D200EA930C94E103E2E0EA930C94E103E3E087
:1010E200EA930C94E103ED831A930A93E4E0EA9302
:1010F2000C94E103E2E0EB83E0E2EC831A930A93BF
:10110200EECFEC831A930A93EACFEE831A930A93F3
:10111200DECFE983FE01FA93EA93DDCFE881EA9319
:10112200FE013396FA93EA93E1E0EA930E949E036A
:10113200E0300895E985FF27662777270E94C20AD3
:101142000895FF27662777270E94C20A0895DE01C5
:1011520058960E94F6090E94B30A0895DE01589635
:101162000E94F609ED91FD913196FE93EE9308955A
:10117200EE81FF813497EE83FF83AE81BF811496A7
:101182000895EC91EA930C946407DE011896EA0F35
:10119200FB1FBF01D901EAE0F0E00E94970AE05D7F
:1011A200DB01EC93D901EAE0F0E00E946D0A9F01B5
:1011B200022E032A0895DE011896AE0FBF1FE1CF5B
:1011C200E991F991309639F080EA9FE00197F1F7C1
:1011D200A8953197C9F70895552342F4503811F470
:1011E200E0FF04C03196691F791F6BF050E8572762
:1011F20011F45F9355C05F3F31F0660F000C5795B5
:101202006795752F08955F9300200AF055C04EC070
:1012120050E8192E1522880F991F9527550F87958B
:1012220050E8072E0522660F771F7527550F679521
:101232000895689401C0E8945F93F2DF703818F063
:101242007F3F08F42DC056E1571BAAF45195583040
:101252000EF4593030F0EFEFFFEF6FEF7FE777F9E1
:101262001AC077275523B9F0EE0FFF1F661F771FAD
:101272005A95D1F710C07727583028F0EF2FF62F64
:10128200672F5850F9CF552331F076956795F7952A
:10129200E7955A95D1F700200AF4B4D05F910895EA
:1012A200EE27FF27662777275F910895EFEFFFEF7D
:1012B2006FE77FEF5F910895EFEFFFEF6FE77FE753
:1012C2005F9108955F93A4DF703851F3903841F332
:1012D20001240894791F23F41CF300203AF3ECCF85
:1012E2000F921F932F933F934F93112722279927F2
:1012F200689FA0018F9F302D410D591F6B9F300DAC
:10130200411D591F8E9F27D0BF9F25D06A9F23D092
:10131200BE9F1DD0AF9F1BD0AE9F110D291F391F3D
:10132200491F591FE32FF42F652F522F4F913F91E1
:101332002F911F910F9066232AF0550FEE1FFF1F6A
:10134200661F02C073954BF247DF5F910895100D3F
:10135200211D391F02C0200D311D491F591F08953B
:101362005F9356DF703821F411200AF49FCFA4CF87
:10137200903809F495CF01240894970B1BF4D4F309
:101382000020F3CF792F1F932F933F934F93112474
:101392001127222733274427552790E2AE17BF078C
:1013A2008607410730F0AE1BBF0B860B410B08943A
:1013B20001C08894551F221F331F111CAA1FBB1F77
:1013C200881F441F9A9551F7F901612D4F913F9162
:1013D2002F911F91662332F0550FEE1FFF1F661FDC
:1013E2007A9543F2F9DE5F9108950024AF0DB01DA6
:1013F2000895EA1BFB0B680B790B0895F195E195B3
:10140200F0400895F09560957095E195FF4F6F4F0C
:101412007F4F0895EE230E2EFD0121F0EE0FFF1FE8
:101422000A94E1F70895EE230E2EFD01BC0131F07E
:1014320075956795F795E7950A94D1F70895EE2388
:101442000E2EFD01BC0131F076956795F795E79573
:101452000A94D1F70895EE0FFF1FEE0FFF1FEE0F54
:10146200FF1FEE0FFF1F08956F2F660F660B762F7B
:1014720008957A9F702D6B9F700DF89F700DE99FF4
:10148200700D6A9F602D710DFB9F600D711DE89FAD
:10149200600D711D8827FA9FF02D610D781FEB9F5B
:1014A200F00D611D781FEA9FE02DF10D681F781F76
:1014B20008950024112490E1AA0FBB1F001C111CE7
:1014C2000E1A1F0A18F40E0E1F1E01C0A1609A9573
:1014D20099F7FD01D001089537D0EBDF0EF48EDFCE
:1014E20008953F934F935F93002411244427552777
:1014F20030E2AA0FBB1F881F991F001C111C441F3A
:10150200551F0E1A1F0A460B570B28F40E0E1F1EEC
:10151200461F571F01C0A1603A9559F7FD01BC0152
:10152200D001CA015F914F913F910895E894B7FFAE
:1015320004C0A095B09511966894F7FD5FDFB9DFFE
:10154200FD010EF45BDF0895E894F7FF02C056DF59
:101552006894B7FF06C0A095B095119600F8039461
:1015620000FA0895ED91FC9111970895ED93FD9382
:101572006D937C9308950590159065917491F00197
:1015820008957A936A93FA93EA930895AE17BF0780
:101592008607970708955A934A933A932A931A9380
:1015A2000A9308955D814C813B812A8119810881CA
:1015B2000895AC0FBD1F05900D928A95E1F708952D
:00000001FF
