:020000000C945E
:10000200F0000C9400000C9400000C9400000C947E
:1000120000000C9400000C9400000C9400000C945E
:1000220000000C9400000C9400000C9400000C944E
:1000320000000C9400000C9400000C9400000C943E
:1000420000000C9400000C9400000C9400000C942E
:1000520000000C9400000C9400000C9400000C941E
:1000620000000C9400000C9400000C9400000C940E
:1000720000000C9400000C9400000C9400000C94FE
:1000820000000C9400000C9400000C9400000C94EE
:1000920000000C9400000C9400000C9400000C94DE
:1000A20000000C9400000C9400000C9400000C94CE
:1000B20000000C9400000C9400000C9400000C94BE
:1000C20000000C9400000C9400000C9400000C94AE
:1000D20000000C9400000C9400000C9400000C949E
:1000E2000000F07E0E0010CD0E0010CD0E00284054
:1000F20010002840100050DA110050DA110020D60A
:10010200130020D61300880C1600880C16005885A0
:1001120018005885180050211B0050211B00F0A127
:100122001D00F0A11D00388420003884200070CE0C
:1001320020001027E80364000A00010000100001FB
:10014200100001006A696E676C652062656C6C73F1
:1001520000000000000074686973206973207465F0
:10016200737421210A00737472696E67206D656170
:100172006E732025730A00756E7369676E6564205D
:1001820026207369676E656420696E74206E756DD2
:100192006265723A25752025640A0000000000009D
:1001A20000000000000001002D4E414E00494E4665
:1001B20000001000000A58011100100A6801240012
:1001C200210A79012400450A79012400690A79018A
:1001D20001000400560101008D0AA8010000F894F4
:1001E200EE27EFBBF1E0F5BFE5BFE0937400E093CB
:1001F2007500F8E1A895A4B7A77FA4BFF0936000AB
:10020200E09360008DE0A2E0BB27ED938A95E9F7C9
:1002120080E090E2A0E0B2E0ED930197E9F7E4EB31
:10022200F1E085919591009761F0A591B5910590C6
:100232001590BF01F00105900D920197E1F7FB01C6
:10024200F0CF8BBF8CBFE0E0EEBBEFEFEDBFE1E2A2
:10025200EEBFC0E0DAE00C940802E0E8E09361004F
:10026200E0E0E0936100E2B9E1B9E5B9E0E6E4B9C2
:10027200E0E0E8B9E7B9EBB9E0E8EAB9E0E0EEB905
:10028200E8EBEDB9E0E0E1BBE0BBE4BBE8E0E3BBF7
:10029200E0E0E0930201ECEAE0930101E0E0E093A8
:1002A2000501E0930401E0930801E0930701E09364
:1002B2000B01E0930A01E4BDE5BDE6BDE7BDE8BD83
:1002C200E0938000E0938100E0938500E093840056
:1002D200E0938700E0938600E0938900E093880032
:1002E200E0938B00E0938A00E0938D00E0938C0012
:1002F200E093B600E093B000E093B100E093B20067
:10030200E093B300E093B400E0939000E093910097
:10031200E0939500E0939400E0939700E0939600B9
:10032200E0939900E0939800E0939B00E0939A0099
:10033200E0939D00E0939C00E093A000E093A10075
:10034200E093A500E093A400E093A700E093A60049
:10035200E093A900E093A800E093AB00E093AA0029
:10036200E093AD00E093AC00E0932001E093210123
:10037200E0932501E0932401E0932701E093260115
:10038200E0932901E0932801E0932B01E0932A01F5
:10039200E0932D01E0932C01E0936900E0936A0061
:1003A200EDBBE0936B00E0936C00E0936D00E09393
:1003B2006800E0936E00E0936F00E0937000E093BA
:1003C2007100E0937200E0937300E093C100E09348
:1003D200C800E8E1E093C900E6E0E093CA00E0E08B
:1003E200E093CD00E7E6E093CC00E0E0E093D100BB
:1003F200E0933101E0E8E0BFE0E0E0937B00E093CE
:100402007F00E0937A00ECBDE093BC000895A097D2
:1004120080E1A0E0B0E0E6E4F1E00E94BA09EEEF8C
:10042200F9E260E070E0EC8FFD8F6E8F7F8FE8E67F
:10043200FEE260E070E0E88FF98F6A8F7B8FE0E088
:10044200F0E061EE76E4E88BF98B6A8B7B8BA88D0A
:10045200B98D8A8D9B8DEC8DFD8D6E8D7F8D0E9469
:10046200D3080E949B090E94C706A8EEB3E080E071
:1004720090E00E941309EC8BFD8B6E8B7F8BEDDE7F
:100482000E94D8060E94D8065F98E8ECF0E00E942D
:10049200E6065F9AE4EFF1E00E94E606E1E4EA9301
:1004A2000E94BE06E2E4EA930E94BE06E3E4EA93F7
:1004B2000E94BE065F9A0E94AC06E83451F4EDB188
:1004C200E063EDB9759A7498E8E4EA930E94BE0677
:1004D2006FC0E13499F4E4E4EA930E94BE065F98A7
:1004E200E8EEF3E00E94E6065F9AE8EEF3E00E948F
:1004F200E606E1E4EA930E94BE065AC0E73409F434
:1005020057C0EC3451F4EDB1E063EDB97598749ACB
:10051200ECE4EA930E94BE064BC0E23509F448C0FF
:10052200E33509F445C0E43559F45F98E4E7EA930A
:100532000E94BE060E94EA060E94EA06C3D238C0A2
:10054200E535B1F521E436EA40E654EAE0E0FAE0C6
:10055200FA93EA9380E00E9410062296E0E1FAE024
:10056200FA93EA93FE0132960E94F10684E00E9419
:100572001006269621E436EA40E654EAE1E2FAE081
:100582000E94F6060E94FA0621E03AE040E852EFA5
:10059200E5E4FAE00E94F6060E94FA0621EA30E05B
:1005A2004BE750E0E9E6FAE00E94F6060E94FA06FE
:1005B20081CFFFCF7298E2E3F0E00E94E606729AE2
:1005C2000895EDB1E063EDB9749A0E94040774983E
:1005D2008BE08A95F1F708950E94090774980895AF
:1005E2006C98749A80E28A95F1F70E9409076499DF
:1005F2000CC08BE08A95F1F775986C9A749AE6E2D2
:10060200EA930E94BE06E1E008956C9AE0E0089544
:1006120008951A9310E0183090F40E940E07E981B1
:10062200E07811F0749A01C07498E981EE0FE983C1
:100632008BE08A95F1F70E9404071F5FECCF759853
:10064200CFDFE13031F48BE08A95F1F7E1E04E2E15
:10065200E3C28BE08A95F1F74424DDC21A930A9330
:1006620000E06C98749A759880E18A95F1F710E031
:10067200183068F40E940907000FECB1E0710E2BEC
:100682008BE08A95F1F70E940E071F5FF1CF6C9AFB
:1006920074980E9404070E940E07E02F0C94BB0678
:1006A2000E94AE091C812D813E818BDFEF81E160CA
:1006B200EA93AFDFE13061F4103039F0CFDFD901D6
:1006C200EC932F5F3F4F1150F7CF86DFE1E001C07F
:1006D200E0E00E94B509289608951A9372DF10E0AF
:1006E200E9811E1788F4AA81BB81EC91EA9391DF1C
:1006F200E03031F0EA81FB813196EA83FB8302C06C
:10070200E0E004C01F5FECCF67DFE1E018812496D0
:1007120008952397E0EDE883E1E0E983E0EC06C089
:100722002397E0EDE883E1E0E983E0E4EA83FE0178
:100732000E9413072396089568978AE0A6E0B0E026
:10074200EEE9F1E00E94BA090E94AC09E0ECE98B03
:100752000E941907A03AEBEBBE07EDE08E07E0E03E
:100762009E0750F00E941907A035EAEDBE07E1E1AD
:100772008E07E0E09E0708F016C0EEE0ED8B00E089
:1007820010E00330E0E01E0758F4F8010E94070968
:10079200EC51FF4F0E941E0718F00F5F1F4FF1CF61
:1007A2000B5F1F4F15C0ECE0ED8B00E010E007304F
:1007B200E0E01E0758F4F8010E940709E450FF4FD9
:1007C2000E941E0718F00F5F1F4FF1CF0F5F1F4FE0
:1007D200D801E5E00E94E4088F01E02FAD89EA0F1D
:1007E200ED8B0E941907E4EFF1E060E070E00E94F7
:1007F2004B09EE8BFF8B688F798FAE89BF89888D0D
:10080200998DE0E2F0E060E070E00E944B09EA8F2F
:10081200FB8F6C8F7D8FEE89FF89688D798DEF71EB
:10082200F070607070708F01AA8DBB8D8C8D9D8D64
:10083200E3E00E94F908EA8BEA8DE295E07FEE0F91
:10084200EB8BE02FAB89EA0FEB8B00E010E0E9893C
:10085200EC87EA89ED87EB89EE87ED89E88BE1EE9B
:10086200EF87ED89E37FE88B54DFFE013C96FA9334
:10087200EA930E942507EF85E460ED87FE013C962E
:10088200FA93EA930E942907EAE0F0E00E94E60662
:10089200EDEFEC8B2DE030E0F901F695E795E47091
:1008A200F070AF01F901EE0FFF1FE870F070EA87F8
:1008B200FB87F9010E940909E870F070E887F9875F
:1008C200F9010E940509E071F070EE83FF83DE01F9
:1008D2005496EC91E77EEC93DE015596EC91E37F22
:1008E200EC93FE017496BF010080E885AE81EA2B8D
:1008F200E029DB01EC93FE017596BF010080E42F35
:10090200AA85EA2BE029DB01EC93EC89E460ED8710
:10091200ED89EE87FE013C960E94130701DFE1E0BC
:10092200F0E00E94E6060F5F1F4F55D1E03011F054
:10093200E1E006C00430E0E01E0708F488CFE0E002
:100942000E94B309A29608952A971A930A93E0ED9A
:10095200EA83FE0132968F01E0E4EB83E4E6EC8366
:10096200E4E00E942D070E943407EFE0EB83E4E508
:100972000E943E07E1E1EB83EAE70E943E07E2E2E2
:10098200EB83E0E0EC830E942D07EBE1EB83EFE8E1
:10099200EC83E0EF0E942D07E5E1EB83E7EFEC83C8
:1009A200E8E8ED83E8E50E944507E9E1EB83E6EA42
:1009B200EC83E8E80E942D07EBE2EB83EFEFEC8398
:1009C200E7EF0E942D07E7E3EB83EFE2EC83E6E13A
:1009D200ED83EDEB0E944507ECE3EB83E2E10E943D
:1009E2003E070E943407E0E4EB83E3E6EC83E4E0B5
:1009F200ED83E0E20E944507E2EBEB83E0E1EC836A
:100A0200E2E8ED83E0E8EE83E2E8EF83E887E98756
:100A12001A930A93E8E0EA9360DE198108812C9622
:100A220008952C971A930A93FE0136968F01E0EDF2
:100A3200EE83E0E4EF83E4E6E887E4E0E9871A93F3
:100A42000A93EA934ADEE2E0EF83E0E2E8871A9350
:100A52000A93E3E0EA9341DEAE85BF8588899989EE
:100A6200E0E0F0E060E879E40E943C08DF01CB01BD
:100A7200E0E0F0E563EC77E40E948A08DE0112967A
:100A82000E94F5070E949009E8E2EF83AA81BB81E8
:100A92008C819D81ECE00E94ED08E887E4E00E94F1
:100AA200ED08E987EA81E295E07FEA87E0E0EB87FB
:100AB200EC871A930A93E7E0EA930FDE1981088123
:100AC200629608951A9376DDE2E3F0E00E94E6066C
:100AD200E1E3EA9352D1ED81FE816F8178850E9434
:100AE2009B092ADEE2E3EA9348D12EDFE3E3EA93AD
:100AF20044D1E981FA816B817C810E949B0991DF5B
:100B0200E4E3EA933AD110E0143070F41F5F80E11D
:100B12009EE00197F1F74CD0E03029F0E8E04E2E4C
:100B2200E1E0188143C0F0CFE0E018813FC0239795
:100B32000E94AE0931E020E0E5E3EA931ED1FE0116
:100B420034968F01E0EDEC83E4E2ED831A930A938D
:100B52000E942907E03051F0E2E6EA930ED10E94AA
:100B6200490721F00E94530721E030E0303039F785
:100B7200E6E3EA9302D131E0FE0134968F01E0ED23
:100B8200EC83EEE1ED831A930A930E942907E03089
:100B920031F00E94490719F00E94530730E03030CB
:100BA20059F7E7E3EA93E9D00E94B5092996089537
:100BB2002297FE01FA93EA93BADFE881E078E038FF
:100BC20021F4E981E078E03809F002C0E1E025C0D3
:100BD200BBDEE0E022C02197E0ECE8831A9310E04C
:100BE20098DDE981EA93FE013296FA93EA93E1E015
:100BF200EA9356DD1F5FE981E07429F0E4E04E2EAE
:100C02008FDDE1E009C0A981A13010F0E2E04E2EB3
:100C1200133038F385DDE0E0188122960895FF92C3
:100C2200F82E63970E94AC09DE0155960E94CF0808
:100C3200AE83BF830E945C07E081E03011F40C9424
:100C4200A6060E945C07A081A53239F00E946307C4
:100C52003197E081EA9391D0EDCF0E946307E08162
:100C6200F0E0E337A0E0FA0771F40E946D070D91FE
:100C72001C91D801EC91E03029F00E9476070F5FB9
:100C82001F4FF7CF5FC0E537A0E0FA0749F50E9492
:100C92006D072D913C9150E00E947B0711F05F5F40
:100CA200FBCF40E0451778F40E9493070E94960715
:100CB200E8870E9493070E949C070E94AA070E944D
:100CC200AF074F5FEFCFFE0139968F01D801EC914C
:100CD200E03029F00E9476070F5F1F4FF7CF32C036
:100CE200E436A0E0FA0749F50E946D072D913C9188
:100CF20050E00E947B0711F05F5FFBCF40E0451799
:100D020078F40E9493070E949607E8870E9493074F
:100D12000E949C070E94AA070E94AF074F5FEFCF75
:100D2200FE0139968F01D801EC91E03029F00E9442
:100D320076070F5F1F4FF7CF05C00E945C07E08167
:100D4200EA931BD00E94630775CFE1E00E94B309CA
:100D52006996FF9008951A930A93E091C8001E2F96
:100D6200E078D9F30091CE00E12FEC7111F4E02F7D
:100D720001C0F3CF099119910895E091C800E07282
:100D8200E1F3E881E093CE0021960895E991F9918B
:100D92006991799130976040704042F4E095F09506
:100DA2006095709500243196601D701D08955F98BE
:100DB200E8ECF0E0FA93EA930E94BA075F9AE8EC53
:100DC200F0E0FA93EA930C94BA07FA93EA930C943C
:100DD200BA07EC89FD896E897F890E949B09089573
:100DE200662777270E949B090895FA93EA93F901EF
:100DF200F7CFFA010E940E090E949B0988E00E9427
:100E020010062A960895759A85E18A95F1F7089554
:100E1200759A8BE08A95F1F70895759885E18A9520
:100E2200F1F70895FA93EA93E3E0EA930C946E03E0
:100E3200AE8DBF8D88A199A1089534960E9495091F
:100E4200F7DF0E94A7090895E5E0EA930C946E0388
:100E5200E2E0EA930C946E03ED831A930A93E4E0C2
:100E6200EA930C946E03E2E0EB83E0E2EC831A93E4
:100E72000A93E3E0EA930C946E03EC831A930A93C9
:100E8200E3E0EA930C946E03EE831A930A93DCCFA9
:100E9200EC81EA931A930A93E2E0EA930E945103E7
:100EA200E0300895E22FAF81B885F0E0EA0FFB1F32
:100EB200AC81A0830895DE0159960E94CF080E945A
:100EC2008C090895DE0159960E94CF08ED91FD919B
:100ED2003196FE93EE930895EE81FF813497EE836F
:100EE200FF83AE81BF8114960895D801EC91EA93F5
:100EF2000C94BE06E52FF0E0DE011996EA0FFB1F07
:100F0200BF01D901EAE0F0E00E947009E05DDB0177
:100F1200EC93D901EAE0F0E00E9446099F01022E1B
:100F2200032A0895E42FF0E00895DE011996AE0F2A
:100F3200BF1FEC9108950F01DE011996EA0FFB1F06
:100F4200BF01A52FBB27F0010E94A009EA1BFB0BE2
:100F5200ECCFDB01EC93A52FBB27E4CF0E94A009C5
:100F6200EA1BFB0BDE011996EA0FFB1FA885A08383
:100F72000895E991F991309639F080EA9FE001975E
:100F8200F1F7A8953197C9F70895552342F45038DF
:100F920011F4E0FF04C03196691F791F6BF050E82D
:100FA200572711F45F9355C05F3F31F0660F000C75
:100FB20057956795752F08955F9300200AF055C0E5
:100FC2004EC050E8192E1522880F991F9527550FEC
:100FD200879550E8072E0522660F771F7527550F54
:100FE20067950895689401C0E8945F93F2DF7038C2
:100FF20018F07F3F08F42DC056E1571BAAF4519513
:1010020058300EF4593030F0EFEFFFEF6FEF7FE71B
:1010120077F91AC077275523B9F0EE0FFF1F661F25
:10102200771F5A95D1F710C07727583028F0EF2F45
:10103200F62F672F5850F9CF552331F076956795E3
:10104200F795E7955A95D1F700200AF4B4D05F914D
:101052000895EE27FF27662777275F910895EFEF20
:10106200FFEF6FE77FEF5F910895EFEFFFEF6FE71D
:101072007FE75F9108955F93A4DF703851F3903852
:1010820041F301240894791F23F41CF300203AF35E
:10109200ECCF0F921F932F933F934F931127222749
:1010A2009927689FA0018F9F302D410D591F6B9F7B
:1010B200300D411D591F8E9F27D0BF9F25D06A9F9B
:1010C20023D0BE9F1DD0AF9F1BD0AE9F110D291FF5
:1010D200391F491F591FE32FF42F652F522F4F91AC
:1010E2003F912F911F910F9066232AF0550FEE1F0B
:1010F200FF1F661F02C073954BF247DF5F91089591
:10110200100D211D391F02C0200D311D491F591F0D
:1011120008955F9356DF703821F411200AF49FCFAF
:10112200A4CF903809F495CF01240894970B1BF4AF
:10113200D4F30020F3CF792F1F932F933F934F9334
:1011420011241127222733274427552790E2AE176F
:10115200BF078607410730F0AE1BBF0B860B410B62
:10116200089401C08894551F221F331F111CAA1F07
:10117200BB1F881F441F9A9551F7F901612D4F91AA
:101182003F912F911F91662332F0550FEE1FFF1FE3
:10119200661F7A9543F2F9DE5F9108950024AF0D40
:1011A200B01D0895EA1BFB0B680B790B0895F195AE
:1011B200E195F0400895F09560957095E195FF4FA7
:1011C2006F4F7F4F0895EE230E2EFD0121F0EE0F9B
:1011D200FF1F0A94E1F70895EE230E2EFD01BC01D4
:1011E20031F075956795F795E7950A94D1F70895CB
:1011F200EE230E2EFD01BC0131F076956795F79531
:10120200E7950A94D1F70895EE0FFF1FEE0FFF1F27
:10121200EE0FFF1FEE0FFF1F08956F2F660F660B75
:10122200762F08957A9F702D6B9F700DF89F700D29
:10123200E99F700D6A9F602D710DFB9F600D711DFE
:10124200E89F600D711D8827FA9FF02D610D781FB0
:10125200EB9FF00D611D781FEA9FE02DF10D681FD5
:10126200781F08950024112490E1AA0FBB1F001CCF
:10127200111C0E1A1F0A18F40E0E1F1E01C0A160C7
:101282009A9599F7FD01D001089537D0EBDF0EF45E
:101292008EDF08953F934F935F93002411244427D8
:1012A200552730E2AA0FBB1F881F991F001C111C73
:1012B200441F551F0E1A1F0A460B570B28F40E0E19
:1012C2001F1E461F571F01C0A1603A9559F7FD0125
:1012D200BC01D001CA015F914F913F910895E894FA
:1012E200B7FF04C0A095B09511966894F7FD5FDF33
:1012F200B9DFFD010EF45BDF0895E894F7FF02C049
:1013020056DF6894B7FF06C0A095B095119600F815
:10131200039400FA0895ED91FC9111970895ED93CD
:10132200FD936D937C93089505901590659174914A
:10133200F00108957A936A93FA93EA9308951B2E23
:10134200BF2FF12D1A2EAE2FE12D0895AE17BF0734
:101352008607970708955A934A933A932A931A93C2
:101362000A9308955D814C813B812A81198108810C
:101372000895AC0FBD1F05900D928A95E1F708956F
:00000001FF
