:0E0000000C9432010C9400000C9400000C943F
:10000E0000000C9400000C9400000C9400000C9462
:10001E0000000C9400000C9400000C9400000C9452
:10002E0000000C9400000C9400000C9400000C9442
:10003E0000000C9400000C9400000C9400000C9432
:10004E0000000C9400000C9400000C9400000C9422
:10005E0000000C9400000C9400000C9400000C9412
:10006E0000000C9400000C9400000C9400000C9402
:10007E0000000C9400000C9400000C9400000C94F2
:10008E0000000C9400000C9400000C9400000C94E2
:10009E0000000C9400000C9400000C9400000C94D2
:1000AE0000000C9400000C9400000C9400000C94C2
:1000BE0000000C9400000C9400000C9400000C94B2
:1000CE0000000C9400000C9400000C9400000C94A2
:1000DE0000000C940000F07E0E0010CD0E0010CD2E
:1000EE000E00284010002840100050DA110050DA9F
:1000FE00110020D6130020D61300880C1600880C91
:10010E001600588518005885180050211B005021E4
:10011E001B00F0A11D00F0A11D00388420003884C2
:10012E00200070CE20001027E80364000A000100B2
:10013E0000100001100001006A696E676C65206294
:10014E00656C6C7300000000456E746572207265FC
:10015E0067697374657220616464723A00526567F0
:10016E00697374657220307825782076616C7565B8
:10017E0020697320307825780A0074756E657220B8
:10018E0074657374002E2E2E646F6E650A00737480
:10019E0072696E67206D65616E732025730A006843
:1001AE006578203078257820307825780A006865C3
:1001BE007820307825780A00756E7369676E6564ED
:1001CE002026207369676E656420696E74206E75D3
:1001DE006D6265723A25752025640A0000000000E4
:1001EE000000000000003078257800726561642000
:1001FE0074756E65723A25780A0001002D4E414ED7
:10020E0000494E4600001500000A56011D00150A51
:10021E006B010B00320A880109003D0A930111009F
:10022E00460A9C010F00570AAD010A00660ABC017E
:10023E002400700AC6012400940AC6012400B80ADC
:10024E00C6010500DC0AF4010F00E10AF901010004
:10025E00F00A08020000F894EE27EFBBF1E0F5BFBC
:10026E00E5BFE0937400E0937500F8E1A895A4B79C
:10027E00A77FA4BFF0936000E09360008DE0A2E042
:10028E00BB27ED938A95E9F780E090E2A0E0B2E01B
:10029E00ED930197E9F7E4E1F2E0859195910097EE
:1002AE0061F0A591B59105901590BF01F0010590F3
:1002BE000D920197E1F7FB01F0CF8BBF8CBFE0E011
:1002CE00EEBBEFEFEDBFE1E2EEBFC0E0DAE00C9483
:1002DE004A02E0E8E0936100E0E0E0936100E2B9F9
:1002EE00E1B9E5B9E0E6E4B9E0E0E8B9E7B9EBB9C0
:1002FE00E0E8EAB9E0E0EEB9ECEBEDB9E0E0E1BB45
:10030E00E0BBE4BBE8E0E3BBE0E0E0930201ECEA33
:10031E00E0930101E0E0E0930501E0930401E09336
:10032E000801E0930701E0930B01E0930A01E4BD9D
:10033E00E5BDE6BDE7BDE8BDE0938000E09381003A
:10034E00E0938500E0938400E0938700E0938600BD
:10035E00E0938900E0938800E0938B00E0938A009D
:10036E00E0938D00E0938C00E093B600E093B00034
:10037E00E093B100E093B200E093B300E093B400D9
:10038E00E0939000E0939100E0939500E093940049
:10039E00E0939700E0939600E0939900E093980025
:1003AE00E0939B00E0939A00E0939D00E0939C0005
:1003BE00E093A000E093A100E093A500E093A400D9
:1003CE00E093A700E093A600E093A900E093A800B5
:1003DE00E093AB00E093AA00E093AD00E093AC0095
:1003EE00E0932001E0932101E0932501E0932401A5
:1003FE00E0932701E0932601E0932901E093280181
:10040E00E0932B01E0932A01E0932D01E0932C0160
:10041E00E0936900E0936A00EDBBE0936B00E0931C
:10042E006C00E0936D00E0936800E0936E00E09343
:10043E006F00E0937000E0937100E0937200E09320
:10044E007300E093C100E093C800E8E1E093C900B7
:10045E00E6E0E093CA00E0E0E093CD00E7E6E0934B
:10046E00CC00E0E0E093D100E0933101E0E8E0BFA2
:10047E00E0E0E0937B00E0937F00E0937A00ECBD38
:10048E00E093BC000895A09780E1A0E0B0E0E6E420
:10049E00F1E00E94380AEEEFF9E260E070E0EC8FD6
:1004AE00FD8F6E8F7F8FE8E6FEE260E070E0E88FF2
:1004BE00F98F6A8F7B8FE0E0F0E061EE76E4E88BF7
:1004CE00F98B6A8B7B8BA88DB98D8A8D9B8DEC8D6C
:1004DE00FD8D6E8D7F8D0E9458090E94200A0E940C
:1004EE005507A8EEB3E080E090E00E949809EC8BEF
:1004FE00FD8B6E8B7F8BEDDE0E9466070E9466077A
:10050E005F98E8ECF0E00E9474075F9AE4EFF1E088
:10051E000E947407E1E4EA930E944407E2E4EA933E
:10052E000E944407E3E4EA930E9444075F9A0E9404
:10053E003207E83451F4EDB1E063EDB9759A749871
:10054E00E8E4EA930E94440794C0E13499F4E4E4A9
:10055E00EA930E9444075F98E8EEF3E00E94740766
:10056E005F9AE8EEF3E00E947407E1E4EA930E94DA
:10057E0044077FC0E73409F47CC0EC3451F4EDB18C
:10058E00E063EDB97598749AECE4EA930E9444071F
:10059E0070C0E235A1F45F98E0E0FAE00E947807BF
:1005AE000E9432075E2FE5E1FAE00E947F075A9320
:1005BE000E943B060E9488070E948E075AC0E335B0
:1005CE0069F4E2E3FAE00E947807E0E0EA930E9421
:1005DE008406EDE3FAE00E9478074BC0E43559F447
:1005EE005F98E4E7EA930E9444070E9493070E94F3
:1005FE009307CFD23EC0E535E1F5E6E4FAE0FA9393
:10060E00EA93FE0132960E949A070E949F0753E3D7
:10061E00E7E5FAE00E947F070E94A40770960E9409
:10062E00A7075CEEE6E6FAE00E947F070E949F07AE
:10063E000FE610E820E634EAE0E7FAE00E94AC07A5
:10064E00F9010E94A7070FEF15EF20E934E3E4E963
:10065E00FAE00E94AC07F9010E94A70709E610E034
:10066E0025E83FEFE8EBFAE00E94AC07F9010E94A3
:10067E00A7075CCFFFCF7298E2E3F0E00E94740709
:10068E00729A0895EDB1E063EDB9749A759A85E3A7
:10069E008A95F1F774988BE08A95F1F708950E9488
:1006AE00B007749A08956C98749A8BE08A95F1F756
:1006BE000E94B007649908C08BE08A95F1F775988F
:1006CE006C9A749AE1E008956C9AE8E5EA930E94B8
:1006DE004407E0E0089508951A9310E01830A0F44E
:1006EE000E94B507E981E07811F0749A01C0749800
:1006FE00E981EE0FE9838BE08A95F1F7759A85E132
:10070E008A95F1F71F5FEACF7598CDDFE13029F4B6
:10071E008BE08A95F1F7E1E0F4C28BE08A95F1F770
:10072E00E0E0EFC21A930A9300E06C98749A759801
:10073E0080E18A95F1F710E0183068F40E94B00756
:10074E00000FECB1E0710E2B8BE08A95F1F70E9451
:10075E00B5071F5FF1CFE02F0C9441070E942C0AC2
:10076E001C812D813E818EDFEF81E160EA93B4DF43
:10077E00E130A9F4103081F0D5DFD901EC932F5F71
:10078E003F4FE12F1150E03031F06C9A74980E9477
:10079E00B0070E94B507EECF82DFE1E001C0E0E0D6
:1007AE000E94330A289608951A936CDF10E0E981AF
:1007BE001E1788F4AA81BB81EC91EA938DDFE0309D
:1007CE0031F0EA81FB813196EA83FB8302C0E0E0DF
:1007DE0004C01F5FECCF63DFE1E01881249608951B
:1007EE002397E0EDE883E1E0E983E0EC06C0239790
:1007FE00E0EDE883E1E0E983E0E4EA83FE010E94B4
:10080E00BA072396089568978AE0A6E0B0E0EAEE6C
:10081E00F1E00E94380A0E942A0AE0ECE98B0E945D
:10082E00C007A03AEBEBBE07EDE08E07E0E09E07B7
:10083E0050F00E94C007A035EAEDBE07E1E18E0739
:10084E00E0E09E0708F016C0EEE0ED8B00E010E051
:10085E000330E0E01E0758F4F8010E948C09EC51B9
:10086E00FF4F0E94C50718F00F5F1F4FF1CF0B5FB0
:10087E001F4F15C0ECE0ED8B00E010E00730E0E01C
:10088E001E0758F4F8010E948C09E450FF4F0E9495
:10089E00C50718F00F5F1F4FF1CF0F5F1F4FD80125
:1008AE00E5E00E9469098F01E02FAD89EA0FED8B1B
:1008BE000E94C007E4EFF1E060E070E00E94D00912
:1008CE00EE8BFF8B688F798FAE89BF89888D998D5E
:1008DE00E0E2F0E060E070E00E94D009EA8FFB8F6A
:1008EE006C8F7D8FEE89FF89688D798DEF71F07039
:1008FE00607070708F01AA8DBB8D8C8D9D8DE3E025
:10090E000E947E09EA8BEA8DE295E07FEE0FEB8B7B
:10091E00E02FAB89EA0FEB8B00E010E0E989EC8762
:10092E00EA89ED87EB89EE87ED89E88BE1EEEF87BB
:10093E00ED89E37FE88B54DFFE013C96FA93EA9350
:10094E000E94CC07EF85E460ED87FE013C96FA939A
:10095E00EA930E94D007EAE0F0E00E947407EDEF00
:10096E00EC8B2DE030E0F901F695E795E470F07030
:10097E00AF01F901EE0FFF1FE870F070EA87FB87F9
:10098E00F9010E948E09E870F070E887F987F90185
:10099E000E948A09E071F070EE83FF83DE015496A7
:1009AE00EC91E77EEC93DE015596EC91E37FEC93B0
:1009BE00FE017496BF010080E885AE81EA2BE02926
:1009CE00DB01EC93FE017596BF010080E42FAA8532
:1009DE00EA2BE029DB01EC93EC89E460ED87ED89ED
:1009EE00EE87FE013C960E94BA0701DFE1E0F0E0DF
:1009FE000E9474070F5F1F4F5CD1E03011F0E1E0F1
:100A0E0006C00430E0E01E0708F488CFE0E00E9444
:100A1E00310AA29608952A971A930A93E0EDEA8373
:100A2E00FE0132968F01E0E4EB83E4E6EC83E4E032
:100A3E000E94D4070E94DB07EFE0EB83E4E50E94FF
:100A4E00E507E1E1EB83EAE70E94E507E2E2EB83EB
:100A5E00E0E0EC830E94D407EBE1EB83EFE8EC835C
:100A6E00E0EF0E94D407E5E1EB83E7EFEC83E8E8E3
:100A7E00ED83E8E50E94EC07E9E1EB83E6EAEC831F
:100A8E00E8E80E94D407EBE2EB83EFEFEC83E7EFAD
:100A9E000E94D407E7E3EB83EFE2EC83E6E1ED831C
:100AAE00EDEB0E94EC07ECE3EB83E2E10E94E5073D
:100ABE000E94DB07E0E4EB83E3E6EC83E4E0ED8306
:100ACE00E0E20E94EC07E2EBEB83E0E1EC83E2E88C
:100ADE00ED83E0E8EE83E2E8EF83E887E9871A9397
:100AEE000A93E8E0EA9360DE198108812C96089556
:100AFE002C971A930A93FE0136968F01E0EDEE8342
:100B0E00E0E4EF83E4E6E887E4E0E9871A930A93EA
:100B1E00EA934ADEE2E0EF83E0E2E8871A930A9373
:100B2E00E3E0EA9341DEAE85BF8588899989E0E0EE
:100B3E00F0E060E879E40E94C108DF01CB01E0E05B
:100B4E00F0E563EC77E40E940F09DE0112960E9435
:100B5E007A080E94150AE8E2EF83AA81BB818C8194
:100B6E009D81ECE00E947209E887E4E00E94720920
:100B7E00E987EA81E295E07FEA87E0E0EB87EC87A0
:100B8E001A930A93E7E0EA930FDE198108816296C1
:100B9E0008951A9370DDE2E3F0E00E947407ED8190
:100BAE00FE816F8178850E94200A2DDE34DFE98177
:100BBE00FA816B817C810E94200A9ADF10E014304A
:100BCE0060F41F5F80E19EE00197F1F73AD0E030CC
:100BDE0019F0E1E0188133C0F2CFE0E018812FC0A8
:100BEE0023970E942C0A31E020E0FE0134968F01FB
:100BFE00E0EDEC83E4E2ED830E94F007E03039F0A3
:100C0E000E94F30721F00E94FD0721E030E0303012
:100C1E0061F731E0FE0134968F01E0EDEC83EEE1F9
:100C2E00ED830E94F007E03031F00E94F30719F0D7
:100C3E000E94FD0730E0303069F70E94330A299692
:100C4E0008952297FE01FA93EA93CADFE881E078CD
:100C5E00E03821F4E981E078E03809F002C0E1E003
:100C6E0051C0D9DEE0E04EC023971A930A93FE01DD
:100C7E0032968F01E0EDEA83ED81EB830E94F0075F
:100C8E00E03099F0EA81EA931A930A93E2E0EA934C
:100C9E0065DDE03051F0ECEDFAE0FA93EA93ED8188
:100CAE000E9488070E949F07EA8119810881269673
:100CBE0008952197E0ECE8831A9310E091DDE98125
:100CCE00EA93FE013296FA93EA93E1E0EA9346DD67
:100CDE00E1EEFAE0FA93EA93EB810E9488070E9414
:100CEE009F071F5FE981E07419F081DDE1E009C023
:100CFE00133028F37CDDE0E004C01A931981D9DFAC
:100D0E00E12F188122960895FF92F82E62970E9485
:100D1E002A0ADE0154960E945409AE83BF830E94B4
:100D2E000608E081E03011F40C942C070E940608AE
:100D3E00A081A53239F00E940D083197E081EA9327
:100D4E009CD0EDCF0E940D08E081F0E0E337A0E0EB
:100D5E00FA0771F40E9417080D911C91D801EC91BD
:100D6E00E03029F00E9420080F5F1F4FF7CF6AC0B6
:100D7E00E537A0E0FA07B1F40E9417082D913C91D7
:100D8E0050E00E94A4070E94240811F05F5FF9CF83
:100D9E00503031F00E94A4070E943A085150F8CF0B
:100DAE00E8854EC0E436A0E0FA0701F50E94170868
:100DBE002D913C9133231AF4EDE2EA935ED03A93EF
:100DCE002A930E944D079F0150E00E94A4070E94A3
:100DDE00240811F05F5FF9CF503031F00E94A40764
:100DEE000E943A085150F8CFE8852AC0E837A0E0B3
:100DFE00FA0719F50E9417082C913327D901E0E163
:100E0E00F0E00E94F509E05DE987D901E0E1F0E04C
:100E1E000E94CB09E05DE887A985AA3318F0E98521
:100E2E00E95FE987A885AA3318F0E885E95FE887C6
:100E3E00E885EA9322D0E98503C00E940608E08186
:100E4E00EA931BD00E940D086ACFE1E00E94310A9E
:100E5E006896FF9008951A930A93E091C8001E2F8A
:100E6E00E078D9F30091CE00E12FEC7111F4E02F70
:100E7E0001C0F3CF099119910895E091C800E07275
:100E8E00E1F3E881E093CE0021960895E991F9917E
:100E9E0030971AF4E095F09531960895E991F9910D
:100EAE006991799130976040704042F4E095F095E9
:100EBE006095709500243196601D701D08955F98A1
:100ECE00E8ECF0E0FA93EA930E943F085F9AE8ECB0
:100EDE00F0E0FA93EA930C943F08FA93EA930C9499
:100EEE003F08FA93EA9380E00E948B0622960895BB
:100EFE00FA93EA93E52FFF27662777270E94200AA9
:100F0E000895FF27662777270E94200A089588E014
:100F1E000E948B062A960895EC89FD896E897F8939
:100F2E000E94200A0895662777270E94200A0895B6
:100F3E0084E00E948B0626960895E52FF0E0089532
:100F4E000E9493090E94200AE2CFFA93EA93F801D5
:100F5E00EACF759A8BE08A95F1F70895759885E139
:100F6E008A95F1F70895FA93EA93E3E0EA930C94E5
:100F7E00DB03AE8DBF8D88A199A1089534960E9492
:100F8E001A0AF7DF0E94250A0895E5E0EA930C9409
:100F9E00DB03E2E0EA930C94DB03ED831A930A93EE
:100FAE00E4E0EA930C94DB03E2E0EB83E0E2EC8313
:100FBE001A930A93E3E0EA930C94DB03EC831A93FF
:100FCE000A93E3E0EA930C94DB03EE831A930A93FD
:100FDE00DCCF1A930A93DDCFEC81EA931A930A932E
:100FEE00E2E0EA930E94B503E0300895E22FAF816C
:100FFE00B885F0E0EA0FFB1FAC81A0830895DE01F7
:10100E0058960E9454090E94110A0895DE015896BE
:10101E000E945409ED91FD913196FE93EE93089541
:10102E00EE81FF813497EE83FF83AE81BF811496EC
:10103E000895EC91EA930C944407DE011896EA0F9A
:10104E00FB1FBF01D901EAE0F0E00E94F509E05D67
:10105E00DB01EC93D901EAE0F0E00E94CB099F019D
:10106E00022E032A0895DE011896AE0FBF1FE1CFA0
:10107E00E991F991309639F080EA9FE00197F1F706
:10108E00A8953197C9F70895552342F4503811F4B5
:10109E00E0FF04C03196691F791F6BF050E85727A7
:1010AE0011F45F9355C05F3F31F0660F000C5795FA
:1010BE006795752F08955F9300200AF055C04EC0B6
:1010CE0050E8192E1522880F991F9527550F8795D1
:1010DE0050E8072E0522660F771F7527550F679567
:1010EE000895689401C0E8945F93F2DF703818F0A9
:1010FE007F3F08F42DC056E1571BAAF45195583086
:10110E000EF4593030F0EFEFFFEF6FEF7FE777F926
:10111E001AC077275523B9F0EE0FFF1F661F771FF2
:10112E005A95D1F710C07727583028F0EF2FF62FA9
:10113E00672F5850F9CF552331F076956795F7956F
:10114E00E7955A95D1F700200AF4B4D05F9108952F
:10115E00EE27FF27662777275F910895EFEFFFEFC2
:10116E006FE77FEF5F910895EFEFFFEF6FE77FE798
:10117E005F9108955F93A4DF703851F3903841F377
:10118E0001240894791F23F41CF300203AF3ECCFCA
:10119E000F921F932F933F934F9311272227992737
:1011AE00689FA0018F9F302D410D591F6B9F300DF1
:1011BE00411D591F8E9F27D0BF9F25D06A9F23D0D8
:1011CE00BE9F1DD0AF9F1BD0AE9F110D291F391F83
:1011DE00491F591FE32FF42F652F522F4F913F9127
:1011EE002F911F910F9066232AF0550FEE1FFF1FB0
:1011FE00661F02C073954BF247DF5F910895100D85
:10120E00211D391F02C0200D311D491F591F089580
:10121E005F9356DF703821F411200AF49FCFA4CFCC
:10122E00903809F495CF01240894970B1BF4D4F34E
:10123E000020F3CF792F1F932F933F934F931124B9
:10124E001127222733274427552790E2AE17BF07D1
:10125E008607410730F0AE1BBF0B860B410B08947F
:10126E0001C08894551F221F331F111CAA1FBB1FBC
:10127E00881F441F9A9551F7F901612D4F913F91A7
:10128E002F911F91662332F0550FEE1FFF1F661F21
:10129E007A9543F2F9DE5F9108950024AF0DB01DEB
:1012AE000895EA1BFB0B680B790B0895F195E195F8
:1012BE00F0400895F09560957095E195FF4F6F4F52
:1012CE007F4F0895EE230E2EFD0121F0EE0FFF1F2E
:1012DE000A94E1F70895EE230E2EFD01BC0131F0C4
:1012EE0075956795F795E7950A94D1F70895EE23CE
:1012FE000E2EFD01BC0131F076956795F795E795B9
:10130E000A94D1F70895EE0FFF1FEE0FFF1FEE0F99
:10131E00FF1FEE0FFF1F08956F2F660F660B762FC0
:10132E0008957A9F702D6B9F700DF89F700DE99F39
:10133E00700D6A9F602D710DFB9F600D711DE89FF2
:10134E00600D711D8827FA9FF02D610D781FEB9FA0
:10135E00F00D611D781FEA9FE02DF10D681F781FBB
:10136E0008950024112490E1AA0FBB1F001C111C2C
:10137E000E1A1F0A18F40E0E1F1E01C0A1609A95B8
:10138E0099F7FD01D001089537D0EBDF0EF48EDF13
:10139E0008953F934F935F930024112444275527BC
:1013AE0030E2AA0FBB1F881F991F001C111C441F7F
:1013BE00551F0E1A1F0A460B570B28F40E0E1F1E32
:1013CE00461F571F01C0A1603A9559F7FD01BC0198
:1013DE00D001CA015F914F913F910895E894B7FFF4
:1013EE0004C0A095B09511966894F7FD5FDFB9DF44
:1013FE00FD010EF45BDF0895E894F7FF02C056DF9F
:10140E006894B7FF06C0A095B095119600F80394A6
:10141E0000FA0895ED91FC9111970895ED93FD93C7
:10142E006D937C9308950590159065917491F001DC
:10143E0008957A936A93FA93EA930895AE17BF07C5
:10144E008607970708955A934A933A932A931A93C5
:10145E000A9308955D814C813B812A81198108810F
:10146E000895AC0FBD1F05900D928A95E1F7089572
:00000001FF
