:040000000C94B600A6
:100004000C9400000C9400000C9400000C9400006C
:100014000C9400000C9400000C9400000C9400005C
:100024000C9400000C9400000C9400000C9400004C
:100034000C9400000C9400000C9400000C9400003C
:100044000C9400000C9400000C9400000C9400002C
:100054000C9400000C9400000C9400000C9400001C
:100064000C9400000C9400000C9400000C9400000C
:100074000C9400000C9400000C9400000C940000FC
:100084000C9400000C9400000C9400000C940000EC
:100094000C9400000C9400000C9400000C940000DC
:1000A4000C9400000C9400000C9400000C940000CC
:1000B4000C9400000C9400000C9400000C940000BC
:1000C4000C9400000C9400000C9400000C940000AC
:1000D4000C9400000C9400000C9400000C9400009C
:1000E400F07E0E0010CD0E0010CD0E002840100042
:1000F4002840100050DA110050DA110020D6130005
:1001040020D61300880C1600880C16005885180099
:100114005885180050211B0050211B00F0A11D0020
:10012400F0A11D00388420003884200070CE200007
:100134001027E80364000A00010000100001100009
:1001440001000000000000000000000000000100A9
:100154002D4E414E00494E46000001000400460168
:100164000100000A52010000F894EE27EFBBF1E011
:10017400F5BFE5BFE0937400E0937500F8E1A8953E
:10018400A4B7A77FA4BFF0936000E09360008DE064
:10019400A2E0BB27ED938A95E9F780E090E2A0E026
:1001A400B2E0ED930197E9F7EEE5F1E085919591E1
:1001B400009761F0A591B59105901590BF01F001EC
:1001C40005900D920197E1F7FB01F0CF8BBF8CBF37
:1001D400E0E0EEBBEFEFEDBFE1E2EEBFC0E0DAE05E
:1001E4000C94CE01E0E8E0936100E0E0E09361006C
:1001F400E2B9E1B9E5B9E0E6E4B9E0E0E8B9E7B9C4
:10020400EBB9E0E8EAB9E0E0EEB9E8EBEDB9E0E03B
:10021400E1BBE0BBE4BBE8E0E3BBE0E0E093020168
:10022400ECEAE0930101E0E0E0930501E0930401CE
:10023400E0930801E0930701E0930B01E0930A01C6
:10024400E4BDE5BDE6BDE7BDE8BDE0938000E09315
:100254008100E0938500E0938400E0938700E093BD
:100264008600E0938900E0938800E0938B00E0939C
:100274008A00E0938D00E0938C00E093B600E09355
:10028400B000E093B100E093B200E093B300E093D8
:10029400B400E0939000E0939100E0939500E09324
:1002A4009400E0939700E0939600E0939900E09324
:1002B4009800E0939B00E0939A00E0939D00E09304
:1002C4009C00E093A000E093A100E093A500E093DC
:1002D400A400E093A700E093A600E093A900E093B4
:1002E400A800E093AB00E093AA00E093AD00E09394
:1002F400AC00E0932001E0932101E0932501E09319
:100304002401E0932701E0932601E0932901E0937F
:100314002801E0932B01E0932A01E0932D01E0935F
:100324002C01E0936900E0936A00EDBBE0936B005D
:10033400E0936C00E0936D00E0936800E0936E003E
:10034400E0936F00E0937000E0937100E09372001B
:10035400E0937300E093C100E093C800E8E1E09308
:10036400C900E6E0E093CA00E0E0E093CD00E7E6F0
:10037400E093CC00E0E0E093D100E0933101E0E8C9
:10038400E0BFE0E0E0937B00E0937F00E0937A003D
:10039400ECBDE093BC0008956097EEEFF9E260E0F5
:1003A40070E0EC87FD876E877F87E8E6FEE260E019
:1003B40070E0E887F9876A877B87E0E0F0E061EE28
:1003C40076E40E94A002A885B9858A859B85EC8580
:1003D400FD856E857F850E947B020E94A5020E9496
:1003E4004C02A8EEB3E080E090E00E948002EC832F
:1003F400FD836E837F83F6DE0E945D020E945D02B0
:100404005F98E8ECF0E00E946B025F9AE4EFF1E0A1
:100414000E946B02E1E4EA930E944302E2E4EA935D
:100424000E944302E3E4EA930E9443020E943102E1
:10043400E03099F0E4E4EA930E9443025F98E8EE26
:10044400F3E00E946B025F9AE8EEF3E00E946B0215
:10045400E1E4EA930E944302E9CF6096FFCF1A9346
:100464000A93E091C8001E2FE078D9F30091CE00E2
:10047400E12FEC7111F4E02F01C0F3CF0991199130
:100484000895E091C800E072E1F3E881E093CE00C2
:1004940021960895E991F991699179913097604095
:1004A400704042F4E095F095609570950024319683
:1004B400601D701D08955F98E8ECF0E0FA93EA93EC
:1004C4000E946F025F9AE8ECF0E0FA93EA930C94CE
:1004D4006F02FA93EA930C946F02E991F9913096C2
:1004E40039F080EA9FE00197F1F7A8953197C9F7B1
:1004F4000895EA1BFB0B680B790B08957A9F702D06
:100504006B9F700DF89F700DE99F700D6A9F602DB1
:10051400710DFB9F600D711DE89F600D711D882793
:10052400FA9FF02D610D781FEB9FF00D611D781F70
:10053400EA9FE02DF10D681F781F0895E883F98381
:100544006A837B8308957A936A93FA93EA9308956E
:00000001FF
