:0C0000000C94B6000C9400000C9400005E
:10000C000C9400000C9400000C9400000C94000064
:10001C000C9400000C9400000C9400000C94000054
:10002C000C9400000C9400000C9400000C94000044
:10003C000C9400000C9400000C9400000C94000034
:10004C000C9400000C9400000C9400000C94000024
:10005C000C9400000C9400000C9400000C94000014
:10006C000C9400000C9400000C9400000C94000004
:10007C000C9400000C9400000C9400000C940000F4
:10008C000C9400000C9400000C9400000C940000E4
:10009C000C9400000C9400000C9400000C940000D4
:1000AC000C9400000C9400000C9400000C940000C4
:1000BC000C9400000C9400000C9400000C940000B4
:1000CC000C9400000C9400000C9400000C940000A4
:1000DC000C9400000C940000F07E0E0010CD0E006D
:1000EC0010CD0E00284010002840100050DA1100EE
:1000FC0050DA110020D6130020D61300880C1600FD
:10010C00880C1600588518005885180050211B00C3
:10011C0050211B00F0A11D00F0A11D00388420000F
:10012C003884200070CE20001027E80364000A00F9
:10013C000100001000011000010000000000000090
:10014C0000000000000001002D4E414E00494E46BB
:10015C0000000100040046010100000A52010000E9
:10016C00F894EE27EFBBF1E0F5BFE5BFE093740028
:10017C00E0937500F8E1A895A4B7A77FA4BFF0930E
:10018C006000E09360008DE0A2E0BB27ED938A95C0
:10019C00E9F780E090E2A0E0B2E0ED930197E9F797
:1001AC00EEE5F1E085919591009761F0A591B591FF
:1001BC0005901590BF01F00105900D920197E1F7A4
:1001CC00FB01F0CF8BBF8CBFE0E0EEBBEFEFEDBFE0
:1001DC00E1E2EEBFC0E0DAE00C94CE01E0E8E0939F
:1001EC006100E0E0E0936100E2B9E1B9E5B9E0E675
:1001FC00E4B9E0E0E8B9E7B9EBB9E0E8EAB9E0E086
:10020C00EEB9E8EBEDB9E0E0E1BBE0BBE4BBE8E064
:10021C00E3BBE0E0E0930201ECEAE0930101E0E0F3
:10022C00E0930501E0930401E0930801E0930701DA
:10023C00E0930B01E0930A01E4BDE5BDE6BDE7BD2B
:10024C00E8BDE0938000E0938100E0938500E093AB
:10025C008400E0938700E0938600E0938900E093AC
:10026C008800E0938B00E0938A00E0938D00E0938C
:10027C008C00E093B600E093B000E093B100E09303
:10028C00B200E093B300E093B400E0939000E093ED
:10029C009100E0939500E0939400E0939700E09335
:1002AC009600E0939900E0939800E0939B00E09314
:1002BC009A00E0939D00E0939C00E093A000E093F3
:1002CC00A100E093A500E093A400E093A700E093C5
:1002DC00A600E093A900E093A800E093AB00E093A4
:1002EC00AA00E093AD00E093AC00E0932001E09312
:1002FC002101E0932501E0932401E0932701E09391
:10030C002601E0932901E0932801E0932B01E0936F
:10031C002A01E0932D01E0932C01E0936900E09316
:10032C006A00EDBBE0936B00E0936C00E0936D0012
:10033C00E0936800E0936E00E0936F00E093700030
:10034C00E0937100E0937200E0937300E093C100BE
:10035C00E093C800E8E1E093C900E6E0E093CA004E
:10036C00E0E0E093CD00E7E6E093CC00E0E0E09342
:10037C00D100E0933101E0E8E0BFE0E0E0937B00E6
:10038C00E0937F00E0937A00ECBDE093BC0008950D
:10039C006097EEEFF9E260E070E0EC87FD876E8726
:1003AC007F87E8E6FEE260E070E0E887F9876A871D
:1003BC007B87E0E0F0E061EE76E40E94BA07A88566
:1003CC00B9858A859B85EC85FD856E857F850E9428
:1003DC0033070E94BF070E948E05A8EEB3E080E0B1
:1003EC0090E00E946A07EC83FD836E837F83F6DEC8
:1003FC000E949F050E949F055F980E94AD05E4EF47
:10040C00F1E00E94B505E1E4EA930E948505E2E47F
:10041C00EA930E9485050E94B9050E94B905C2D2D3
:10042C00E3E4EA930E948505E4E4EA930E948505DF
:10043C005F980E94C0055F9A0E94C005E0E0E41539
:10044C0008F45F980E94AD050E94C305E1E0E41535
:10045C0008F45F980E94AD050E94C305E3E0E41523
:10046C0008F45F980E94AD050E94C305E5E0E41511
:10047C0008F45F980E94AD050E94C3055F980E9426
:10048C00C0055F9A0E94C005E1E4EA930E948505CD
:10049C00CBCFFFCF7298E2E3F0E00E94B505729AE1
:1004AC000895EDB1E063EDB9749A0E94C605749895
:1004BC008BE08A95F1F708950E94CB057498089506
:1004CC006C98749A80E28A95F1F70E94CB05649936
:1004DC000BC08BE08A95F1F775986C9A749AE6E2EA
:1004EC00EA930DD3E1E008956C9AE0E00895089545
:1004FC001A9310E0183090F40E94D005E981E0784E
:10050C0011F0749A01C07498E981EE0FE9838BE0C5
:10051C008A95F1F70E94C6051F5FECCF7598D0DF66
:10052C00E13031F48BE08A95F1F7E1E04E2EE4C234
:10053C008BE08A95F1F74424DEC21A930A9300E00B
:10054C006C98749A759880E18A95F1F710E01830E0
:10055C0068F40E94CB05000FECB1E0710E2B8BE020
:10056C008A95F1F70E94D0051F5FF1CF6C9A7498B1
:10057C000E94C6050E94D005E02F0991199108959B
:10058C000E94CB071C812D813E818BDFEF81E160C6
:10059C00EA93AEDFE13061F4103039F0CEDFD901EF
:1005AC00EC932F5F3F4F1150F7CF86DFE1E001C096
:1005BC00E0E00E94D207289608951A9372DF10E0AB
:1005CC00E9811E1788F4AA81BB81EC91EA9390DF34
:1005DC00E03031F0EA81FB813196EA83FB8302C083
:1005EC00E0E004C01F5FECCF67DFE1E018812496E8
:1005FC0008952397E0EDE883E1E0E983E0EC06C0A1
:10060C002397E0EDE883E1E0E983E0E4EA83FE018F
:10061C000E94D5052396089568978AE0A6E0B0E07D
:10062C00E8E4F1E00E94D7070E94C907E0ECE98BEF
:10063C000E94DB05A03AEBEBBE07EDE08E07E0E095
:10064C009E0750F00E94DB05A035EAEDBE07E1E104
:10065C008E07E0E09E0708F016C0EEE0ED8B00E0A0
:10066C0010E00330E0E01E0758F4F8010E94630725
:10067C00EC51FF4F0E94E00518F00F5F1F4FF1CFB8
:10068C000B5F1F4F15C0ECE0ED8B00E010E0073066
:10069C00E0E01E0758F4F8010E946307E450FF4F96
:1006AC000E94E00518F00F5F1F4FF1CF0F5F1F4F37
:1006BC00D801E5E00E9440078F01E02FAD89EA0FD9
:1006CC00ED8B0E94DB05E4EFF1E060E070E00E944E
:1006DC008A07EE8BFF8B688F798FAE89BF89888DE7
:1006EC00998DE0E2F0E060E070E00E948A07EA8F0A
:1006FC00FB8F6C8F7D8FEE89FF89688D798DEF7103
:10070C00F070607070708F01AA8DBB8D8C8D9D8D7B
:10071C00E3E00E945507EA8BEA8DE295E07FEE0F4D
:10072C00EB8BE02FAB89EA0FEB8B00E010E0E98953
:10073C00EC87EA89ED87EB89EE87ED89E88BE1EEB2
:10074C00EF87ED89E37FE88B54DFFE013C96FA934B
:10075C00EA930E94E705EF85E460ED87FE013C9685
:10076C00FA93EA930E94EB05EAE0F0E00E94B505EB
:10077C00EDEFEC8B2DE030E0F901F695E795E470A8
:10078C00F070AF01F901EE0FFF1FE870F070EA870F
:10079C00FB87F9010E946507E870F070E887F9871C
:1007AC00F9010E946107E071F070EE83FF83DE01B6
:1007BC005496EC91E77EEC93DE015596EC91E37F39
:1007CC00EC93FE017496BF010080E885AE81EA2BA4
:1007DC00E029DB01EC93FE017596BF010080E42F4C
:1007EC00AA85EA2BE029DB01EC93EC89E460ED8728
:1007FC00ED89EE87FE013C960E94D50501DFE1E014
:10080C00F0E00E94B5050F5F1F4F55D1E03011F09D
:10081C00E1E006C00430E0E01E0708F488CFE0E019
:10082C000E94D007A29608952A971A930A93E0ED96
:10083C00EA83FE0132968F01E0E4EB83E4E6EC837D
:10084C00E4E00E94EF050E94F605EFE0EB83E4E59F
:10085C000E940006E1E1EB83EAE70E940006E2E277
:10086C00EB83E0E0EC830E94EF05EBE1EB83EFE838
:10087C00EC83E0EF0E94EF05E5E1EB83E7EFEC831F
:10088C00E8E8ED83E8E50E940706E9E1EB83E6EA98
:10089C00EC83E8E80E94EF05EBE2EB83EFEFEC83EF
:1008AC00E7EF0E94EF05E7E3EB83EFE2EC83E6E191
:1008BC00ED83EDEB0E940706ECE3EB83E2E10E9493
:1008CC0000060E94F605E0E4EB83E3E6EC83E4E04B
:1008DC00ED83E0E20E940706E2EBEB83E0E1EC83C0
:1008EC00E2E8ED83E0E8EE83E2E8EF83E887E9876E
:1008FC001A930A93E8E0EA9360DE198108812C963A
:10090C0008952C971A930A93FE0136968F01E0ED09
:10091C00EE83E0E4EF83E4E6E887E4E0E9871A930A
:10092C000A93EA934ADEE2E0EF83E0E2E8871A9367
:10093C000A93E3E0EA9341DEAE85BF858889998905
:10094C00E0E0F0E060E879E40E94A006DF01CB0172
:10095C00E0E0F0E563EC77E40E94EE06DE0112962F
:10096C000E9459060E94AF07E8E2EF83AA81BB817F
:10097C008C819D81ECE00E944907E887E4E00E94AD
:10098C004907E987EA81E295E07FEA87E0E0EB87B7
:10099C00EC871A930A93E7E0EA930FDE198108813A
:1009AC00629608951A9376DDE2E3F0E00E94B505B5
:1009BC00E1E3EA93A4D0ED81FE816F8178850E94FA
:1009CC00BF072ADEE2E3EA939AD02EDFE3E3EA9351
:1009DC0096D0E981FA816B817C810E94BF0791DFFF
:1009EC00E4E3EA938CD010E0143070F41F5F80E1E4
:1009FC009EE00197F1F74CD0E03029F0E8E04E2E64
:100A0C00E1E0188143C0F0CFE0E018813FC02397AC
:100A1C000E94CB0731E020E0E5E3EA9370D0FE01C1
:100A2C0034968F01E0EDEC83E4E2ED831A930A93A4
:100A3C000E94EB05E03051F0E2E6EA9360D00E94B0
:100A4C000B0621F00E94150621E030E0303039F71A
:100A5C00E6E3EA9354D031E0FE0134968F01E0EDE9
:100A6C00EC83EEE1ED831A930A930E94EB05E030E0
:100A7C0031F00E940B0619F00E94150630E0303060
:100A8C0059F7E7E3EA933BD00E94D20729960895E1
:100A9C002297FE01FA93EA93BADFE881E078E03816
:100AAC0021F4E981E078E03809F002C0E1E025C0EA
:100ABC00BBDEE0E022C02197E0ECE8831A9310E063
:100ACC0098DDE981EA93FE013296FA93EA93E1E02C
:100ADC00EA9356DD1F5FE981E07429F0E4E04E2EC5
:100AEC008FDDE1E009C0A981A13010F0E2E04E2ECB
:100AFC00133038F385DDE0E0188122960895E091FB
:100B0C00C800E072E1F3E881E093CE0021960895ED
:100B1C00E991F9916991799130976040704042F474
:100B2C00E095F0956095709500243196601D701DD0
:100B3C0008955F98E8ECF0E0FA93EA930E941E06A1
:100B4C005F9AE8ECF0E0FA93EA930C941E06E8EC5A
:100B5C00F0E0FA93EA930E941E065F9A0895FA93C6
:100B6C00EA930C941E06EC81FD816E817F810E94BC
:100B7C00BF070895E8EEF3E0F2CFE8ECF0E0EFCF3A
:100B8C00759A85E18A95F1F70895759A8BE08A95A7
:100B9C00F1F70895759885E18A95F1F70895FA9320
:100BAC00EA93E3E0EA930C94E302AE8DBF8D88A147
:100BBC0099A1089534960E94B407F7DF0E94C407E8
:100BCC000895E5E0EA930C94E302E2E0EA930C94D6
:100BDC00E302ED831A930A93E4E0EA930C94E302A4
:100BEC00E2E0EB83E0E2EC831A930A93E3E0EA930E
:100BFC000C94E302EC831A930A93E3E0EA930C94CB
:100C0C00E302EE831A930A93DCCFEC81EA931A93F6
:100C1C000A93E2E0EA930E94C602E0300895E22FC4
:100C2C00AF81B885F0E0EA0FFB1FAC81A08308957B
:100C3C00E991F991309639F080EA9FE00197F1F74C
:100C4C00A8953197C9F70895552342F4503811F4FB
:100C5C00E0FF04C03196691F791F6BF050E85727ED
:100C6C0011F45F9355C05F3F31F0660F000C579540
:100C7C006795752F08955F9300200AF055C04EC0FC
:100C8C0050E8192E1522880F991F9527550F879517
:100C9C0050E8072E0522660F771F7527550F6795AD
:100CAC000895689401C0E8945F93F2DF703818F0EF
:100CBC007F3F08F42DC056E1571BAAF451955830CC
:100CCC000EF4593030F0EFEFFFEF6FEF7FE777F96D
:100CDC001AC077275523B9F0EE0FFF1F661F771F39
:100CEC005A95D1F710C07727583028F0EF2FF62FF0
:100CFC00672F5850F9CF552331F076956795F795B6
:100D0C00E7955A95D1F700200AF4ACD05F9108957D
:100D1C00EE27FF27662777275F910895EFEFFFEF08
:100D2C006FE77FEF5F910895EFEFFFEF6FE77FE7DE
:100D3C005F9108955F93A4DF703851F3903841F3BD
:100D4C0001240894791F23F41CF300203AF3ECCF10
:100D5C000F921F932F933F934F931127222799277D
:100D6C00689FA0018F9F302D410D591F6B9F300D37
:100D7C00411D591F8E9F27D0BF9F25D06A9F23D01E
:100D8C00BE9F1DD0AF9F1BD0AE9F110D291F391FC9
:100D9C00491F591FE32FF42F652F522F4F913F916D
:100DAC002F911F910F9066232AF0550FEE1FFF1FF6
:100DBC00661F02C073954BF247DF5F910895100DCB
:100DCC00211D391F02C0200D311D491F591F0895C7
:100DDC005F9356DF703821F411200AF49FCFA4CF13
:100DEC00903809F495CF01240894970B1BF4D4F395
:100DFC000020F3CF792F1F932F933F934F93112400
:100E0C001127222733274427552790E2AE17BF0717
:100E1C008607410730F0AE1BBF0B860B410B0894C5
:100E2C0001C08894551F221F331F111CAA1FBB1F02
:100E3C00881F441F9A9551F7F901612D4F913F91ED
:100E4C002F911F91662332F0550FEE1FFF1F661F67
:100E5C007A9543F2F9DE5F910895EA1BFB0B680B60
:100E6C00790B0895F09560957095E195FF4F6F4F54
:100E7C007F4F0895EE230E2EFD0121F0EE0FFF1F84
:100E8C000A94E1F70895EE230E2EFD01BC0131F01A
:100E9C0075956795F795E7950A94D1F70895EE2324
:100EAC000E2EFD01BC0131F076956795F795E7950F
:100EBC000A94D1F70895EE0FFF1FEE0FFF1FEE0FF0
:100ECC00FF1FEE0FFF1F08957A9F702D6B9F700D03
:100EDC00F89F700DE99F700D6A9F602D710DFB9F3F
:100EEC00600D711DE89F600D711D8827FA9FF02D14
:100EFC00610D781FEB9FF00D611D781FEA9FE02DAF
:100F0C00F10D681F781F08953F934F935F93002452
:100F1C0011244427552730E2AA0FBB1F881F991FA5
:100F2C00001C111C441F551F0E1A1F0A460B570B91
:100F3C0028F40E0E1F1E461F571F01C0A1603A95C4
:100F4C0059F7FD01BC01D001CA015F914F913F914E
:100F5C000895ED93FD936D937C93089505901590F2
:100F6C0065917491F0010895E883F9836A837B831A
:100F7C0008957A936A93FA93EA930895AE17BF078C
:100F8C008607970708955A934A933A932A931A938C
:100F9C000A9308955D814C813B812A8119810881D6
:100FAC000895AC0FBD1F05900D928A95E1F7089539
:00000001FF
