:040000000C9451010A
:100004000C9400000C9400000C9400000C9400006C
:100014000C9400000C9400000C9400000C9400005C
:100024000C9400000C9400000C9400000C9400004C
:100034000C9400000C9400000C9400000C9400003C
:100044000C9400000C9400000C9400000C9400002C
:100054000C9400000C9400000C9400000C9400001C
:100064000C9400000C9400000C9400000C9400000C
:100074000C9400000C9400000C9400000C940000FC
:100084000C9400000C9400000C94B0070C94000035
:100094000C9400000C9400000C9400000C940000DC
:1000A4000C9400000C9400000C9400000C940000CC
:1000B4000C94A7070C9400000C9400000C9400000E
:1000C4000C9400000C9400000C9400000C940000AC
:1000D4000C9400000C9400000C9400000C9400009C
:1000E400F07E0E0010CD0E0010CD0E002840100042
:1000F4002840100050DA110050DA110020D6130005
:1001040020D61300880C1600880C16005885180099
:100114005885180050211B0050211B00F0A11D0020
:10012400F0A11D00388420003884200070CE200007
:100134001027E80364000A00010000100001100009
:1001440001006A696E676C652062656C6C730000FF
:1001540000006779726F313A2564206779726F32D3
:100164003A2564206779726F333A25642041474306
:100174003A25640A006D6F746F722074657374207D
:10018400776974682025780A00456E746572207258
:100194006567697374657220616464723A0074758A
:1001A4006E657220746573742E2E2E002E2E2E64AE
:1001B4006F6E650A00737472696E67206D65616E97
:1001C400732025730A0068657820307825782030FC
:1001D4007825780A0068657820307825780A0075D3
:1001E4006E7369676E65642026207369676E656443
:1001F40020696E74206E756D6265723A25752025CE
:10020400640A0000000000000000000000004147F4
:1002140043202564203078257825780030782578A7
:100224002C307825780A00726561642074756E65D7
:10023400723A25780A0001002D4E414E00494E467F
:1002440000002300000A56011400230A7901150056
:10025400370A8D010E004C0AA20109005A0AB001A6
:100264001100630AB9010F00740ACA010A00830A63
:10027400D90124008D0AE3012400B10AE30124001A
:10028400D50AE3010E00F90A12020B00070B200243
:100294000F00120B2B020100250B3A020000F89408
:1002A400EE27EFBBF1E0F5BFE5BFE0937400E09308
:1002B4007500F8E1A895A4B7A77FA4BFF0936000E8
:1002C400E09360008DE0A2E0BB27ED938A95E9F707
:1002D40080E090E2A0E0B2E0ED930197E9F7E6E474
:1002E400F2E085919591009761F0A591B591059003
:1002F4001590BF01F00105900D920197E1F7FB0104
:10030400F0CF8BBF8CBFE0E0EEBBEFEFEDBFE1E2DF
:10031400EEBFC0E0DAE00C945002E0E8E093610044
:10032400E0E0E0936100E2B9E1B9E5B9E0E6E4B9FF
:10033400E0E0E8B9E7B9EBB9E0E8EAB9E0E0EEB942
:10034400ECEBEDB9E0E0E1BBE0BBE4BBE8E0E3BB30
:10035400E0E0E0930201ECEAE0930101E0E0E093E5
:100364000501E0930401E0930801E0930701E093A1
:100374000B01E0930A01E4BDE5BDE6BDE7BDE8BDC0
:10038400E0938000E0938100E0938500E093840093
:10039400E0938700E0938600E0938900E09388006F
:1003A400E0938B00E0938A00E0938D00E0938C004F
:1003B400E093B600E093B000E093B100E093B200A4
:1003C400E093B300E093B4000E9468080E946E08B2
:1003D400E0E00E947608E0E00E947C080E94880821
:1003E4000E948E08E0E0E093A600E093A9000E943A
:1003F4009608E0E0E0932001E0932101E0932501D9
:10040400E0932401E0932701E0932601E09329017E
:10041400E0932801E0932B01E0932A01E0932D015E
:10042400E0932C01E0936900E0936A00EDBBE09354
:100434006B00E0936C00E0936D00E0936800E09340
:100444006E00E0936F00E0937000E0937100E0931E
:100454007200E0937300E093C100E093C800E8E108
:10046400E093C900E6E0E093CA00E0E0E093CD0049
:10047400E7E6E093CC00E0E0E093D100E0933101C3
:10048400E0E8E0BFE0E0E0937B00E0937F00E093EE
:100494007A00ECBDE093BC0078940895A09780E1C5
:1004A400A0E0B0E0E6E4F1E00E94A30BEEEFF9E295
:1004B40060E070E0EC8FFD8F6E8F7F8FE8E6FEE2E8
:1004C40060E070E0E88FF98F6A8F7B8FE0E0F0E006
:1004D40061EE76E4E88BF98B6A8B7B8BA88DB98D02
:1004E4008A8D9B8DEC8DFD8D6E8D7F8D0E94BF0A54
:1004F4000E94870B0E945708A8EEB3E080E090E0CA
:100504000E94FF0AEC8BFD8B6E8B7F8B06DF0E94B3
:10051400A2080E94A2085F98E8ECF0E00E94B008EC
:100524005F9AE4EFF1E00E94B008E1E4EA930E94EC
:100534009F07E2E4EA930E949F07E3E4EA930E94A0
:100544009F075F9A0E948D07E83439F4739AE0910B
:100554000201E160E09302019AC0E134A9F4E0E011
:10056400FAE0FA93EA93EDE00E94B408EEE00E9408
:10057400B408EFE00E94B408EBE00E94B40880E104
:100584000E94BF06629683C0ED3469F40E948D0711
:100594005E2FE3E2FAE00E94BC080E94C5085A9369
:1005A4000E942A0874C0EC3451F4EDB1E063EDB953
:1005B4007598749AECE4EA930E949F0768C0E23548
:1005C40061F45F98E7E3FAE00E94CA080E948D078D
:1005D4005E2F5A930E946A065AC0E33569F4ECE42C
:1005E400FAE00E94CA08E0E0EA930E94B806EAE54D
:1005F400FAE00E94CA084BC0E43559F45F98E4E776
:10060400EA930E949F070E94D1080E94D108DCD27D
:100614003EC0E535E1F5E3E6FAE0FA93EA93FE013C
:1006240032960E94D8080E94C50853E3E4E7FAE032
:100634000E94BC080E94DD0870960E94E0085CEEEF
:10064400E3E8FAE00E94BC080E94C5080FE610E83F
:1006540020E634EAEDE8FAE00E94E908F9010E9494
:10066400E0080FEF15EF20E934E3E1EBFAE00E9434
:10067400E908F9010E94E00809E610E025E83FEFE7
:10068400E5EDFAE00E94E908F9010E94E00859CF7B
:10069400FFCF7298E2E3F0E00E94B008729A0895E6
:1006A400EDB1E063EDB9749A759A8BE28A95F1F72E
:1006B40074988BE08A95F1F70895EDB1E063EDB994
:1006C400749A8BE08A95F1F70E94ED0874988BE098
:1006D4008A95F1F7749A85E18A95F1F7759A0895E8
:1006E4006C98749A85E18A95F1F70E94ED086499F3
:1006F40007C08BE08A95F1F775986C9AE1E008954C
:100704006C9AE8E5EA930E949F07E0E00895089553
:100714001A9310E01830B0F475988BE08A95F1F7CD
:10072400E981E07811F0749A01C07498E981EE0FC0
:10073400E9838BE08A95F1F7759A85E18A95F1F75B
:100744001F5FE8CF7598CCDFE13029F485E18A9505
:10075400F1F7E1E00FC38BE08A95F1F7E0E00AC31B
:100764000E94950B1E812F8138859ADFE985E1600F
:10077400EA93CEDFE13091F56C98E12F1150E0302F
:1007840051F150E08BE28A95F1F7749A00E0083059
:1007940070F485E18A95F1F70E94ED08550F64998C
:1007A4005F5F8BE08A95F1F775980F5FF0CFE52FC7
:1007B400D901EC932F5F3F4F85E18A95F1F7749847
:1007C4006C9A759A85E18A95F1F775986C9885E32A
:1007D4008A95F1F7D2CF71DFE1E001C0E0E00E9439
:1007E4009C0B2A9608951A935BDF10E0E9811E178B
:1007F40090F4AA81BB81EC91EA938ADFE03031F076
:10080400EA81FB813196EA83FB8303C0E0E018812F
:100814005DC21F5FEBCF51DFE1E0188157C2239720
:10082400E0EDE883E1E0E983E8ED0E94F2080C944E
:100834001D082397E0EDE883E1E0E983E8E50E9401
:10084400F2080C941D0868978AE0A6E0B0E0E8E09E
:10085400F2E00E94A30B0E94950BE0ECE98B0E944E
:10086400FA08A03AEBEBBE07EDE08E07E0E09E0746
:1008740050F00E94FA08A035EAEDBE07E1E18E07C8
:10088400E0E09E0708F016C0EEE0ED8B00E010E01B
:100894000330E0E01E0758F4F8010E94F30AEC511B
:1008A400FF4F0E94FF0818F00F5F1F4FF1CF0B5F3F
:1008B4001F4F15C0ECE0ED8B00E010E00730E0E0E6
:1008C4001E0758F4F8010E94F30AE450FF4F0E94F7
:1008D400FF0818F00F5F1F4FF1CF0F5F1F4FD801B4
:1008E400E5E00E94D00A8F01E02FAD89EA0FED8B7D
:1008F4000E94FA08E4EFF1E060E070E00E94370B38
:10090400EE8BFF8B688F798FAE89BF89888D998D27
:10091400E0E2F0E060E070E00E94370BEA8FFB8FCA
:100924006C8F7D8FEE89FF89688D798DEF71F07002
:10093400607070708F01AA8DBB8D8C8D9D8DE3E0EE
:100944000E94E50AEA8BEA8DE295E07FEE0FEB8BDD
:10095400E02FAB89EA0FEB8B00E010E0E989EC872C
:10096400EA89ED87EB89EE87ED89E88BE1EEEF8785
:10097400ED89E37FE88B53DF0E9406090E940B098F
:10098400EF85E460ED870E9406090E940F09EAE002
:10099400F0E00E94B008EDEFEC8B2DE030E0F901BF
:1009A400F695E795E470F070AF01F901EE0FFF1FC3
:1009B400E870F070EA87FB87F9010E94F50AE87095
:1009C400F070E887F987F9010E94F10AE071F0708C
:1009D400EE83FF83DE015496EC91E77EEC93DE0117
:1009E4005596EC91E37FEC93FE017496BF01008071
:1009F400E885AE81EA2BE029DB01EC93FE017596D4
:100A0400BF010080E42FAA85EA2BE029DB01EC93E7
:100A1400EC89E460ED87ED89EE870E9406090E9467
:100A2400130907DFE1E0F0E00E94B0080F5F1F4FF9
:100A340079D1E03011F0E1E006C00430E0E01E07B7
:100A440008F48CCFE0E00E949C0BA29608952A97AC
:100A54001A930A93E0EDEA83FE0132968F01E0E4F3
:100A6400EB83E4E6EC83E4E00E9417090E941E098C
:100A7400EFE0EB83E4E50E942509E1E1EB83EAE79B
:100A84000E942509E2E2EB83E0E0EC830E9417096F
:100A9400EBE1EB83EFE8EC83E0EF0E941709E5E17B
:100AA400EB83E7EFEC83E8E8ED83E8E50E942909AE
:100AB400E9E1EB83E6EAEC83E8E80E941709EBE25C
:100AC400EB83EFEFEC83E7EF0E941709E7E3EB8397
:100AD400EFE2EC83E6E1ED83EDEB0E942909ECE320
:100AE400EB83E2E10E9425090E941E09E0E4EB8306
:100AF400E3E6EC83E4E0ED83E0E20E942909E2EB23
:100B0400EB83E0E1EC83E2E8ED83E0E8EE83E2E806
:100B1400EF83E887E9871A930A93E8E0EA9363DEB0
:100B2400198108812C9608952C971A930A93FE0133
:100B340036968F01E0EDEE83E0E4EF83E4E6E887A8
:100B4400E4E0E9871A930A93EA934DDEE2E0EF8347
:100B5400E0E2E8871A930A930E941309AE85BF85E1
:100B640088899989E0E0F0E060E879E40E94280A45
:100B7400DF01CB01E0E0F0E563EC77E40E94760A64
:100B8400DE0112960E94E1090E947C0BE8E2EF83E9
:100B9400AA81BB818C819D81ECE00E94D90AE887FF
:100BA400E4E00E94D90AE987EA81E295E07FEA87D6
:100BB400E0E0EB87EC871A930A93E7E0EA9313DE0D
:100BC40019810881629608951A9363DDE2E3F0E0E7
:100BD4000E94B008ED81FE816F8178850E94870BA9
:100BE40032DE35DFE981FA816B817C810E94870BDB
:100BF4009BDF10E0143058F41F5F80E19EE0019702
:100C0400F1F709D0EF3F11F4E1E002C0F3CFE0E0E7
:100C14001881299608952497E0EDE883EEE10E9477
:100C24002D09E03011F4E0E051C00E94320911F4C2
:100C3400E0E04CC0EA81EB83E4E20E942D09E0305D
:100C440011F4E0E043C00E94320911F4E0E03EC038
:100C5400EA81E078E03821F4EB81E078E03809F0CB
:100C640002C0EFEF33C0E1E031C02497E0EDE88348
:100C7400E0E20E942D09E03019F4E0E0F0E026C043
:100C8400E881EA93FE013396FA93EA93E2E0EA9369
:100C940067DDE03019F4E0E0F0E018C0EA81E883B1
:100CA400EB81EA83E881EB83E9EFFAE0FA93EA93D4
:100CB400EC81FD810E94D8080E943E09EC850E94C7
:100CC40045098CE05AD02E96EA81FB81249608953A
:100CD40023971A930A93FE0132968F01E0EDEA837B
:100CE400ED81EB831A930A930E940F09E030B1F06F
:100CF400EA81EA931A930A93E2E0EA9331DDE03061
:100D040069F0E7E0FBE0FA93EA93EC810E9445097D
:100D14000E943E0988E031D02A96EA81198108812F
:100D2400269608952197E0ECE8831A9310E077DD86
:100D3400E981EA93FE013296FA93EA93E1E0EA93B9
:100D44000FDDE2E1FBE0FA93EA93EB810E944509AF
:100D54000E94C5081F5FE981E07419F06ADDE1E0D3
:100D640009C0133028F365DDE0E004C01A9319814B
:100D74007CDFE12F188122960895FF92F82E629766
:100D84000E94950BDE0154960E94BB0AAE83BF837A
:100D94000E944B09E081E03011F40C9460070E943A
:100DA4004B09A081A53239F00E9452093197E081A4
:100DB400EA93C3D0EDCF0E945209E081F0E0E3371B
:100DC400A0E0FA0771F40E945C090D911C91D8010E
:100DD400EC91E03029F00E9465090F5F1F4FF7CFB7
:100DE4006AC0E537A0E0FA07B1F40E945C092D91CE
:100DF4003C9150E00E94DD080E94690911F05F5F98
:100E0400F9CF503031F00E94DD080E947F09515023
:100E1400F8CFE8854EC0E436A0E0FA0701F50E9459
:100E24005C092D913C9133231AF4EDE2EA9385D0C9
:100E34003A932A930E944F089F0150E00E94DD08D4
:100E44000E94690911F05F5FF9CF503031F00E94C0
:100E5400DD080E947F095150F8CFE8852AC0E837A1
:100E6400A0E0FA0719F50E945C092C913327D901F7
:100E7400E0E1F0E00E945C0BE05DE987D901E0E18C
:100E8400F0E00E94320BE05DE887A985AA3318F0F0
:100E9400E985E95FE987A885AA3318F0E885E95F61
:100EA400E887E885EA9349D0E98503C00E944B09A5
:100EB400E081EA9342D00E9452096ACFE1E00E94A5
:100EC4009C0B6896FF900895E881EF71E064E093CD
:100ED4007C00E881E07221F0E0917B00E86003C0CF
:100EE400E0917B00E77FE0937B0085E38A95F1F74F
:100EF400E0917A00E064E0937A00E0917A00E07196
:100F0400E1F3E0917A00E061E0937A00E091780007
:100F1400F0917900C0C01A930A93E091C8001E2F83
:100F2400E078D9F30091CE00E12FEC7111F4E02FB9
:100F340001C0F3CF099119910895E091C800E072BE
:100F4400E1F3E881E093CE00A6C00E948409A3E205
:100F5400BBE00E94920909F470D008C00E94840981
:100F6400A1E2BBE00E94920909F46DD0E991EFBFC0
:100F7400F991E991B991A99199918991799169919D
:100F8400F9901990099018950E949909E0E00E943F
:100F94006E08E881EE0FEE0F0E947608E2E00E94F0
:100FA4007C0879C00E94A009E093230BF093240BE2
:100FB400A981BA810E948C0B24F4E0910201E068BB
:100FC40003C0E0910201EF77E09302010E948E08D2
:100FD400E881EE0FEE0FE093A600E0E0E093A900B5
:100FE400E4E00E949608E0E8E093A000E3E1E093E7
:100FF400A100E1E0E09372001EC00E94A009E0930A
:10100400210BF093220BA981BA810E948C0B14F45A
:10101400779A01C07798E0E00E946E08E881EE0FAD
:10102400EE0F0E947608E4E00E947C080E94990971
:10103400E1E0E093710023960895E0E0E09372000C
:101044000E94880808950E946808E0937200089539
:10105400E881E07821F0E881EF70EA9395DFE88198
:10106400E07441F0E8ECF0E0FA93EA93EA81EF707F
:10107400EA9398DFE881E07241F0ECE2F1E0FA9360
:10108400EA93EA81EF70EA93B8DFE881E07111F046
:10109400DADFD3DFE1E021960895E991F991309701
:1010A4001AF4E095F09531960895E991F9916991D2
:1010B400799130976040704042F4E095F0956095E6
:1010C400709500243196601D701D0895E0E0E09352
:1010D4009000E09391000895E0939500E0E0E093A0
:1010E4009400E09397000895E0939600E0E0E09385
:1010F40099000895E0939800E0E0E0939B00E0936A
:101104009A00E0939D00E0939C000895E0E0E09352
:10111400A000E093A1000895E0E0E093A500E0932F
:10112400A400E093A7000895E093A800E0E0E09312
:10113400AB00E093AA00E093AD00E093AC00089507
:101144005F98E8ECF0E0FA93EA930E94A6095F9AAC
:10115400E8ECF0E0FA93EA930C94A609FA93EA9384
:101164000C94A609EA930E946607662777270E94D3
:10117400870B0895FA93EA93E52FFF2766277727CD
:101184000E94870B089584E00E94BF062696089566
:10119400FA93EA9380E00E94BF0622960895EC89B0
:1011A400FD896E897F890E94870B089566277727BA
:1011B4000E94870B0895E52FF0E008950E94FA0A33
:1011C4000E94870B88E00E94BF062A960895FA932E
:1011D400EA93F801EBCF759A8BE08A95F1F70895BD
:1011E400EA83FE01FA93EA93E3E0EA930C94F503AD
:1011F400AE8DBF8D88A199A1089534960E94810B6C
:10120400F7DF0E94900B0895FE013C96FA93EA934F
:101214000895E5E0EA930C94F503E2E0EA930C9474
:10122400F503E3E0EA930C94F503ED831A930A9330
:10123400E4E0EA930C94F503E2E0EB83E0E2EC8370
:101244001A930A93EECFEC831A930A93EACFEE83B0
:101254001A930A93DECFE983FE01FA93EA93DDCF72
:10126400E881EA93FE013396FA93EA93E1E0EA9384
:101274000E94B203E0300895E985FF2766277727A7
:101284000E94870B0895FF27662777270E94870B04
:101294000895DE0158960E94BB0A0E94780B0895B7
:1012A400DE0158960E94BB0AED91FD913196FE93A2
:1012B400EE930895EE81FF813497EE83FF83AE8130
:1012C400BF8114960895EC91EA930C949F07DE0174
:1012D4001896EA0FFB1FBF01D901EAE0F0E00E9473
:1012E4005C0BE05DDB01EC93D901EAE0F0E00E94E5
:1012F400320B9F01022E032A0895DE011896AE0FC9
:10130400BF1FE1CF0A921A92FA926A937A938A9350
:101314009A93AA93BA93EA93FA93EFB7EA93089548
:10132400ED91FD913197FE93EE9331960895E0E8A7
:10133400E0939000E3E1E09391000895E981FA815C
:10134400FA93EA930C944F08E991F991309639F0A5
:1013540080EA9FE00197F1F7A8953197C9F70895BE
:10136400552342F4503811F4E0FF04C03196691F4C
:10137400791F6BF050E8572711F45F9355C05F3F16
:1013840031F0660F000C57956795752F08955F939C
:1013940000200AF055C04EC050E8192E1522880FBF
:1013A400991F9527550F879550E8072E0522660F3C
:1013B400771F7527550F67950895689401C0E894C1
:1013C4005F93F2DF703818F07F3F08F42DC056E1C8
:1013D400571BAAF4519558300EF4593030F0EFEF02
:1013E400FFEF6FEF7FE777F91AC077275523B9F03E
:1013F400EE0FFF1F661F771F5A95D1F710C077278E
:10140400583028F0EF2FF62F672F5850F9CF552377
:1014140031F076956795F795E7955A95D1F70020C1
:101424000AF4B4D05F910895EE27FF276627772743
:101434005F910895EFEFFFEF6FE77FEF5F910895FE
:10144400EFEFFFEF6FE77FE75F9108955F93A4DF0E
:10145400703851F3903841F301240894791F23F430
:101464001CF300203AF3ECCF0F921F932F933F937A
:101474004F93112722279927689FA0018F9F302D12
:10148400410D591F6B9F300D411D591F8E9F27D051
:10149400BF9F25D06A9F23D0BE9F1DD0AF9F1BD076
:1014A400AE9F110D291F391F491F591FE32FF42F18
:1014B400652F522F4F913F912F911F910F906623CB
:1014C4002AF0550FEE1FFF1F661F02C073954BF2E3
:1014D40047DF5F910895100D211D391F02C0200DB3
:1014E400311D491F591F08955F9356DF703821F449
:1014F40011200AF49FCFA4CF903809F495CF01248A
:101504000894970B1BF4D4F30020F3CF792F1F9387
:101514002F933F934F9311241127222733274427D6
:10152400552790E2AE17BF078607410730F0AE1B80
:10153400BF0B860B410B089401C08894551F221FD2
:10154400331F111CAA1FBB1F881F441F9A9551F7F4
:10155400F901612D4F913F912F911F91662332F034
:10156400550FEE1FFF1F661F7A9543F2F9DE5F9158
:1015740008950024AF0DB01D0895EA1BFB0B680B02
:10158400790B0895F195E195F0400895F0956095F3
:101594007095E195FF4F6F4F7F4F0895EE230E2E08
:1015A400FD0121F0EE0FFF1F0A94E1F70895EE23E9
:1015B4000E2EFD01BC0131F075956795F795E79501
:1015C4000A94D1F70895EE230E2EFD01BC0131F0EB
:1015D40076956795F795E7950A94D1F70895EE0FF8
:1015E400FF1FEE0FFF1FEE0FFF1FEE0FFF1F0895EB
:1015F4006F2F660F660B762F08957A9F702D6B9F61
:10160400700DF89F700DE99F700D6A9F602D710D2C
:10161400FB9F600D711DE89F600D711D8827FA9F67
:10162400F02D610D781FEB9FF00D611D781FEA9F6F
:10163400E02DF10D681F781F08950024112490E116
:10164400AA0FBB1F001C111C0E1A1F0A18F40E0E41
:101654001F1E01C0A1609A9599F7FD01D00108955C
:1016640037D0EBDF0EF48EDF08953F934F935F93F3
:10167400002411244427552730E2AA0FBB1F881FDA
:10168400991F001C111C441F551F0E1A1F0A460BDC
:10169400570B28F40E0E1F1E461F571F01C0A160D2
:1016A4003A9559F7FD01BC01D001CA015F914F91F0
:1016B4003F910895E894B7FF04C0A095B0951196A2
:1016C4006894F7FD5FDFB9DFFD010EF45BDF089579
:1016D400E894F7FF02C056DF6894B7FF06C0A095F0
:1016E400B095119600F8039400FA0895ED91FC91D9
:1016F40011970895ED93FD936D937C930895059050
:10170400159065917491F00108957A936A93FA9310
:10171400EA93089500240A160B060895AE17BF072E
:101724008607970708955A934A933A932A931A93EC
:101734000A9308955D814C813B812A811981088136
:101744000895AC0FBD1F05900D928A95E1F7089599
:00000001FF
