:020000000C945E
:1000020074010C9400000C9400000C9400000C94F9
:1000120000000C9400000C9400000C9400000C945E
:1000220000000C9400000C9400000C9400000C944E
:1000320000000C9400000C9400000C9400000C943E
:1000420000000C9400000C9400000C9400000C942E
:1000520000000C9400000C9400000C9400000C941E
:1000620000000C9400000C9400000C9400000C940E
:1000720000000C9400000C9400000C9400000C94FE
:1000820000000C9400000C9400000C941B0A0C94C9
:1000920000000C9400000C9400000C9400000C94DE
:1000A20000000C9400000C9400000C9400000C94CE
:1000B20000000C94F6090C9400000C9400000C94BF
:1000C20000000C9400000C9400000C9400000C94AE
:1000D20000000C9400000C9400000C9400000C949E
:1000E2000000F07E0E0010CD0E0010CD0E00284054
:1000F20010002840100050DA110050DA110020D60A
:10010200130020D61300880C1600880C16005885A0
:1001120018005885180050211B0050211B00F0A127
:100122001D00F0A11D00388420003884200070CE0C
:1001320020001027E80364000A00010000100001FB
:10014200100001006A696E676C652062656C6C73F1
:100152000000000074756E657220696E697420611A
:100162006E6420726561642041474320616E616C58
:100172006F67206E756D62657220616E6420414703
:1001820043207265676973746572206E756D62656E
:10019200723A0025640025640A006779726F313A69
:1001A2002564206779726F323A2564206779726F0D
:1001B200333A2564204147433A25640A006D6F743F
:1001C2006F72207465737420776974682000456EBD
:1001D2007465722072656769737465722061646404
:1001E200723A0074756E657220746573742E2E2EC9
:1001F200002E2E2E646F6E650A00737472696E672C
:10020200206D65616E732025730A00686578203061
:1002120078257820307825780A006865782030784B
:1002220025780A00756E7369676E656420262073EF
:1002320069676E656420696E74206E756D626572A1
:100242003A25752025640A00000000000000000025
:100252000000307825782C307825780A00726561A4
:10026200642074756E65723A25780A0001002D4E7D
:10027200414E00494E4600003F0000065601030071
:100282003F069501040042069801230046069C01A0
:10029200230069069C0111008C06BF0115009D0612
:1002A200D0010E00B206E5010900C006F3011100FB
:1002B200C906FC010F00DA060D020A00E9061C025B
:1002C2002400F306260224001707260224003B0717
:1002D20026020B005F0754020F006A075F0201004B
:1002E2007D076E020000F894EE27EFBBF1E0F5BF48
:1002F200E5BFE0937400E0937500F8E1A895A4B718
:10030200A77FA4BFF0936000E09360008DE0A2E0BD
:10031200BB27ED938A95E9F780E090E2A0E0B2E096
:10032200ED930197E9F7EAE7F2E08591959100975D
:1003320061F0A591B59105901590BF01F00105906E
:100342000D920197E1F7FB01F0CF8BBF8CBFE0E08C
:10035200EEBBEFEFEDBFE1E2EEBFC0E0D6E00C9402
:100362008D02E0E8E0936100E0E0E0936100E2B931
:10037200E1B9E5B9E0E6E4B9E0E0E8B9E7B9EBB93B
:10038200E0E8EAB9E0E0EEB9ECEBEDB9E0E0E1BBC0
:10039200E0BBE4BBE8E0E3BBE0E0E0930201ECEAAF
:1003A200E0930101E0E0E0930501E0930401E093B2
:1003B2000801E0930701E0930B01E0930A01E4BD19
:1003C200E5BDE6BDE7BDE8BDE0938000E0938100B6
:1003D200E0938500E0938400E0938700E093860039
:1003E200E0938900E0938800E0938B00E0938A0019
:1003F200E0938D00E0938C00E093B600E093B000B0
:10040200E093B100E093B200E093B300E093B40054
:10041200E0939000E0939100E0939500E0939400C4
:10042200E0939700E0939600E0939900E0939800A0
:10043200E0939B00E0939A00E0939D00E0939C0080
:10044200E093A000E093A100E093A500E093A40054
:10045200E093A700E093A600E093A900E093A80030
:10046200E093AB00E093AA00E093AD00E093AC0010
:10047200E0932001E0932101E0932501E093240120
:10048200E0932701E0932601E0932901E0932801FC
:10049200E0932B01E0932A01E0932D01E0932C01DC
:1004A200E0936900E0936A00EDBBE0936B00E09398
:1004B2006C00E0936D00E0936800E0936E00E093BF
:1004C2006F00E0937000E0937100E0937200E0939C
:1004D2007300E093C100E093C800E8E1E093C90033
:1004E200E6E0E093CA00E0E0E093CD00E7E6E093C7
:1004F200CC00E0E0E093D100E0933101E0E8E0BF1E
:10050200E0E0E0937B00E0937F00E0937A00ECBDB3
:10051200E093BC0078940895A09780E1A0E0B0E059
:10052200E6E4F1E00E94320DEEEFF9E260E070E005
:10053200EC8FFD8F6E8F7F8FE8E6FEE260E070E069
:10054200E88FF98F6A8F7B8FE0E0F0E061EE76E46E
:10055200E88BF98B6A8B7B8BA88DB98D8A8D9B8DED
:10056200EC8DFD8D6E8D7F8D0E944E0C0E94160DBE
:100572000E94240BA8EEB3E080E090E00E948E0C73
:10058200EC8BFD8B6E8B7F8BECDE5F98E8ECF0E002
:10059200FA93EA930E94350B5F9AE8ECF0E0FA9343
:1005A200EA930E94350B5F98E8ECF0E0FA93EA9345
:1005B2000E94350B5F9AE8ECF0E0FA93EA930E940E
:1005C200350B5F98E8ECF0E0FA93EA930E94350B62
:1005D2005F9AE4EFF1E0FA93EA930E94350BE1E4CB
:1005E200EA930E94EE09E2E4EA930E94EE09E3E450
:1005F200EA930E94EE095F9A0E94DC09E83459F5F9
:10060200E0E0F6E0FA93EA9380E00E94A3082296E3
:10061200EBE0EA930E94B5098F01EFE3F6E0FA936B
:10062200EA93F801662777270E94160D84E00E945C
:10063200A30826960E941A088F01E2E4F6E0FA93D4
:10064200EA93F801662777270E94160D84E00E943C
:10065200A30826967BC1E134B9F50E94DC095E2F1E
:100662005A930E94620A08EE13E0F801015010400A
:10067200309739F1E5E0F0E0FA93EA930E94350B06
:10068200E6E4F6E0FA93EA93EDE0EA930E94B50914
:10069200662777270E94160DEEE0EA930E94B509BD
:1006A200662777270E94160DEFE0EA930E94B509AC
:1006B200662777270E94160D8CE00E94A3082E96CB
:1006C200D4CF0E94EF0A42C1E23449F5E9E6F6E0EE
:1006D200FA93EA93EDE0EA930E94B5096627772739
:1006E2000E94160DEEE0EA930E94B509662777276D
:1006F2000E94160DEFE0EA930E94B509662777275C
:100702000E94160DEBE0EA930E94B509662777274F
:100712000E94160D80E10E94A308629617C1ED3473
:1007220011F00C94E3035F980E94DC095E2FECE861
:10073200F6E0FA93EA9380E00E94A30822965A9385
:100742000E94EE09EAE0EA930E94EE09553549F467
:10075200E8ECF0E0FA93EA93E5E0EA930E94840A77
:1007620027C0543449F4E8E3FFEFFA93EA93E5E053
:10077200EA930E94840A1CC0523549F4E8ECF0E086
:10078200FA93EA93E5E0EA930E94AF0A11C05C345F
:1007920049F4E8E3FFEFFA93EA93E8E0EA930E9470
:1007A200840A06C0543521F4E6E8EA930E94F70A67
:1007B200593419F40E94400A04C00E94EF0A0E94B0
:1007C200E70AC4C0EC3451F4EDB1E063EDB97598B9
:1007D200749AECE4EA930E94EE09B8C0E23581F41F
:1007E2005F98EDE9F6E0FA93EA9380E00E94A308AD
:1007F20022960E94DC095E2F5A930E944208A6C0EC
:10080200E335A9F4E2EBF6E0FA93EA9380E00E9482
:10081200A3082296E0E0EA930E949C08E0ECF6E04E
:10082200FA93EA9380E00E94A30822968FC0E435EF
:10083200A1F45F98E4E7EA930E94EE09EC89FD894E
:100842006E897F890E94160DEC89FD896E897F89E8
:100852000E94160D0E94AD0779C0E53511F00C9487
:10086200A704E9ECF6E0FA93EA93FE0132966627D2
:1008720077270E94160D84E00E94A308269653E370
:10088200EAEDF6E0FA93EA93E52FFF27662777274A
:100892000E94160DE52FF0E070960E94890C0E94CE
:1008A200160D88E00E94A3082A965CEEE9EEF6E0B7
:1008B200FA93EA93E52FFF27662777270E94160D02
:1008C20084E00E94A30826960FE610E820E634EAA8
:1008D200E3EFF6E0FA93EA93F801662777270E949E
:1008E200160DF9010E94890C0E94160D88E00E94E3
:1008F200A3082A960FEF15EF20E934E3E7E1F7E0CA
:10090200FA93EA93F801662777270E94160DF901F8
:100912000E94890C0E94160D88E00E94A3082A9664
:1009220009E610E025E83FEFEBE3F7E0FA93EA93FC
:10093200F801662777270E94160DF9010E94890C9B
:100942000E94160D88E00E94A3082A9654CEFFCF7B
:100952007298E2E3F0E0FA93EA930E94350B729AFE
:100962000895EDB1E063EDB9749A759A8BE28A95B8
:10097200F1F774988BE08A95F1F70895EDB1E06391
:10098200EDB9749A8BE08A95F1F7759A8BE08A95A6
:10099200F1F774988BE08A95F1F7749A85E18A955C
:1009A200F1F7759A08956C98749A85E18A95F1F732
:1009B200759A8BE08A95F1F7649907C08BE08A9566
:1009C200F1F775986C9AE1E008956C9AE8E5EA937C
:1009D2000E94EE09E0E0089508951A9310E018309D
:1009E200B0F475988BE08A95F1F7E981E07811F01F
:1009F200749A01C07498E981EE0FE9838BE08A95BD
:100A0200F1F7759A85E18A95F1F71F5FE8CF75983E
:100A1200CADFE13029F485E18A95F1F7E1E08FC37D
:100A22008BE08A95F1F7E0E08AC30E94240D1E81D3
:100A32002F81388596DFE985E160EA93CEDFE130E8
:100A4200A1F56C98E12F1150E03061F150E08BE29A
:100A52008A95F1F7749A00E0083080F485E18A956E
:100A6200F1F7759A8BE08A95F1F7550F64995F5FFC
:100A72008BE08A95F1F775980F5FEECFE52FD901DC
:100A8200EC932F5F3F4F85E18A95F1F774986C9A4A
:100A9200759A85E18A95F1F775986C9885E38A9540
:100AA200F1F7D0CF6BDFE1E001C0E0E00E942B0D57
:100AB2002A9608951A9355DF10E0E9811E1790F4E3
:100AC200AA81BB81EC91EA9388DFE03031F0EA81C0
:100AD200FB813196EA83FB8303C0E0E01881CFC239
:100AE2001F5FEBCF4BDFE1E01881C9C22397E0ED36
:100AF200E883E1E0E983E8EDEA83FE01FA93EA9311
:100B0200E3E0EA93D7DF0C94E50A2397E0EDE8836C
:100B1200E1E0E983E8E5EA83FE01FA93EA93E3E0A0
:100B2200EA93C8DF0C94E50A68978AE0A6E0B0E091
:100B3200EAE4F2E00E94320D0E94240DE0ECE98B1F
:100B4200AE8DBF8D88A199A1A03AEBEBBE07EDE077
:100B52008E07E0E09E0740F0A035EAEDBE07E1E136
:100B62008E07E0E09E0708F01DC0EEE0ED8B00E08E
:100B720010E00330E0E01E0790F4F8010E94820CBE
:100B8200EC51FF4F34960E94100DAE8DBF8D88A19F
:100B920099A10E941F0D18F00F5F1F4FEACF0B5F44
:100BA2001F4F1CC0ECE0ED8B00E010E00730E0E0EE
:100BB2001E0790F4F8010E94820CE450FF4F349615
:100BC2000E94100DAE8DBF8D88A199A10E941F0DAC
:100BD20018F00F5F1F4FEACF0F5F1F4FD801E5E0FC
:100BE2000E945F0C8F01E02FAD89EA0FED8BAE8D75
:100BF200BF8D88A199A1E4EFF1E060E070E00E946E
:100C0200C60CEE8BFF8B688F798FAE89BF89888D7A
:100C1200998DE0E2F0E060E070E00E94C60CEA8F9D
:100C2200FB8F6C8F7D8FEE89FF89688D798DEF71D7
:100C3200F070607070708F01AA8DBB8D8C8D9D8D50
:100C4200E3E00E94740CEA8BEA8DE295E07FEE0FFE
:100C5200EB8BE02FAB89EA0FEB8B00E010E0E98928
:100C6200EC87EA89ED87EB89EE87ED89E88BE1EE87
:100C7200EF87ED89E37FE88B39DFFE013C96FA933B
:100C8200EA93E5E0EA9316DFEF85E460ED87FE0183
:100C92003C96FA93EA93E2E0EA930CDFEAE0F0E0B2
:100CA200FA93EA930E94350BEDEFEC8B2DE030E0E6
:100CB200F901F695E795E470F070AF01F901EE0FD6
:100CC200FF1FE870F070EA87FB87F9010E94840C2D
:100CD200E870F070E887F987F9010E94800CE071F2
:100CE200F070EE83FF83DE015496EC91E77EEC9385
:100CF200DE015596EC91E37FEC93FE017496BF0101
:100D02000080E885AE81EA2BE029DB01EC93FE014D
:100D12007596BF010080E42FAA85EA2BE029DB014A
:100D2200EC93EC89E460ED87ED89EE87FE013C9659
:100D3200FA93EA93E3E0EA93BDDEE7DEE1E0F0E076
:100D4200FA93EA930E94350B0F5F1F4FCCD1E0302C
:100D520011F0E1E006C00430E0E01E0708F47FCFA6
:100D6200E0E00E942B0DA29608952A971A930A9307
:100D7200E0EDEA83FE0132968F01E0E4EB83E4E6E4
:100D8200EC83E4E0ED831A930A93EA9393DEE2E0C4
:100D9200EB83E0E2EC831A930A93E3E0EA938ADEC0
:100DA200EFE0EB83E4E5EC831A930A93E3E0EA9342
:100DB20081DEE1E1EB83EAE7EC831A930A93E3E055
:100DC200EA9378DEE2E2EB83E0E0EC83ED831A93D0
:100DD2000A93E4E0EA936EDEEBE1EB83EFE8EC8367
:100DE200E0EFED831A930A93E4E0EA9363DEE5E130
:100DF200EB83E7EFEC83E8E8ED83E8E5EE831A9313
:100E02000A93E5E0EA9356DEE9E1EB83E6EAEC8356
:100E1200E8E8ED831A930A93E4E0EA934BDEEBE20F
:100E2200EB83EFEFEC83E7EFED831A930A93E4E0B1
:100E3200EA9340DEE7E3EB83EFE2EC83E6E1ED8366
:100E4200EDEBEE831A930A93E5E0EA9333DEECE3EB
:100E5200EB83E2E1EC831A930A93E3E0EA932ADE5E
:100E6200E2E0EB83E0E2EC831A930A93E3E0EA9395
:100E720021DEE0E4EB83E3E6EC83E4E0ED83E0E211
:100E8200EE831A930A93E5E0EA9314DEE2EBEB8336
:100E9200E0E1EC83E2E8ED83E0E8EE83E2E8EF8371
:100EA200E887E9871A930A93E8E0EA9303DE198157
:100EB20008812C9608952C971A930A93FE01369670
:100EC2008F01E0EDEE83E0E4EF83E4E6E887E4E01F
:100ED200E9871A930A93EA93EDDDE2E0EF83E0E219
:100EE200E8871A930A93E3E0EA93E4DDAE85BF85CF
:100EF20088899989E0E0F0E060E879E40E94B70B24
:100F0200DF01CB01E0E0F0E563EC77E40E94050C41
:100F1200DE0112960E94700B0E940B0DE8E2EF8335
:100F2200AA81BB818C819D81ECE00E94680CE887DC
:100F3200E4E00E94680CE987EA81E295E07FEA87B3
:100F4200E0E0EB87EC871A930A93E7E0EA93B2DDDD
:100F520019810881629608951A93FADCE2E3F0E0BF
:100F6200FA93EA930E94350BED81FE816F817885B9
:100F72000E94160DD9DDF9DEE981FA816B817C814F
:100F82000E94160D98DF10E0143058F41F5F80E1C4
:100F92009EE00197F1F709D0EF3F11F4E1E002C0C2
:100FA200F3CFE0E01881299608952497E0EDE883D5
:100FB200EEE1E983FE01FA93EA93E2E0EA937ADD55
:100FC200E03011F4E0E05BC0E881EA93FE01339681
:100FD200FA93EA93E1E0EA9328DDE03011F4E0E0ED
:100FE2004EC0EA81EB83E4E2E983FE01FA93EA93DD
:100FF200E2E0EA935FDDE03011F4E0E040C0E88136
:10100200EA93FE013396FA93EA93E1E0EA930DDD67
:10101200E03011F4E0E033C0EA81E078E03821F416
:10102200EB81E078E03809F002C0EFEF28C0E1E0A0
:1010320026C02497E0EDE883E0E2E983FE01FA931B
:10104200EA93E2E0EA9336DDE03019F4E0E0F0E022
:1010520016C0E881EA93FE013396FA93EA93E2E03E
:10106200EA93E3DCE03019F4E0E0F0E008C0EA8162
:10107200E883EB81EA83E881EB83EA81FB812496B2
:10108200089523971A930A93FE0132968F01E0ED99
:10109200EA83ED81EB831A930A93E2E0EA930ADD95
:1010A200E030E9F0EA81EA931A930A93E2E0EA93E4
:1010B200BCDCE030A1F0EFE5F7E0FA93EA93EC81D3
:1010C200FF27662777270E94160DE985FF276627E7
:1010D20077270E94160D88E035D02A96EA81198179
:1010E2000881269608952197E0ECE8831A9310E090
:1010F200FDDCE981EA93FE013296FA93EA93E1E09C
:10110200EA9393DCEAE6F7E0FA93EA93EB81FF27AE
:10111200662777270E94160D84E014D026961F5F5B
:10112200E981E07419F0F1DCE1E009C0133008F361
:10113200ECDCE0E004C01A9319817BDFE12F188117
:1011420022960895FF92F82E62970E94240DDE01E6
:1011520054960E944A0CAE83BF83DE0158960E94C9
:101162004A0C0E94070DE081E03011F40C94AF09A3
:10117200DE0158960E944A0C0E94070DA081A532FA
:1011820071F0DE0158960E944A0CED91FD91319664
:10119200FE93EE933197E081EA931FD1DECFDE0119
:1011A20058960E944A0CED91FD913196FE93EE9372
:1011B200E081F0E0E337A0E0FA07A1F4EE81FF81DD
:1011C2003497EE83FF83AE81BF8114960D911C91FB
:1011D200D801EC91E03029F0EA93FFD00F5F1F4F66
:1011E200F7CFB2C0E537A0E0FA07A1F5EE81FF81A3
:1011F2003497EE83FF83AE81BF8114962D913C918B
:1012020050E0E52FF0E0DE011896EA0FFB1FBF0168
:10121200D901EAE0F0E00E94EB0CE05DDB01EC9327
:10122200D901EAE0F0E00E94C10C9F01022E032ADC
:1012320011F05F5FE6CF503059F0E52FF0E0DE01AC
:101242001896AE0FBF1FEC91EA93C7D05150F3CF5F
:10125200E88578C0E436A0E0FA0711F00C946F0933
:10126200EE81FF813497EE83FF83AE81BF811496B6
:101272002D913C9133231AF4EDE2EA93AED03A93E6
:101282002A930E941C0B9F0150E0E52FF0E0DE0143
:101292001896EA0FFB1FBF01D901EAE0F0E00E94B5
:1012A200EB0CE05DDB01EC93D901EAE0F0E00E9497
:1012B200C10C9F01022E032A11F05F5FE6CF50306E
:1012C20059F0E52FF0E0DE011896AE0FBF1FEC914A
:1012D200EA9383D05150F3CFE88534C0E837A0E0D9
:1012E200FA0749F5EE81FF813497EE83FF83AE81E1
:1012F200BF8114962C913327D901E0E1F0E00E94DE
:10130200EB0CE05DE987D901E0E1F0E00E94C10C5D
:10131200E05DE887A985AA3318F0E985E95FE987E6
:10132200A885AA3318F0E885E95FE887E885EA939B
:1013320054D0E98507C0DE0158960E944A0C0E94EB
:10134200070DE081EA9349D0DE0158960E944A0CCB
:10135200ED91FD913196FE93EE93FFCEE1E00E9476
:101362002B0D6896FF900895E881EF71E064E09399
:101372007C00E881E07221F0E0917B00E86003C02C
:10138200E0917B00E77FE0937B0085E38A95F1F7AC
:10139200E0917A00E064E0937A00E0917A00E071F3
:1013A200E1F3E0917A00E061E0937A00E091780065
:1013B200F09179003EC11A930A93E091C8001E2F62
:1013C200E078D9F30091CE00E12FEC7111F4E02F17
:1013D20001C0F3CF099119910895E091C800E0721C
:1013E200E1F3E881E093CE0024C10A921A92FA92C4
:1013F2006A937A938A939A93AA93BA93EA93FA9303
:10140200EFB7EA93ABE7B7E0ED91FD913197FE9329
:10141200EE93319609F4DAD0E991EFBFF991E991AF
:10142200B991A9919991899179916991F9901990BC
:10143200099018950A921A92FA926A937A938A9369
:101442009A93AA93BA93EA93FA93EFB7EA93A9E726
:10145200B7E0ED91FD913197FE93EE93319609F449
:10146200BDD0E991EFBFF991E991B991A991999113
:10147200899179916991F9901990099018957398C9
:10148200E0910201E77FE09302017798E091020187
:10149200EF77E09302017698E0910201EF7BE0930F
:1014A20002018BE68A95F1F7769AE0910201E064F7
:1014B200E0930201E0910201EF7DE0930201A39A21
:1014C2000895E0E8E0939000E3E1E0939100E0E02A
:1014D200E0939500E0939400E0939700E881EE0F8B
:1014E200EE0FE0939600E0E0E0939900E2E0E093F3
:1014F2009800E0E0E0939B00E0939A00E0939D0067
:10150200E0939C0096C0E981FA81E0937B07F09317
:101512007C07E0E0E093A500E093A400E093A7003D
:10152200E881EE0FEE0FE093A600E0E0E093A90061
:10153200E4E0E093A800E0E0E093AB00E093AA00CF
:10154200E093AD00E093AC00E0E8E093A000E3E1BB
:10155200E093A100E1E0E093720036C0E981FA81F4
:10156200FA93EA930E941C0BE0937907F0937A07AF
:10157200A981BA810E941B0D14F4779A01C0779851
:10158200E0E0E0939500E0939400E0939700E88117
:10159200EE0FEE0FE0939600E0E0E0939900E4E0B6
:1015A200E0939800E0E0E0939B00E0939A00E093E0
:1015B2009D00E0939C00E0E8E0939000E3E1E0937B
:1015C2009100E1E0E093710023960895E0E0E0935A
:1015D2007200E093A000E093A1000895E0E0E093A0
:1015E2009000E0939100E09372000895E881E07822
:1015F20021F0E881EF70EA9364DFE881E07441F062
:10160200E8ECF0E0FA93EA93EA81EF70EA937BDF89
:10161200E881E07241F0ECE2F1E0FA93EA93EA81C8
:10162200EF70EA939BDFE881E07111F0D7DFCEDF44
:10163200E1E021960895E991F99130971AF4E09545
:10164200F09531960895E991F991699179913097E0
:101652006040704042F4E095F095609570950024EA
:101662003196601D701D0895E991F991309639F017
:1016720080EA9FE00197F1F7A8953197C9F708959D
:10168200552342F4503811F4E0FF04C03196691F2B
:10169200791F6BF050E8572711F45F9355C05F3FF5
:1016A20031F0660F000C57956795752F08955F937B
:1016B20000200AF055C04EC050E8192E1522880F9E
:1016C200991F9527550F879550E8072E0522660F1B
:1016D200771F7527550F67950895689401C0E894A0
:1016E2005F93F2DF703818F07F3F08F42DC056E1A7
:1016F200571BAAF4519558300EF4593030F0EFEFE1
:10170200FFEF6FEF7FE777F91AC077275523B9F01C
:10171200EE0FFF1F661F771F5A95D1F710C077276C
:10172200583028F0EF2FF62F672F5850F9CF552356
:1017320031F076956795F795E7955A95D1F70020A0
:101742000AF4B4D05F910895EE27FF276627772722
:101752005F910895EFEFFFEF6FE77FEF5F910895DD
:10176200EFEFFFEF6FE77FE75F9108955F93A4DFED
:10177200703851F3903841F301240894791F23F40F
:101782001CF300203AF3ECCF0F921F932F933F9359
:101792004F93112722279927689FA0018F9F302DF1
:1017A200410D591F6B9F300D411D591F8E9F27D030
:1017B200BF9F25D06A9F23D0BE9F1DD0AF9F1BD055
:1017C200AE9F110D291F391F491F591FE32FF42FF7
:1017D200652F522F4F913F912F911F910F906623AA
:1017E2002AF0550FEE1FFF1F661F02C073954BF2C2
:1017F20047DF5F910895100D211D391F02C0200D92
:10180200311D491F591F08955F9356DF703821F427
:1018120011200AF49FCFA4CF903809F495CF012468
:101822000894970B1BF4D4F30020F3CF792F1F9366
:101832002F933F934F9311241127222733274427B5
:10184200552790E2AE17BF078607410730F0AE1B5F
:10185200BF0B860B410B089401C08894551F221FB1
:10186200331F111CAA1FBB1F881F441F9A9551F7D3
:10187200F901612D4F913F912F911F91662332F013
:10188200550FEE1FFF1F661F7A9543F2F9DE5F9137
:1018920008950024AF0DB01D0895EA1BFB0B680BE1
:1018A200790B0895F195E195F0400895F0956095D2
:1018B2007095E195FF4F6F4F7F4F0895EE230E2EE7
:1018C200FD0121F0EE0FFF1F0A94E1F70895EE23C8
:1018D2000E2EFD01BC0131F075956795F795E795E0
:1018E2000A94D1F70895EE230E2EFD01BC0131F0CA
:1018F20076956795F795E7950A94D1F70895EE0FD7
:10190200FF1FEE0FFF1FEE0FFF1FEE0FFF1F0895C9
:101912006F2F660F660B762F08957A9F702D6B9F3F
:10192200700DF89F700DE99F700D6A9F602D710D0B
:10193200FB9F600D711DE89F600D711D8827FA9F46
:10194200F02D610D781FEB9FF00D611D781FEA9F4E
:10195200E02DF10D681F781F08950024112490E1F5
:10196200AA0FBB1F001C111C0E1A1F0A18F40E0E20
:101972001F1E01C0A1609A9599F7FD01D00108953B
:1019820037D0EBDF0EF48EDF08953F934F935F93D2
:10199200002411244427552730E2AA0FBB1F881FB9
:1019A200991F001C111C441F551F0E1A1F0A460BBB
:1019B200570B28F40E0E1F1E461F571F01C0A160B1
:1019C2003A9559F7FD01BC01D001CA015F914F91CF
:1019D2003F910895E894B7FF04C0A095B095119681
:1019E2006894F7FD5FDFB9DFFD010EF45BDF089558
:1019F200E894F7FF02C056DF6894B7FF06C0A095CF
:101A0200B095119600F8039400FA0895ED91FC91B7
:101A120011970895ED93FD936D937C93089505902E
:101A2200159065917491F00108957A936A93FA93EF
:101A3200EA93089500240A160B060895AE17BF070D
:101A42008607970708955A934A933A932A931A93CB
:101A52000A9308955D814C813B812A811981088115
:101A62000895AC0FBD1F05900D928A95E1F7089578
:00000001FF
