:040000000C94E50077
:100004000C9400000C9400000C9400000C9400006C
:100014000C9400000C9400000C9400000C9400005C
:100024000C9400000C9400000C9400000C9400004C
:100034000C9400000C9400000C9400000C9400003C
:100044000C9400000C9400000C9400000C9400002C
:100054000C9400000C9400000C9400000C9400001C
:100064000C9400000C9400000C9400000C9400000C
:100074000C9400000C9400000C9400000C940000FC
:100084000C9400000C9400000C9400000C940000EC
:100094000C9400000C9400000C9400000C940000DC
:1000A4000C9400000C9400000C9400000C940000CC
:1000B4000C9400000C9400000C9400000C940000BC
:1000C4000C9400000C9400000C9400000C940000AC
:1000D4000C9400000C9400000C9400000C9400009C
:1000E400F07E0E0010CD0E0010CD0E002840100042
:1000F4002840100050DA110050DA110020D6130005
:1001040020D61300880C1600880C16005885180099
:100114005885180050211B0050211B00F0A11D0020
:10012400F0A11D00388420003884200070CE200007
:100134001027E80364000A00010000100001100009
:1001440001006A696E676C652062656C6C730000FF
:1001540000000000737472696E67206D65616E73D0
:100164002025730A00756E7369676E656420262006
:100174007369676E656420696E74206E756D62655F
:10018400723A25752025640A000000000000000072
:100194000000000001002D4E414E00494E46000073
:1001A4001100000A58012400110A69012400350ACB
:1001B40069012400590A6901010004005601010083
:1001C4007D0A98010000F894EE27EFBBF1E0F5BF3B
:1001D400E5BFE0937400E0937500F8E1A895A4B737
:1001E400A77FA4BFF0936000E09360008DE0A2E0DD
:1001F400BB27ED938A95E9F780E090E2A0E0B2E0B6
:10020400ED930197E9F7E4EAF1E085919591009780
:1002140061F0A591B59105901590BF01F00105908D
:100224000D920197E1F7FB01F0CF8BBF8CBFE0E0AB
:10023400EEBBEFEFEDBFE1E2EEBFC0E0DAE00C941D
:10024400FD01E0E8E0936100E0E0E0936100E2B9E1
:10025400E1B9E5B9E0E6E4B9E0E0E8B9E7B9EBB95A
:10026400E0E8EAB9E0E0EEB9E8EBEDB9E0E0E1BBE3
:10027400E0BBE4BBE8E0E3BBE0E0E0930201ECEACE
:10028400E0930101E0E0E0930501E0930401E093D1
:100294000801E0930701E0930B01E0930A01E4BD38
:1002A400E5BDE6BDE7BDE8BDE0938000E0938100D5
:1002B400E0938500E0938400E0938700E093860058
:1002C400E0938900E0938800E0938B00E0938A0038
:1002D400E0938D00E0938C00E093B600E093B000CF
:1002E400E093B100E093B200E093B300E093B40074
:1002F400E0939000E0939100E0939500E0939400E4
:10030400E0939700E0939600E0939900E0939800BF
:10031400E0939B00E0939A00E0939D00E0939C009F
:10032400E093A000E093A100E093A500E093A40073
:10033400E093A700E093A600E093A900E093A8004F
:10034400E093AB00E093AA00E093AD00E093AC002F
:10035400E0932001E0932101E0932501E09324013F
:10036400E0932701E0932601E0932901E09328011B
:10037400E0932B01E0932A01E0932D01E0932C01FB
:10038400E0936900E0936A00EDBBE0936B00E093B7
:100394006C00E0936D00E0936800E0936E00E093DE
:1003A4006F00E0937000E0937100E0937200E093BB
:1003B4007300E093C100E093C800E8E1E093C90052
:1003C400E6E0E093CA00E0E0E093CD00E7E6E093E6
:1003D400CC00E0E0E093D100E0933101E0E8E0BF3D
:1003E400E0E0E0937B00E0937F00E0937A00ECBDD3
:1003F400E093BC000895A09780E1A0E0B0E0E6E4BB
:10040400F1E00E946309EEEFF9E260E070E0EC8F46
:10041400FD8F6E8F7F8FE8E6FEE260E070E0E88F8C
:10042400F98F6A8F7B8FE0E0F0E061EE76E4E88B91
:10043400F98B6A8B7B8BA88DB98D8A8D9B8DEC8D06
:10044400FD8D6E8D7F8D0E9483080E944B090E9452
:100454009E06A8EEB3E080E090E00E94C308EC8B17
:10046400FD8B6E8B7F8BEDDE0E94AF060E94AF0684
:100474005F98E8ECF0E00E94BD065F9AE4EFF1E0DB
:100484000E94BD06E1E4EA930E948D06E2E4EA9349
:100494000E948D06E3E4EA930E948D065F9A0E940F
:1004A4007B06E83451F4EDB1E063EDB9759A7498C4
:1004B400E8E4EA930E948D0661C0E13499F4E4E42F
:1004C400EA930E948D065F98E8EEF3E00E94BD0671
:1004D4005F9AE8EEF3E00E94BD06E1E4EA930E942D
:1004E4008D064CC0E73409F449C0EC3451F4EDB145
:1004F400E063EDB97598749AECE4EA930E948D0672
:100504003DC0E235D9F1E335C9F1E43559F45F98DA
:10051400E4E7EA930E948D060E94C1060E94C10688
:10052400B7D22CC0E53551F5E0E0FAE0FA93EA934E
:10053400FE0132960E94C80684E00E94F7052696C2
:100544002FE630E840E654EAE1E1FAE00E94CD0605
:100554000E94D1062FEF35EF40E954E3E5E3FAE0DA
:100564000E94CD060E94D10629E630E045E85FEFFF
:10057400E9E5FAE00E94CD060E94D1068FCFFFCFB5
:100584007298E2E3F0E00E94BD06729A0895EDB11C
:10059400E063EDB9749A0E94DB0674988BE08A9547
:1005A400F1F708950E94E006749808956C98749A7F
:1005B40080E28A95F1F70E94E00664990CC08BE012
:1005C4008A95F1F775986C9A749AE6E2EA930E9418
:1005D4008D06E1E008956C9AE0E0089508951A9379
:1005E40010E0183090F40E94E506E981E07811F0FB
:1005F400749A01C07498E981EE0FE9838BE08A95BF
:10060400F1F70E94DB061F5FECCF7598CFDFE13076
:1006140031F48BE08A95F1F7E1E04E2EE3C28BE0F2
:100624008A95F1F74424DDC21A930A9300E06C988A
:10063400749A759880E18A95F1F710E0183068F49F
:100644000E94E006000FECB1E0710E2B8BE08A955E
:10065400F1F70E94E5061F5FF1CF6C9A74980E942F
:10066400DB060E94E506E02F0C948A060E945709D7
:100674001C812D813E818BDFEF81E160EA93AFDF46
:10068400E13061F4103039F0CFDFD901EC932F5F02
:100694003F4F1150F7CF86DFE1E001C0E0E00E9458
:1006A4005E09289608951A9372DF10E0E9811E17F7
:1006B40088F4AA81BB81EC91EA9391DFE03031F0B8
:1006C400EA81FB813196EA83FB8302C0E0E004C047
:1006D4001F5FECCF67DFE1E018812496089523972C
:1006E400E0EDE883E1E0E983E0EC06C02397E0ED88
:1006F400E883E1E0E983E0E4EA83FE010E94EA069C
:100704002396089568978AE0A6E0B0E0EEE8F1E069
:100714000E9463090E945509E0ECE98B0E94F006EF
:10072400A03AEBEBBE07EDE08E07E0E09E0750F049
:100734000E94F006A035EAEDBE07E1E18E07E0E095
:100744009E0708F016C0EEE0ED8B00E010E00330E9
:10075400E0E01E0758F4F8010E94B708EC51FF4F7F
:100764000E94F50618F00F5F1F4FF1CF0B5F1F4F6C
:1007740015C0ECE0ED8B00E010E00730E0E01E0770
:1007840058F4F8010E94B708E450FF4F0E94F506A0
:1007940018F00F5F1F4FF1CF0F5F1F4FD801E5E037
:1007A4000E9494088F01E02FAD89EA0FED8B0E941F
:1007B400F006E4EFF1E060E070E00E94FB08EE8BED
:1007C400FF8B688F798FAE89BF89888D998DE0E220
:1007D400F0E060E070E00E94FB08EA8FFB8F6C8F12
:1007E4007D8FEE89FF89688D798DEF71F07060706F
:1007F40070708F01AA8DBB8D8C8D9D8DE3E00E945E
:10080400A908EA8BEA8DE295E07FEE0FEB8BE02FEF
:10081400AB89EA0FEB8B00E010E0E989EC87EA8909
:10082400ED87EB89EE87ED89E88BE1EEEF87ED89C3
:10083400E37FE88B54DFFE013C96FA93EA930E942F
:10084400FC06EF85E460ED87FE013C96FA93EA939B
:100854000E940007EAE0F0E00E94BD06EDEFEC8B99
:100864002DE030E0F901F695E795E470F070AF0102
:10087400F901EE0FFF1FE870F070EA87FB87F901BA
:100884000E94B908E870F070E887F987F9010E94BE
:10089400B508E071F070EE83FF83DE015496EC91AD
:1008A400E77EEC93DE015596EC91E37FEC93FE0139
:1008B4007496BF010080E885AE81EA2BE029DB0154
:1008C400EC93FE017596BF010080E42FAA85EA2B04
:1008D400E029DB01EC93EC89E460ED87ED89EE8798
:1008E400FE013C960E94EA0601DFE1E0F0E00E948E
:1008F400BD060F5F1F4F55D1E03011F0E1E006C097
:100904000430E0E01E0708F488CFE0E00E945C09B0
:10091400A29608952A971A930A93E0EDEA83FE01BA
:1009240032968F01E0E4EB83E4E6EC83E4E00E949A
:1009340004070E940B07EFE0EB83E4E50E94150730
:10094400E1E1EB83EAE70E941507E2E2EB83E0E0F2
:10095400EC830E940407EBE1EB83EFE8EC83E0EF28
:100964000E940407E5E1EB83E7EFEC83E8E8ED831D
:10097400E8E50E941C07E9E1EB83E6EAEC83E8E89A
:100984000E940407EBE2EB83EFEFEC83E7EF0E94B6
:100994000407E7E3EB83EFE2EC83E6E1ED83EDEBC1
:1009A4000E941C07ECE3EB83E2E10E9415070E941E
:1009B4000B07E0E4EB83E3E6EC83E4E0ED83E0E2C1
:1009C4000E941C07E2EBEB83E0E1EC83E2E8ED83B9
:1009D400E0E8EE83E2E8EF83E887E9871A930A9375
:1009E400E8E0EA9360DE198108812C9608952C973B
:1009F4001A930A93FE0136968F01E0EDEE83E0E44C
:100A0400EF83E4E6E887E4E0E9871A930A93EA933C
:100A14004ADEE2E0EF83E0E2E8871A930A93E3E038
:100A2400EA9341DEAE85BF8588899989E0E0F0E0EC
:100A340060E879E40E94EC07DF01CB01E0E0F0E537
:100A440063EC77E40E943A08DE0112960E94A5073F
:100A54000E944009E8E2EF83AA81BB818C819D81D9
:100A6400ECE00E949D08E887E4E00E949D08E98785
:100A7400EA81E295E07FEA87E0E0EB87EC871A936E
:100A84000A93E7E0EA930FDE1981088162960895DC
:100A94001A9376DDE2E3F0E00E94BD06E1E3EA9317
:100AA4003AD1ED81FE816F8178850E944B092ADE5F
:100AB400E2E3EA9330D12EDFE3E3EA932CD1E98138
:100AC400FA816B817C810E944B0991DFE4E3EA9314
:100AD40022D110E0143070F41F5F80E19EE0019792
:100AE400F1F74CD0E03029F0E8E04E2EE1E0188137
:100AF40043C0F0CFE0E018813FC023970E9457091C
:100B040031E020E0E5E3EA9306D1FE0134968F015B
:100B1400E0EDEC83E4E2ED831A930A930E9400076C
:100B2400E03051F0E2E6EA93F6D00E94200721F08B
:100B34000E942A0721E030E0303039F7E6E3EA93F7
:100B4400EAD031E0FE0134968F01E0EDEC83EEE172
:100B5400ED831A930A930E940007E03031F00E945B
:100B6400200719F00E942A0730E0303059F7E7E3F4
:100B7400EA93D1D00E945E09299608952297FE0136
:100B8400FA93EA93BADFE881E078E03821F4E98166
:100B9400E078E03809F002C0E1E025C0BBDEE0E027
:100BA40022C02197E0ECE8831A9310E098DDE981F4
:100BB400EA93FE013296FA93EA93E1E0EA9356DD72
:100BC4001F5FE981E07429F0E4E04E2E8FDDE1E05F
:100BD40009C0A981A13010F0E2E04E2E133038F3A1
:100BE40085DDE0E0188122960895FF92F82E629741
:100BF4000E945509DE0154960E947F08AE83BF838C
:100C04000E943307E081E03011F40C9475060E94D1
:100C14003307A081A53239F00E943A073197E08169
:100C2400EA9379D0EDCF0E943A07E081F0E0E33710
:100C3400A0E0FA0771F40E9444070D911C91D801B9
:100C4400EC91E03029F00E944D070F5F1F4FF7CF62
:100C540047C0E537A0E0FA07C1F40E9444072D918C
:100C64003C9150E00E9451070E94560711F05F5FCB
:100C7400F9CF503041F00E945107AE0FBF1F0E94C0
:100C84004D075150F6CFE88529C0E436A0E0FA07B5
:100C940011F50E9444072D913C9133231AF4EDE29F
:100CA400EA9339D03A932A930E9496069F0150E022
:100CB4000E9451070E94560711F05F5FF9CF503030
:100CC40041F00E945107AE0FBF1F0E944D075150C3
:100CD400F6CFE88503C00E943307E081EA931BD076
:100CE4000E943A078DCFE1E00E945C096896FF906C
:100CF40008951A930A93E091C8001E2FE078D9F35F
:100D04000091CE00E12FEC7111F4E02F01C0F3CF7C
:100D1400099119910895E091C800E072E1F3E88126
:100D2400E093CE0021960895E991F99130971AF451
:100D3400E095F09531960895E991F9916991799149
:100D440030976040704042F4E095F095609570955E
:100D540000243196601D701D08955F98E8ECF0E062
:100D6400FA93EA930E946A075F9AE8ECF0E0FA9338
:100D7400EA930C946A07FA93EA930C946A07EC8951
:100D8400FD896E897F890E944B090895662777271C
:100D94000E944B090895FA93EA93F901F7CFFA01F7
:100DA4000E94BE080E944B0988E00E94F7052A961B
:100DB4000895759A85E18A95F1F70895759A8BE0FF
:100DC4008A95F1F70895759885E18A95F1F7089564
:100DD400FA93EA93E3E0EA930C945503AE8DBF8D46
:100DE40088A199A1089534960E944509F7DF0E94CD
:100DF40050090895E5E0EA930C945503E2E0EA9380
:100E04000C945503ED831A930A93E4E0EA930C944B
:100E14005503E2E0EB83E0E2EC831A930A93E3E008
:100E2400EA930C945503EC831A930A93E3E0EA9350
:100E34000C945503EE831A930A93DCCFEC81EA9366
:100E44001A930A93E2E0EA930E943803E03008958B
:100E5400E22FAF81B885F0E0EA0FFB1FAC81A083DD
:100E64000895DE0158960E947F080E943C09089567
:100E7400DE0158960E947F08ED91FD913196FE9314
:100E8400EE930895EE81FF813497EE83FF83AE8164
:100E9400BF8114960895EC91EA930C948D06E52F86
:100EA400F0E0DE0118960895EA0FFB1FBF01D90197
:100EB400EAE0F0E00E942009E05DDB01EC93D90157
:100EC400EAE0F0E00E94F6089F01022E032A08954A
:100ED400E991F991309639F080EA9FE00197F1F7B2
:100EE400A8953197C9F70895552342F4503811F461
:100EF400E0FF04C03196691F791F6BF050E8572753
:100F040011F45F9355C05F3F31F0660F000C5795A5
:100F14006795752F08955F9300200AF055C04EC061
:100F240050E8192E1522880F991F9527550F87957C
:100F340050E8072E0522660F771F7527550F679512
:100F44000895689401C0E8945F93F2DF703818F054
:100F54007F3F08F42DC056E1571BAAF45195583031
:100F64000EF4593030F0EFEFFFEF6FEF7FE777F9D2
:100F74001AC077275523B9F0EE0FFF1F661F771F9E
:100F84005A95D1F710C07727583028F0EF2FF62F55
:100F9400672F5850F9CF552331F076956795F7951B
:100FA400E7955A95D1F700200AF4B4D05F910895DB
:100FB400EE27FF27662777275F910895EFEFFFEF6E
:100FC4006FE77FEF5F910895EFEFFFEF6FE77FE744
:100FD4005F9108955F93A4DF703851F3903841F323
:100FE40001240894791F23F41CF300203AF3ECCF76
:100FF4000F921F932F933F934F93112722279927E3
:10100400689FA0018F9F302D410D591F6B9F300D9C
:10101400411D591F8E9F27D0BF9F25D06A9F23D083
:10102400BE9F1DD0AF9F1BD0AE9F110D291F391F2E
:10103400491F591FE32FF42F652F522F4F913F91D2
:101044002F911F910F9066232AF0550FEE1FFF1F5B
:10105400661F02C073954BF247DF5F910895100D30
:10106400211D391F02C0200D311D491F591F08952C
:101074005F9356DF703821F411200AF49FCFA4CF78
:10108400903809F495CF01240894970B1BF4D4F3FA
:101094000020F3CF792F1F932F933F934F93112465
:1010A4001127222733274427552790E2AE17BF077D
:1010B4008607410730F0AE1BBF0B860B410B08942B
:1010C40001C08894551F221F331F111CAA1FBB1F68
:1010D400881F441F9A9551F7F901612D4F913F9153
:1010E4002F911F91662332F0550FEE1FFF1F661FCD
:1010F4007A9543F2F9DE5F9108950024AF0DB01D97
:101104000895EA1BFB0B680B790B0895F195E195A3
:10111400F0400895F09560957095E195FF4F6F4FFD
:101124007F4F0895EE230E2EFD0121F0EE0FFF1FD9
:101134000A94E1F70895EE230E2EFD01BC0131F06F
:1011440075956795F795E7950A94D1F70895EE2379
:101154000E2EFD01BC0131F076956795F795E79564
:101164000A94D1F70895EE0FFF1FEE0FFF1FEE0F45
:10117400FF1FEE0FFF1F08956F2F660F660B762F6C
:1011840008957A9F702D6B9F700DF89F700DE99FE5
:10119400700D6A9F602D710DFB9F600D711DE89F9E
:1011A400600D711D8827FA9FF02D610D781FEB9F4C
:1011B400F00D611D781FEA9FE02DF10D681F781F67
:1011C40008950024112490E1AA0FBB1F001C111CD8
:1011D4000E1A1F0A18F40E0E1F1E01C0A1609A9564
:1011E40099F7FD01D001089537D0EBDF0EF48EDFBF
:1011F40008953F934F935F93002411244427552768
:1012040030E2AA0FBB1F881F991F001C111C441F2A
:10121400551F0E1A1F0A460B570B28F40E0E1F1EDD
:10122400461F571F01C0A1603A9559F7FD01BC0143
:10123400D001CA015F914F913F910895E894B7FF9F
:1012440004C0A095B09511966894F7FD5FDFB9DFEF
:10125400FD010EF45BDF0895E894F7FF02C056DF4A
:101264006894B7FF06C0A095B095119600F8039452
:1012740000FA0895ED91FC9111970895ED93FD9373
:101284006D937C9308950590159065917491F00188
:1012940008957A936A93FA93EA930895AE17BF0771
:1012A4008607970708955A934A933A932A931A9371
:1012B4000A9308955D814C813B812A8119810881BB
:1012C4000895AC0FBD1F05900D928A95E1F708951E
:00000001FF
