:0C0000000C94FD000C9400000C94000017
:10000C000C9400000C9400000C9400000C94000064
:10001C000C9400000C9400000C9400000C94000054
:10002C000C9400000C9400000C9400000C94000044
:10003C000C9400000C9400000C9400000C94000034
:10004C000C9400000C9400000C9400000C94000024
:10005C000C9400000C9400000C9400000C94000014
:10006C000C9400000C9400000C9400000C94000004
:10007C000C9400000C9400000C9400000C940000F4
:10008C000C9400000C9400000C9400000C940000E4
:10009C000C9400000C9400000C9400000C940000D4
:1000AC000C9400000C9400000C9400000C940000C4
:1000BC000C9400000C9400000C9400000C940000B4
:1000CC000C9400000C9400000C9400000C940000A4
:1000DC000C9400000C940000F07E0E0010CD0E006D
:1000EC0010CD0E00284010002840100050DA1100EE
:1000FC0050DA110020D6130020D61300880C1600FD
:10010C00880C1600588518005885180050211B00C3
:10011C0050211B00F0A11D00F0A11D00388420000F
:10012C003884200070CE20001027E80364000A00F9
:10013C00010000100001100001006A696E676C6517
:10014C002062656C6C73000000006932632074657A
:10015C0073742D2D3E002E2E2E646F6E650A007466
:10016C00756E6572207465737400737472696E6752
:10017C00206D65616E732025730A00756E73696757
:10018C006E65642026207369676E656420696E74E1
:10019C00206E756D6265723A25752025640A000023
:1001AC000000000000000000000001002D4E414E38
:1001BC0000494E4600000C00000A560109000C0ACA
:1001CC0062010B00150A6B010900200A6201110083
:1001DC00290A760124003A0A870124005E0A870165
:1001EC002400820A87010100A60AB6010000F894D7
:1001FC00EE27EFBBF1E0F5BFE5BFE0937400E093B1
:10020C007500F8E1A895A4B7A77FA4BFF093600090
:10021C00E09360008DE0A2E0BB27ED938A95E9F7AF
:10022C0080E090E2A0E0B2E0ED930197E9F7E2EC18
:10023C00F1E085919591009761F0A591B5910590AC
:10024C001590BF01F00105900D920197E1F7FB01AC
:10025C00F0CF8BBF8CBFE0E0EEBBEFEFEDBFE1E288
:10026C00EEBFC0E0DAE00C941502E0E8E093610028
:10027C00E0E0E0936100E2B9E1B9E5B9E0E6E4B9A8
:10028C00E0E0E8B9E7B9EBB9E0E8EAB9E0E0EEB9EB
:10029C00E8EBEDB9E0E0E1BBE0BBE4BBE8E0E3BBDD
:1002AC00E0E0E0930201ECEAE0930101E0E0E0938E
:1002BC000501E0930401E0930801E0930701E0934A
:1002CC000B01E0930A01E4BDE5BDE6BDE7BDE8BD69
:1002DC00E0938000E0938100E0938500E09384003C
:1002EC00E0938700E0938600E0938900E093880018
:1002FC00E0938B00E0938A00E0938D00E0938C00F8
:10030C00E093B600E093B000E093B100E093B2004C
:10031C00E093B300E093B400E0939000E09391007D
:10032C00E0939500E0939400E0939700E09396009F
:10033C00E0939900E0939800E0939B00E0939A007F
:10034C00E0939D00E0939C00E093A000E093A1005B
:10035C00E093A500E093A400E093A700E093A6002F
:10036C00E093A900E093A800E093AB00E093AA000F
:10037C00E093AD00E093AC00E0932001E093210109
:10038C00E0932501E0932401E0932701E0932601FB
:10039C00E0932901E0932801E0932B01E0932A01DB
:1003AC00E0932D01E0932C01E0936900E0936A0047
:1003BC00EDBBE0936B00E0936C00E0936D00E09379
:1003CC006800E0936E00E0936F00E0937000E093A0
:1003DC007100E0937200E0937300E093C100E0932E
:1003EC00C800E8E1E093C900E6E0E093CA00E0E071
:1003FC00E093CD00E7E6E093CC00E0E0E093D100A1
:10040C00E0933101E0E8E0BFE0E0E0937B00E093B3
:10041C007F00E0937A00ECBDE093BC000895A097B8
:10042C0080E1A0E0B0E0E6E4F1E00E94DF09EEEF4D
:10043C00F9E260E070E0EC8FFD8F6E8F7F8FE8E665
:10044C00FEE260E070E0E88FF98F6A8F7B8FE0E06E
:10045C00F0E061EE76E4E88BF98B6A8B7B8BA88DF0
:10046C00B98D8A8D9B8DEC8DFD8D6E8D7F8D0E944F
:10047C00FF080E94C7090E94F706A8EEB3E080E0CF
:10048C0090E00E943F09EC8BFD8B6E8B7F8BEDDE39
:10049C000E9408070E9408075F98E8ECF0E00E94B1
:1004AC0016075F9AE4EFF1E00E941607E1E4EA9385
:1004BC000E94E606E2E4EA930E94E606E3E4EA938D
:1004CC000E94E6065F9A0E94D406E83451F4EDB11E
:1004DC00E063EDB9759A7498E8E4EA930E94E60635
:1004EC00A1C0E13499F4E4E4EA930E94E6065F9833
:1004FC00E8EEF3E00E9416075F9AE8EEF3E00E9444
:10050C001607E1E4EA930E94E6068CC0E73409F48E
:10051C0089C0EC3451F4EDB1E063EDB97598749A7F
:10052C00ECE4EA930E94E6067DC0E23599F5E0E042
:10053C00FAE00E941A07EDB1E063EDB9EEB1E063A9
:10054C00EEB985E18A95F1F70E9421070E942607F2
:10055C000E9426070E9426070E9433070E94380734
:10056C000E9438070E9438070E943D0775986C98C6
:10057C00749A85E18A95F1F7759A649B02C0E1E45F
:10058C0001C0E1E6EA930E94E606ECE0FAE00E9484
:10059C001A0748C0E33569F4E5E1FAE00E941A074E
:1005AC00E0E0EA930E944906E0E2FAE00E941A07B2
:1005BC0039C0E43559F45F98E4E7EA930E94E60603
:1005CC000E9442070E944207BCD22CC0E53551F56F
:1005DC00E9E2FAE0FA93EA93FE0132960E944907A7
:1005EC0084E00E94500626960FE610E820E634EAD6
:1005FC00EAE3FAE00E944E070E9452070FEF15EF54
:10060C0020E934E3EEE5FAE00E944E070E9452071F
:10061C0009E610E025E83FEFE2E8FAE00E944E0719
:10062C000E9452074FCFFFCF7298E2E3F0E00E9496
:10063C001607729A0895EDB1E063EDB9749A759A44
:10064C0085E38A95F1F70E94210708950E945C07C3
:10065C000E942107749A08956C98749A80E28A9586
:10066C00F1F70E945C0764990CC08BE08A95F1F756
:10067C0075986C9A749AE6E2EA930E94E606E1E0B9
:10068C0008956C9AE8E5EA930E94E606E0E0089586
:10069C0008951A9310E0183090F40E946107E981D4
:1006AC00E07811F0749A01C07498E981EE0FE98337
:1006BC008BE08A95F1F70E943D071F5FECCF759890
:1006CC00CBDFE13029F48BE08A95F1F7E1E0DFC272
:1006DC008BE08A95F1F7E0E0DAC21A930A9300E016
:1006EC006C98749A759880E18A95F1F710E018303F
:1006FC0068F40E945C07000FECB1E0710E2B8BE0EC
:10070C008A95F1F70E9461071F5FF1CF6C9A74987C
:10071C000E943D070E946107E02F0C94E3060E94A3
:10072C00D3091C812D813E8186DFEF81E160EA9344
:10073C00B0DFE13061F4103039F0CFDFD901EC9348
:10074C002F5F3F4F1150F7CF81DFE1E001C0E0E0B8
:10075C000E94DA09289608951A936DDF10E0E9815A
:10076C001E1788F4AA81BB81EC91EA9392DFE030EA
:10077C0031F0EA81FB813196EA83FB8302C0E0E031
:10078C0004C01F5FECCF62DFE1E01881249608956E
:10079C002397E0EDE883E1E0E983E0EC06C02397E2
:1007AC00E0EDE883E1E0E983E0E4EA83FE010E9406
:1007BC0066072396089568978AE0A6E0B0E0ECEA15
:1007CC00F1E00E94DF090E94D109E0ECE98B0E9464
:1007DC006C07A03AEBEBBE07EDE08E07E0E09E075E
:1007EC0050F00E946C07A035EAEDBE07E1E18E07E0
:1007FC00E0E09E0708F016C0EEE0ED8B00E010E0A4
:10080C000330E0E01E0758F4F8010E943309EC5164
:10081C00FF4F0E94710718F00F5F1F4FF1CF0B5F56
:10082C001F4F15C0ECE0ED8B00E010E00730E0E06E
:10083C001E0758F4F8010E943309E450FF4F0E9440
:10084C00710718F00F5F1F4FF1CF0F5F1F4FD801CB
:10085C00E5E00E9410098F01E02FAD89EA0FED8BC6
:10086C000E946C07E4EFF1E060E070E00E94770911
:10087C00EE8BFF8B688F798FAE89BF89888D998DB0
:10088C00E0E2F0E060E070E00E947709EA8FFB8F15
:10089C006C8F7D8FEE89FF89688D798DEF71F0708B
:1008AC00607070708F01AA8DBB8D8C8D9D8DE3E077
:1008BC000E942509EA8BEA8DE295E07FEE0FEB8B27
:1008CC00E02FAB89EA0FEB8B00E010E0E989EC87B5
:1008DC00EA89ED87EB89EE87ED89E88BE1EEEF870E
:1008EC00ED89E37FE88B54DFFE013C96FA93EA93A3
:1008FC000E947807EF85E460ED87FE013C96FA9341
:10090C00EA930E947C07EAE0F0E00E941607EDEF04
:10091C00EC8B2DE030E0F901F695E795E470F07082
:10092C00AF01F901EE0FFF1FE870F070EA87FB874B
:10093C00F9010E943509E870F070E887F987F90130
:10094C000E943109E071F070EE83FF83DE01549652
:10095C00EC91E77EEC93DE015596EC91E37FEC9302
:10096C00FE017496BF010080E885AE81EA2BE02978
:10097C00DB01EC93FE017596BF010080E42FAA8584
:10098C00EA2BE029DB01EC93EC89E460ED87ED893F
:10099C00EE87FE013C960E94660701DFE1E0F0E085
:1009AC000E9416070F5F1F4F53D1E03011F0E1E0AA
:1009BC0006C00430E0E01E0708F488CFE0E00E9497
:1009CC00D809A29608952A971A930A93E0EDEA8320
:1009DC00FE0132968F01E0E4EB83E4E6EC83E4E085
:1009EC000E9480070E948707EFE0EB83E4E50E94FA
:1009FC009107E1E1EB83EAE70E949107E2E2EB83E6
:100A0C00E0E0EC830E948007EBE1EB83EFE8EC8302
:100A1C00E0EF0E948007E5E1EB83E7EFEC83E8E889
:100A2C00ED83E8E50E949807E9E1EB83E6EAEC83C5
:100A3C00E8E80E948007EBE2EB83EFEFEC83E7EF53
:100A4C000E948007E7E3EB83EFE2EC83E6E1ED83C2
:100A5C00EDEB0E949807ECE3EB83E2E10E94910737
:100A6C000E948707E0E4EB83E3E6EC83E4E0ED83AC
:100A7C00E0E20E949807E2EBEB83E0E1EC83E2E832
:100A8C00ED83E0E8EE83E2E8EF83E887E9871A93E9
:100A9C000A93E8E0EA9360DE198108812C960895A8
:100AAC002C971A930A93FE0136968F01E0EDEE8394
:100ABC00E0E4EF83E4E6E887E4E0E9871A930A933D
:100ACC00EA934ADEE2E0EF83E0E2E8871A930A93C6
:100ADC00E3E0EA9341DEAE85BF8588899989E0E041
:100AEC00F0E060E879E40E946808DF01CB01E0E007
:100AFC00F0E563EC77E40E94B608DE0112960E94E2
:100B0C0021080E94BC09E8E2EF83AA81BB818C8199
:100B1C009D81ECE00E941909E887E4E00E94190924
:100B2C00E987EA81E295E07FEA87E0E0EB87EC87F2
:100B3C001A930A93E7E0EA930FDE19810881629613
:100B4C0008951A9371DDE2E3F0E00E941607E1E3E9
:100B5C00EA9336D1ED81FE816F8178850E94C709B9
:100B6C002ADEE2E3EA932CD12EDFE3E3EA9328D1E9
:100B7C00E981FA816B817C810E94C70991DFE4E3F2
:100B8C00EA931ED110E0143060F41F5F80E19EE008
:100B9C000197F1F74AD0E03019F0E1E0188143C039
:100BAC00F2CFE0E018813FC023970E94D30931E0D7
:100BBC0020E0E5E3EA9304D1FE0134968F01E0EDE9
:100BCC00EC83E4E2ED831A930A930E947C07E030F5
:100BDC0051F0E2E6EA93F4D00E949C0721F00E94C7
:100BEC00A60721E030E0303039F7E6E3EA93E8D0AD
:100BFC0031E0FE0134968F01E0EDEC83EEE1ED8304
:100C0C001A930A930E947C07E03031F00E949C07F3
:100C1C0019F00E94A60730E0303059F7E7E3EA9369
:100C2C00CFD00E94DA09299608952297FE01FA93F3
:100C3C00EA93BADFE881E078E03821F4E981E078E2
:100C4C00E03809F002C0E1E023C0BDDEE0E020C0E6
:100C5C002197E0ECE8831A9310E09ADDE981EA939E
:100C6C00FE013296FA93EA93E1E0EA9358DD1F5FB6
:100C7C00E981E07419F093DDE1E009C0133070F301
:100C8C008EDDE0E004C01A93198182DDE12F18811A
:100C9C0022960895FF92F82E62970E94D109DE01E8
:100CAC0054960E94FB08AE83BF830E94AF07E0817D
:100CBC00E03011F40C94CE060E94AF07A081A5324F
:100CCC0039F00E94B6073197E081EA9379D0EDCFE5
:100CDC000E94B607E081F0E0E337A0E0FA0771F478
:100CEC000E94C0070D911C91D801EC91E03029F0C5
:100CFC000E94C9070F5F1F4FF7CF47C0E537A0E031
:100D0C00FA07C1F40E94C0072D913C9150E00E945B
:100D1C00CD070E94D20711F05F5FF9CF503041F040
:100D2C000E94CD07AE0FBF1F0E94C9075150F6CFCE
:100D3C00E88529C0E436A0E0FA0711F50E94C00747
:100D4C002D913C9133231AF4EDE2EA9339D03A9386
:100D5C002A930E94EF069F0150E00E94CD070E944B
:100D6C00D20711F05F5FF9CF503041F00E94CD07F0
:100D7C00AE0FBF1F0E94C9075150F6CFE88503C0C4
:100D8C000E94AF07E081EA931BD00E94B6078DCF7B
:100D9C00E1E00E94D8096896FF9008951A930A938F
:100DAC00E091C8001E2FE078D9F30091CE00E12F1E
:100DBC00EC7111F4E02F01C0F3CF09911991089552
:100DCC00E091C800E072E1F3E881E093CE00219657
:100DDC000895E991F99130971AF4E095F0953196D0
:100DEC000895E991F991699179913097604070403B
:100DFC0042F4E095F0956095709500243196601D55
:100E0C00701D08955F98E8ECF0E0FA93EA930E9465
:100E1C00E6075F9AE8ECF0E0FA93EA930C94E607A5
:100E2C00FA93EA930C94E607FA93EA9380E00E9413
:100E3C0050062296089574988BE08A95F1F70895E0
:100E4C0075988BE08A95F1F7749A8BE08A95F1F797
:100E5C00759A85E18A95F1F7089575988BE08A95D6
:100E6C00F1F7E9CF759A85E18A95F1F7F6CF759A86
:100E7C0085E18A95F1F70895EC89FD896E897F8962
:100E8C000E94C7090895662777270E94C70908950D
:100E9C00FA93EA93F801F7CFF9010E943A090E94FC
:100EAC00C70988E00E9450062A960895759A8BE02F
:100EBC008A95F1F70895759885E18A95F1F708956B
:100ECC00FA93EA93E3E0EA930C94B203AE8DBF8DF0
:100EDC0088A199A1089534960E94C109F7DF0E9458
:100EEC00CC090895E5E0EA930C94B203E2E0EA93AE
:100EFC000C94B203ED831A930A93E4E0EA930C94F6
:100F0C00B203E2E0EB83E0E2EC831A930A93E3E0B2
:100F1C00EA930C94B203EC831A930A93E3E0EA93FA
:100F2C000C94B203EE831A930A93DCCFEC81EA9310
:100F3C001A930A93E2E0EA930E949503E030089535
:100F4C00E22FAF81B885F0E0EA0FFB1FAC81A083E4
:100F5C000895DE0158960E94FB080E94B809089576
:100F6C00DE0158960E94FB08ED91FD913196FE939F
:100F7C00EE930895EE81FF813497EE83FF83AE816B
:100F8C00BF8114960895EC91EA930C94E606E52F34
:100F9C00F0E0DE0118960895EA0FFB1FBF01D9019E
:100FAC00EAE0F0E00E949C09E05DDB01EC93D901E2
:100FBC00EAE0F0E00E9472099F01022E032A0895D4
:100FCC00E991F991309639F080EA9FE00197F1F7B9
:100FDC00A8953197C9F70895552342F4503811F468
:100FEC00E0FF04C03196691F791F6BF050E857275A
:100FFC0011F45F9355C05F3F31F0660F000C5795AD
:10100C006795752F08955F9300200AF055C04EC068
:10101C0050E8192E1522880F991F9527550F879583
:10102C0050E8072E0522660F771F7527550F679519
:10103C000895689401C0E8945F93F2DF703818F05B
:10104C007F3F08F42DC056E1571BAAF45195583038
:10105C000EF4593030F0EFEFFFEF6FEF7FE777F9D9
:10106C001AC077275523B9F0EE0FFF1F661F771FA5
:10107C005A95D1F710C07727583028F0EF2FF62F5C
:10108C00672F5850F9CF552331F076956795F79522
:10109C00E7955A95D1F700200AF4B4D05F910895E2
:1010AC00EE27FF27662777275F910895EFEFFFEF75
:1010BC006FE77FEF5F910895EFEFFFEF6FE77FE74B
:1010CC005F9108955F93A4DF703851F3903841F32A
:1010DC0001240894791F23F41CF300203AF3ECCF7D
:1010EC000F921F932F933F934F93112722279927EA
:1010FC00689FA0018F9F302D410D591F6B9F300DA4
:10110C00411D591F8E9F27D0BF9F25D06A9F23D08A
:10111C00BE9F1DD0AF9F1BD0AE9F110D291F391F35
:10112C00491F591FE32FF42F652F522F4F913F91D9
:10113C002F911F910F9066232AF0550FEE1FFF1F62
:10114C00661F02C073954BF247DF5F910895100D37
:10115C00211D391F02C0200D311D491F591F089533
:10116C005F9356DF703821F411200AF49FCFA4CF7F
:10117C00903809F495CF01240894970B1BF4D4F301
:10118C000020F3CF792F1F932F933F934F9311246C
:10119C001127222733274427552790E2AE17BF0784
:1011AC008607410730F0AE1BBF0B860B410B089432
:1011BC0001C08894551F221F331F111CAA1FBB1F6F
:1011CC00881F441F9A9551F7F901612D4F913F915A
:1011DC002F911F91662332F0550FEE1FFF1F661FD4
:1011EC007A9543F2F9DE5F9108950024AF0DB01D9E
:1011FC000895EA1BFB0B680B790B0895F195E195AB
:10120C00F0400895F09560957095E195FF4F6F4F04
:10121C007F4F0895EE230E2EFD0121F0EE0FFF1FE0
:10122C000A94E1F70895EE230E2EFD01BC0131F076
:10123C0075956795F795E7950A94D1F70895EE2380
:10124C000E2EFD01BC0131F076956795F795E7956B
:10125C000A94D1F70895EE0FFF1FEE0FFF1FEE0F4C
:10126C00FF1FEE0FFF1F08956F2F660F660B762F73
:10127C0008957A9F702D6B9F700DF89F700DE99FEC
:10128C00700D6A9F602D710DFB9F600D711DE89FA5
:10129C00600D711D8827FA9FF02D610D781FEB9F53
:1012AC00F00D611D781FEA9FE02DF10D681F781F6E
:1012BC0008950024112490E1AA0FBB1F001C111CDF
:1012CC000E1A1F0A18F40E0E1F1E01C0A1609A956B
:1012DC0099F7FD01D001089537D0EBDF0EF48EDFC6
:1012EC0008953F934F935F9300241124442755276F
:1012FC0030E2AA0FBB1F881F991F001C111C441F32
:10130C00551F0E1A1F0A460B570B28F40E0E1F1EE4
:10131C00461F571F01C0A1603A9559F7FD01BC014A
:10132C00D001CA015F914F913F910895E894B7FFA6
:10133C0004C0A095B09511966894F7FD5FDFB9DFF6
:10134C00FD010EF45BDF0895E894F7FF02C056DF51
:10135C006894B7FF06C0A095B095119600F8039459
:10136C0000FA0895ED91FC9111970895ED93FD937A
:10137C006D937C9308950590159065917491F0018F
:10138C0008957A936A93FA93EA930895AE17BF0778
:10139C008607970708955A934A933A932A931A9378
:1013AC000A9308955D814C813B812A8119810881C2
:1013BC000895AC0FBD1F05900D928A95E1F7089525
:00000001FF
