:0A0000000C9474010C9400000C94A1
:10000A0000000C9400000C9400000C9400000C9466
:10001A0000000C9400000C9400000C9400000C9456
:10002A0000000C9400000C9400000C9400000C9446
:10003A0000000C9400000C9400000C9400000C9436
:10004A0000000C9400000C9400000C9400000C9426
:10005A0000000C9400000C9400000C9400000C9416
:10006A0000000C9400000C9400000C9400000C9406
:10007A0000000C9400000C9400000C9400000C94F6
:10008A0000000C94EB070C9400000C9400000C94F4
:10009A0000000C9400000C9400000C9400000C94D6
:1000AA0000000C9400000C9400000C94E2070C94DD
:1000BA0000000C9400000C9400000C9400000C94B6
:1000CA0000000C9400000C9400000C9400000C94A6
:1000DA0000000C9400000C940000F07E0E0010CD7D
:1000EA000E0010CD0E00284010002840100050DAF3
:1000FA00110050DA110020D6130020D61300880C04
:10010A001600880C160058851800588518005021CA
:10011A001B0050211B00F0A11D00F0A11D00388416
:10012A0020003884200070CE20001027E8036400E5
:10013A000A00010000100001100001006A696E67E0
:10014A006C652062656C6C730000000074756E65E6
:10015A007220696E697420616E6420726561642020
:10016A0041474320616E616C6F67206E756D6265F1
:10017A007220616E64204147432072656769737417
:10018A006572206E756D6265723A00256400677942
:10019A00726F313A2564206779726F323A2564208A
:1001AA006779726F333A2564204147433A25640AD6
:1001BA00006D6F746F722074657374207769746848
:1001CA002025780A00456E74657220726567697326
:1001DA0074657220616464723A0074756E65722087
:1001EA00746573742E2E2E002E2E2E646F6E650A81
:1001FA0000737472696E67206D65616E7320257372
:10020A000A00686578203078257820307825780AC1
:10021A000068657820307825780A00756E736967FA
:10022A006E65642026207369676E656420696E7442
:10023A00206E756D6265723A25752025640A000084
:10024A0000000000000000000000307825782C3003
:10025A007825780A00726561642074756E65723A51
:10026A0025780A0001002D4E414E00494E460000F5
:10027A003F00000A560103003F0A95010300420AA3
:10028A0095012300450A98012300680A9801140081
:10029A008B0ABB0115009F0ACF010E00B40AE401C4
:1002AA000900C20AF2011100CB0AFB010F00DC0AA5
:1002BA000C020A00EB0A1B022400F50A250224009C
:1002CA00190B250224003D0B25020B00610B540279
:1002DA000F006C0B5F0201007F0B6E020000F894A6
:1002EA00EE27EFBBF1E0F5BFE5BFE0937400E093C2
:1002FA007500F8E1A895A4B7A77FA4BFF0936000A2
:10030A00E09360008DE0A2E0BB27ED938A95E9F7C0
:10031A0080E090E2A0E0B2E0ED930197E9F7EAE726
:10032A00F2E085919591009761F0A591B5910590BC
:10033A001590BF01F00105900D920197E1F7FB01BD
:10034A00F0CF8BBF8CBFE0E0EEBBEFEFEDBFE1E299
:10035A00EEBFC0E0DAE00C947302E0E8E0936100DB
:10036A00E0E0E0936100E2B9E1B9E5B9E0E6E4B9B9
:10037A00E0E0E8B9E7B9EBB9E0E8EAB9E0E0EEB9FC
:10038A00ECEBEDB9E0E0E1BBE0BBE4BBE8E0E3BBEA
:10039A00E0E0E0930201ECEAE0930101E0E0E0939F
:1003AA000501E0930401E0930801E0930701E0935B
:1003BA000B01E0930A01E4BDE5BDE6BDE7BDE8BD7A
:1003CA00E0938000E0938100E0938500E09384004D
:1003DA00E0938700E0938600E0938900E093880029
:1003EA00E0938B00E0938A00E0938D00E0938C0009
:1003FA00E093B600E093B000E093B100E093B2005E
:10040A00E093B300E093B4000E94A3080E94A908F5
:10041A00E0E00E94B108E0E00E94B7080E94C30829
:10042A000E94C908E0E0E093A600E093A9000E94B8
:10043A00D108E0E0E0932001E0932101E093250157
:10044A00E0932401E0932701E0932601E093290138
:10045A00E0932801E0932B01E0932A01E0932D0118
:10046A00E0932C01E0936900E0936A00EDBBE0930E
:10047A006B00E0936C00E0936D00E0936800E093FA
:10048A006E00E0936F00E0937000E0937100E093D8
:10049A007200E0937300E093C100E093C800E8E1C2
:1004AA00E093C900E6E0E093CA00E0E0E093CD0003
:1004BA00E7E6E093CC00E0E0E093D100E09331017D
:1004CA00E0E8E0BFE0E0E0937B00E0937F00E093A8
:1004DA007A00ECBDE093BC0078940895A09780E17F
:1004EA00A0E0B0E0E6E4F1E00E94F60BEEEFF9E2FC
:1004FA0060E070E0EC8FFD8F6E8F7F8FE8E6FEE2A2
:10050A0060E070E0E88FF98F6A8F7B8FE0E0F0E0BF
:10051A0061EE76E4E88BF98B6A8B7B8BA88DB98DBB
:10052A008A8D9B8DEC8DFD8D6E8D7F8D0E94120BB9
:10053A000E94DA0B0E949208A8EEB3E080E090E0F5
:10054A000E94520BEC8BFD8B6E8B7F8B06DF0E9419
:10055A00DD080E94DD085F98E8ECF0E00E94EB08F5
:10056A005F9AE4EFF1E00E94EB08E1E4EA930E946B
:10057A00DA07E2E4EA930E94DA07E3E4EA930E94E4
:10058A00DA075F9A0E94C807E834A9F4E0E0FAE0C3
:10059A000E94EF08EBE0EA930E94A1078F01EFE3C4
:1005AA00FAE00E94F6080E9481068F01E2E4FAE06E
:1005BA000E94F608B3C0E134E9F40E94C8075E2F2E
:1005CA005A930E94010808EE13E0F8010150104006
:1005DA00309769F0E5E0F0E00E94EB08E5E4FAE024
:1005EA000E9402098CE00E94FA062E96EECF0E9423
:1005FA00600894C0E23479F4E8E6FAE00E9402095D
:10060A00EBE0EA930E94A1070E941D0980E10E9483
:10061A00FA06629683C0ED3469F40E94C8075E2F19
:10062A00EBE8FAE00E9422090E942B095A930E94E1
:10063A00650874C0EC3451F4EDB1E063EDB9759816
:10064A00749AECE4EA930E94DA0768C0E23561F42E
:10065A005F98EFE9FAE00E94EF080E94C8075E2F50
:10066A005A930E94A4065AC0E33569F4E4EBFAE00F
:10067A000E94EF08E0E0EA930E94F306E2ECFAE057
:10068A000E94EF084BC0E43559F45F98E4E7EA9317
:10069A000E94DA070E9430090E943009DCD23EC06B
:1006AA00E535E1F5EBECFAE0FA93EA93FE013296CE
:1006BA000E941D090E942B0953E3ECEDFAE00E9407
:1006CA0022090E94370970960E943A095CEEEBEE05
:1006DA00FAE00E9422090E942B090FE610E820E6A0
:1006EA0034EAE5EFFAE00E944309F9010E943A0967
:1006FA000FEF15EF20E934E3E9E1FBE00E9443093B
:10070A00F9010E943A0909E610E025E83FEFEDE316
:10071A00FBE00E944309F9010E943A0932CFFFCF58
:10072A007298E2E3F0E00E94EB08729A0895EDB144
:10073A00E063EDB9749A759A8BE28A95F1F7749829
:10074A008BE08A95F1F70895EDB1E063EDB9749AFB
:10075A008BE08A95F1F70E94470974988BE08A9595
:10076A00F1F7749A85E18A95F1F7759A08956C986C
:10077A00749A85E18A95F1F70E944709649907C03E
:10078A008BE08A95F1F775986C9AE1E008956C9A76
:10079A00E8E5EA930E94DA07E0E0089508951A93DB
:1007AA0010E01830B0F475988BE08A95F1F7E9817A
:1007BA00E07811F0749A01C07498E981EE0FE98328
:1007CA008BE08A95F1F7759A85E18A95F1F71F5FB3
:1007DA00E8CF7598CCDFE13029F485E18A95F1F705
:1007EA00E1E000C38BE08A95F1F7E0E0FBC20E94EA
:1007FA00E80B1E812F8138859ADFE985E160EA934B
:10080A00CEDFE13091F56C98E12F1150E03051F1D3
:10081A0050E08BE28A95F1F7749A00E0083070F4A0
:10082A0085E18A95F1F70E944709550F64995F5F40
:10083A008BE08A95F1F775980F5FF0CFE52FD90114
:10084A00EC932F5F3F4F85E18A95F1F774986C9A84
:10085A00759A85E18A95F1F775986C9885E38A957A
:10086A00F1F7D2CF71DFE1E001C0E0E00E94EF0BC7
:10087A002A9608951A935BDF10E0E9811E1790F417
:10088A00AA81BB81EC91EA938ADFE03031F0EA81F8
:10089A00FB813196EA83FB8303C0E0E018814DC2F5
:1008AA001F5FEBCF51DFE1E0188147C22397E0EDEC
:1008BA00E883E1E0E983E8ED0E944C090C945808CA
:1008CA002397E0EDE883E1E0E983E8E50E944C093B
:1008DA000C94580868978AE0A6E0B0E0EAE4F2E0EF
:1008EA000E94F60B0E94E80BE0ECE98B0E94540987
:1008FA00A03AEBEBBE07EDE08E07E0E09E0750F072
:10090A000E945409A035EAEDBE07E1E18E07E0E056
:10091A009E0708F016C0EEE0ED8B00E010E0033011
:10092A00E0E01E0758F4F8010E94460BEC51FF4F15
:10093A000E94590918F00F5F1F4FF1CF0B5F1F4F2D
:10094A0015C0ECE0ED8B00E010E00730E0E01E0798
:10095A0058F4F8010E94460BE450FF4F0E945909CF
:10096A0018F00F5F1F4FF1CF0F5F1F4FD801E5E05F
:10097A000E94230B8F01E02FAD89EA0FED8B0E94B5
:10098A005409E4EFF1E060E070E00E948A0BEE8B1C
:10099A00FF8B688F798FAE89BF89888D998DE0E248
:1009AA00F0E060E070E00E948A0BEA8FFB8F6C8FA8
:1009BA007D8FEE89FF89688D798DEF71F070607097
:1009CA0070708F01AA8DBB8D8C8D9D8DE3E00E9486
:1009DA00380BEA8BEA8DE295E07FEE0FEB8BE02F86
:1009EA00AB89EA0FEB8B00E010E0E989EC87EA8932
:1009FA00ED87EB89EE87ED89E88BE1EEEF87ED89EC
:100A0A00E37FE88B53DF0E9460090E946509EF8546
:100A1A00E460ED870E9460090E946909EAE0F0E05B
:100A2A000E94EB08EDEFEC8B2DE030E0F901F69532
:100A3A00E795E470F070AF01F901EE0FFF1FE8705F
:100A4A00F070EA87FB87F9010E94480BE870F070A2
:100A5A00E887F987F9010E94440BE071F070EE8390
:100A6A00FF83DE015496EC91E77EEC93DE01559606
:100A7A00EC91E37FEC93FE017496BF010080E88558
:100A8A00AE81EA2BE029DB01EC93FE017596BF01EA
:100A9A000080E42FAA85EA2BE029DB01EC93EC899C
:100AAA00E460ED87ED89EE870E9460090E946D0976
:100ABA0007DFE1E0F0E00E94EB080F5F1F4F6AD109
:100ACA00E03011F0E1E006C00430E0E01E0708F46F
:100ADA008CCFE0E00E94EF0BA29608952A971A9312
:100AEA000A93E0EDEA83FE0132968F01E0E4EB839C
:100AFA00E4E6EC83E4E00E9471090E947809EFE0E1
:100B0A00EB83E4E50E947F09E1E1EB83EAE70E94D7
:100B1A007F09E2E2EB83E0E0EC830E947109EBE1FA
:100B2A00EB83EFE8EC83E0EF0E947109E5E1EB83E8
:100B3A00E7EFEC83E8E8ED83E8E50E948309E9E161
:100B4A00EB83E6EAEC83E8E80E947109EBE2EB83C7
:100B5A00EFEFEC83E7EF0E947109E7E3EB83EFE243
:100B6A00EC83E6E1ED83EDEB0E948309ECE3EB8392
:100B7A00E2E10E947F090E947809E0E4EB83E3E660
:100B8A00EC83E4E0ED83E0E20E948309E2EBEB838D
:100B9A00E0E1EC83E2E8ED83E0E8EE83E2E8EF836C
:100BAA00E887E9871A930A93E8E0EA9363DE1981F2
:100BBA0008812C9608952C971A930A93FE0136966B
:100BCA008F01E0EDEE83E0E4EF83E4E6E887E4E01A
:100BDA00E9871A930A93EA934DDEE2E0EF83E0E2B3
:100BEA00E8871A930A930E946D09AE85BF858889A2
:100BFA009989E0E0F0E060E879E40E947B0ADF018D
:100C0A00CB01E0E0F0E563EC77E40E94C90ADE017B
:100C1A0012960E94340A0E94CF0BE8E2EF83AA815F
:100C2A00BB818C819D81ECE00E942C0BE887E4E07B
:100C3A000E942C0BE987EA81E295E07FEA87E0E0EF
:100C4A00EB87EC871A930A93E7E0EA9313DE19819C
:100C5A000881629608951A9363DDE2E3F0E00E9448
:100C6A00EB08ED81FE816F8178850E94DA0B32DE16
:100C7A0035DFE981FA816B817C810E94DA0B9BDF87
:100C8A0010E0143058F41F5F80E19EE00197F1F7FD
:100C9A0009D0EF3F11F4E1E002C0F3CFE0E01881A0
:100CAA00299608952497E0EDE883EEE10E948709EA
:100CBA00E03011F4E0E041C00E948C0911F4E0E058
:100CCA003CC0EA81EB83E4E20E948709E03011F438
:100CDA00E0E033C00E948C0911F4E0E02EC0EA8102
:100CEA00E078E03821F4EB81E078E03809F002C0DE
:100CFA00EFEF23C0E1E021C02497E0EDE883E0E2D2
:100D0A000E948709E03019F4E0E0F0E016C0E881BB
:100D1A00EA93FE013396FA93EA93E2E0EA9367DDF7
:100D2A00E03019F4E0E0F0E008C0EA81E883EB8102
:100D3A00EA83E881EB83EA81FB812496089523976D
:100D4A001A930A93FE0132968F01E0EDEA83ED8150
:100D5A00EB831A930A930E946909E030B9F0EA8199
:100D6A00EA931A930A93E2E0EA9341DDE03071F0E4
:100D7A00E1E6FBE0FA93EA93EC810E949809E9859F
:100D8A000E94980988E031D02A96EA81198108815F
:100D9A00269608952197E0ECE8831A9310E086DD01
:100DAA00E981EA93FE013296FA93EA93E1E0EA9343
:100DBA001EDDECE6FBE0FA93EA93EB810E949809C8
:100DCA000E942B091F5FE981E07419F079DDE1E0E7
:100DDA0009C0133028F374DDE0E004C01A931981C6
:100DEA008BDFE12F188122960895FF92F82E6297E1
:100DFA000E94E80BDE0154960E940E0BAE83BF835D
:100E0A000E949E09E081E03011F40C949B070E9435
:100E1A009E09A081A53239F00E94A5093197E08187
:100E2A00EA93C3D0EDCF0E94A509E081F0E0E33751
:100E3A00A0E0FA0771F40E94AF090D911C91D80144
:100E4A00EC91E03029F00E94B8090F5F1F4FF7CFED
:100E5A006AC0E537A0E0FA07B1F40E94AF092D9104
:100E6A003C9150E00E9437090E94BC0911F05F5F73
:100E7A00F9CF503031F00E9437090E94D2095150FF
:100E8A00F8CFE8854EC0E436A0E0FA0701F50E94E3
:100E9A00AF092D913C9133231AF4EDE2EA9385D000
:100EAA003A932A930E948A089F0150E00E943709C8
:100EBA000E94BC0911F05F5FF9CF503031F00E94F7
:100ECA0037090E94D2095150F8CFE8852AC0E8377D
:100EDA00A0E0FA0719F50E94AF092C913327D9012E
:100EEA00E0E1F0E00E94AF0BE05DE987D901E0E1C3
:100EFA00F0E00E94850BE05DE887A985AA3318F027
:100F0A00E985E95FE987A885AA3318F0E885E95FEA
:100F1A00E887E885EA9349D0E98503C00E949E09DB
:100F2A00E081EA9342D00E94A5096ACFE1E00E94DB
:100F3A00EF0B6896FF900895E881EF71E064E09303
:100F4A007C00E881E07221F0E0917B00E86003C058
:100F5A00E0917B00E77FE0937B0085E38A95F1F7D8
:100F6A00E0917A00E064E0937A00E0917A00E0711F
:100F7A00E1F3E0917A00E061E0937A00E091780091
:100F8A00F0917900C0C01A930A93E091C8001E2F0D
:100F9A00E078D9F30091CE00E12FEC7111F4E02F43
:100FAA0001C0F3CF099119910895E091C800E07248
:100FBA00E1F3E881E093CE00A6C00E94D709ADE72D
:100FCA00BBE00E94E50909F470D008C00E94D70965
:100FDA00ABE7BBE00E94E50909F46DD0E991EFBFE8
:100FEA00F991E991B991A991999189917991699127
:100FFA00F9901990099018950E94EC09E0E00E9476
:10100A00A908E881EE0FEE0F0E94B108E2E00E9403
:10101A00B70879C00E94F309E0937D0BF0937E0B29
:10102A00A981BA810E94DF0B24F4E0910201E068F1
:10103A0003C0E0910201EF77E09302010E94C90820
:10104A00E881EE0FEE0FE093A600E0E0E093A9003E
:10105A00E4E00E94D108E0E8E093A000E3E1E09335
:10106A00A100E1E0E09372001EC00E94F309E09340
:10107A007B0BF0937C0BA981BA810E94DF0B14F4DD
:10108A00779A01C07798E0E00E94A908E881EE0FFC
:10109A00EE0F0E94B108E4E00E94B7080E94EC0932
:1010AA00E1E0E093710023960895E0E0E093720096
:1010BA000E94C30808950E94A308E093720008954D
:1010CA00E881E07821F0E881EF70EA9395DFE88122
:1010DA00E07441F0E8ECF0E0FA93EA93EA81EF7009
:1010EA00EA9398DFE881E07241F0ECE2F1E0FA93EA
:1010FA00EA93EA81EF70EA93B8DFE881E07111F0D0
:10110A00DADFD3DFE1E021960895E991F99130978A
:10111A001AF4E095F09531960895E991F99169915B
:10112A00799130976040704042F4E095F09560956F
:10113A00709500243196601D701D0895E0E0E093DB
:10114A009000E09391000895E0939500E0E0E09329
:10115A009400E09397000895E0939600E0E0E0930E
:10116A0099000895E0939800E0E0E0939B00E093F3
:10117A009A00E0939D00E0939C000895E0E0E093DC
:10118A00A000E093A1000895E0E0E093A500E093B9
:10119A00A400E093A7000895E093A800E0E0E0939C
:1011AA00AB00E093AA00E093AD00E093AC00089591
:1011BA005F98E8ECF0E0FA93EA930E94F9095F9AE3
:1011CA00E8ECF0E0FA93EA930C94F909FA93EA93BB
:1011DA000C94F909FA93EA9380E00E94FA0622969F
:1011EA000895FA93EA93F801662777270E94DA0BA3
:1011FA0084E00E94FA0626960895FA93EA93EDE0AF
:10120A00EA930E94A107662777270E94DA0BEEE08D
:10121A00EA930E94A107662777270E94DA0BEFE07C
:10122A00EA930E94A107662777270E94DA0B08959E
:10123A00662777270E94DA0B0895FA93EA93E52F37
:10124A00FF27662777270E94DA0B089584E00E9419
:10125A00FA0626960895EC89FD896E897F890E948F
:10126A00DA0B0895E52FF0E008950E944D0B0E94D5
:10127A00DA0B88E00E94FA062A960895FA93EA930E
:10128A00F801D6CF759A8BE08A95F1F70895EA832B
:10129A00FE01FA93EA93E3E0EA930C943F04AE8DDD
:1012AA00BF8D88A199A1089534960E94D40BF7DFC7
:1012BA000E94E30B0895FE013C96FA93EA9308957F
:1012CA00E5E0EA930C943F04E2E0EA930C943F04CD
:1012DA00E3E0EA930C943F04ED831A930A93E4E063
:1012EA00EA930C943F04E2E0EB83E0E2EC831A9386
:1012FA000A93EECFEC831A930A93EACFEE831A93FA
:10130A000A93DECFE983FE01FA93EA93DDCFE881FF
:10131A00EA93FE013396FA93EA93E1E0EA930E9494
:10132A00FC03E0300895FF27662777270E94DA0B2F
:10133A000895DE0158960E940E0B0E94CB0B089569
:10134A00DE0158960E940E0BED91FD913196FE93A7
:10135A00EE930895EE81FF813497EE83FF83AE8189
:10136A00BF8114960895EC91EA930C94DA07DE0192
:10137A001896EA0FFB1FBF01D901EAE0F0E00E94CC
:10138A00AF0BE05DDB01EC93D901EAE0F0E00E94EB
:10139A00850B9F01022E032A0895DE011896AE0FCF
:1013AA00BF1FE1CF0A921A92FA926A937A938A93AA
:1013BA009A93AA93BA93EA93FA93EFB7EA930895A2
:1013CA00ED91FD913197FE93EE9331960895E0E801
:1013DA00E0939000E3E1E09391000895E981FA81B6
:1013EA00FA93EA930C948A08E991F991309639F0C4
:1013FA0080EA9FE00197F1F7A8953197C9F7089518
:10140A00552342F4503811F4E0FF04C03196691FA5
:10141A00791F6BF050E8572711F45F9355C05F3F6F
:10142A0031F0660F000C57956795752F08955F93F5
:10143A0000200AF055C04EC050E8192E1522880F18
:10144A00991F9527550F879550E8072E0522660F95
:10145A00771F7527550F67950895689401C0E8941A
:10146A005F93F2DF703818F07F3F08F42DC056E121
:10147A00571BAAF4519558300EF4593030F0EFEF5B
:10148A00FFEF6FEF7FE777F91AC077275523B9F097
:10149A00EE0FFF1F661F771F5A95D1F710C07727E7
:1014AA00583028F0EF2FF62F672F5850F9CF5523D1
:1014BA0031F076956795F795E7955A95D1F700201B
:1014CA000AF4B4D05F910895EE27FF27662777279D
:1014DA005F910895EFEFFFEF6FE77FEF5F91089558
:1014EA00EFEFFFEF6FE77FE75F9108955F93A4DF68
:1014FA00703851F3903841F301240894791F23F48A
:10150A001CF300203AF3ECCF0F921F932F933F93D3
:10151A004F93112722279927689FA0018F9F302D6B
:10152A00410D591F6B9F300D411D591F8E9F27D0AA
:10153A00BF9F25D06A9F23D0BE9F1DD0AF9F1BD0CF
:10154A00AE9F110D291F391F491F591FE32FF42F71
:10155A00652F522F4F913F912F911F910F90662324
:10156A002AF0550FEE1FFF1F661F02C073954BF23C
:10157A0047DF5F910895100D211D391F02C0200D0C
:10158A00311D491F591F08955F9356DF703821F4A2
:10159A0011200AF49FCFA4CF903809F495CF0124E3
:1015AA000894970B1BF4D4F30020F3CF792F1F93E1
:1015BA002F933F934F931124112722273327442730
:1015CA00552790E2AE17BF078607410730F0AE1BDA
:1015DA00BF0B860B410B089401C08894551F221F2C
:1015EA00331F111CAA1FBB1F881F441F9A9551F74E
:1015FA00F901612D4F913F912F911F91662332F08E
:10160A00550FEE1FFF1F661F7A9543F2F9DE5F91B1
:10161A0008950024AF0DB01D0895EA1BFB0B680B5B
:10162A00790B0895F195E195F0400895F09560954C
:10163A007095E195FF4F6F4F7F4F0895EE230E2E61
:10164A00FD0121F0EE0FFF1F0A94E1F70895EE2342
:10165A000E2EFD01BC0131F075956795F795E7955A
:10166A000A94D1F70895EE230E2EFD01BC0131F044
:10167A0076956795F795E7950A94D1F70895EE0F51
:10168A00FF1FEE0FFF1FEE0FFF1FEE0FFF1F089544
:10169A006F2F660F660B762F08957A9F702D6B9FBA
:1016AA00700DF89F700DE99F700D6A9F602D710D86
:1016BA00FB9F600D711DE89F600D711D8827FA9FC1
:1016CA00F02D610D781FEB9FF00D611D781FEA9FC9
:1016DA00E02DF10D681F781F08950024112490E170
:1016EA00AA0FBB1F001C111C0E1A1F0A18F40E0E9B
:1016FA001F1E01C0A1609A9599F7FD01D0010895B6
:10170A0037D0EBDF0EF48EDF08953F934F935F934C
:10171A00002411244427552730E2AA0FBB1F881F33
:10172A00991F001C111C441F551F0E1A1F0A460B35
:10173A00570B28F40E0E1F1E461F571F01C0A1602B
:10174A003A9559F7FD01BC01D001CA015F914F9149
:10175A003F910895E894B7FF04C0A095B0951196FB
:10176A006894F7FD5FDFB9DFFD010EF45BDF0895D2
:10177A00E894F7FF02C056DF6894B7FF06C0A09549
:10178A00B095119600F8039400FA0895ED91FC9132
:10179A0011970895ED93FD936D937C9308950590A9
:1017AA00159065917491F00108957A936A93FA936A
:1017BA00EA93089500240A160B060895AE17BF0788
:1017CA008607970708955A934A933A932A931A9346
:1017DA000A9308955D814C813B812A811981088190
:1017EA000895AC0FBD1F05900D928A95E1F70895F3
:00000001FF
